:020000040800F2
:10000000E80A0020CD010008C7250008731F00087A
:10001000812500081B040008092C000800000000CE
:10002000000000000000000000000000CB260008D7
:100030008D04000800000000C9260008CD26000835
:10004000E7010008E7010008E7010008E7010008F0
:10005000E7010008E7010008E7010008E7010008E0
:10006000E7010008E7010008E7010008E7010008D0
:10007000E7010008E7010008E7010008E7010008C0
:10008000E7010008E7010008E7010008E7010008B0
:10009000E7010008E7010008E7010008E7010008A0
:1000A000E7010008E7010008E7010008E701000890
:1000B000E7010008E7010008E7010008E701000880
:1000C000E7010008E7010008E7010008E701000870
:1000D000E7010008B52B0008F12B0008FD2B0008F4
:1000E000E7010008E7010008E7010008E701000850
:1000F000E7010008E7010008E7010008E701000840
:10010000E7010008E7010008E7010008E70100082F
:10011000E7010008E7010008892700089527000883
:10012000E7010008E7010008E7010008E70100080F
:1001300000F002F800F03AF80AA090E8000C8244BF
:100140008344AAF10107DA4501D100F02FF8AFF29C
:10015000090EBAE80F0013F0010F18BFFB1A43F0A5
:1001600001031847F038000010390000103A24BF8E
:1001700078C878C1FAD8520724BF30C830C144BF0C
:1001800004680C607047000000230024002500264E
:10019000103A28BF78C1FBD8520728BF30C148BFEA
:1001A0000B6070471FB51FBD10B510BD00F0D4F82F
:1001B0001146FFF7F7FF02F0ECFD00F0F2F803B490
:1001C000FFF7F2FF03BC00F0F5F800000948804794
:1001D00009480047FEE7FEE7FEE7FEE7FEE7FEE729
:1001E000FEE7FEE7FEE7FEE704480549054A064B41
:1001F000704700008727000831010008E80400204C
:10020000E80A0020E8060020E8060020032A40F261
:10021000308010F0030C00F0158011F8013BBCF1A8
:10022000020F624498BF11F801CB00F8013B38BFC0
:1002300011F8013BA2F1040298BF00F801CB38BFCE
:1002400000F8013B11F0030300F04F80083AC0F0C2
:10025000088051F8043B083A51F804CBA0E8081094
:10026000F5E7121D5CBF51F8043B40F8043BAFF3C7
:100270000080D20724BF11F8013B11F801CB48BF21
:1002800011F8012B24BF00F8013B00F801CB48BF57
:1002900000F8012B70474FF0000200B5134694465A
:1002A0009646203922BFA0E80C50A0E80C50B1F1CE
:1002B0002001BFF4F7AF090728BFA0E80C5048BFE2
:1002C0000CC05DF804EB890028BF40F8042B08BF80
:1002D000704748BF20F8022B11F0804F18BF00F87C
:1002E000012B704770477047704710B5203AC0F037
:1002F0000B80B1E81850203AA0E81850B1E8185027
:10030000A0E81850BFF4F5AF5FEA027C24BFB1E863
:100310001850A0E8185044BF18C918C0BDE81040D4
:100320005FEA827C24BF51F8043B40F8043B08BFDD
:100330007047D20728BF31F8023B48BF11F8012BA4
:1003400028BF20F8023B48BF00F8012B704700008F
:1003500000487047880400207546FFF7F9FFAE4655
:1003600005006946534620F00700854618B020B5C1
:10037000FFF73AFFBDE820404FF000064FF00007BE
:100380004FF000084FF0000B21F00701AC46ACE83D
:10039000C009ACE8C009ACE8C009ACE8C0098D46AA
:1003A000704710B50446AFF300802046BDE810400A
:1003B000FFF705BF01491820ABBEFEE7260002008B
:1003C0007047000070B5044600688168C943C907DA
:1003D00017D1816821F00101816000F0B7FB05466B
:1003E0000AE000BF00F0B2FB401B022804D92068DD
:1003F0008068C043C00706D020688068C043C0073B
:10040000F0D0002070BDA06A40F01000A062E06A49
:1004100040F00100E062012070BDFEE710B501F080
:10042000E9FD012300221849012806D0022813D033
:1004300003281BD04A608A600CE04868401C486072
:100440000A2807DB886818B9C1E901230B7010BDC1
:100450004A6010BD0A7010BD4868401C48600A28F8
:10046000F8DB88680028F3D1022008E04868401CC7
:1004700048600A28EEDB88680028E9D10320C1E93A
:100480000123087010BD000034000020704772B6D0
:10049000FEE700000B4810B50468616A0A4849424B
:1004A0000AB202800023636208490C68616A09B2DB
:1004B0004180636243681A444260826811448160EB
:1004C00010BD00001801002040000020380200206C
:1004D0002DE9F041194F0221384600F025FB012596
:1004E0000026174C01281ED026700421384600F043
:1004F0001BFB012819D066700821384600F014FB58
:10050000012814D0A6701021384600F00DFB0128F8
:100510000FD0E6702021384600F006FB01280AD0F3
:100520002671BDE8F0812570DFE76570E4E7A5700E
:10053000E9E7E570EEE72571F3E700000010014000
:1005400018000020F8B50024009490F824202546D7
:10055000012A12D0012280F824204A681F23072A8A
:100560000DD20668776B521E02EB820293409F43C6
:100570000B6893401F43776319E00220F8BD0668BB
:100580000D2A0AD2376BD21F02EB820293409F439F
:100590000B6893401F43376309E0F76A0D3A02EB9B
:1005A000820293409F430B6893401F43F7620A689F
:1005B000072306680A2A0AD3F7680A3A02EB4202BE
:1005C00093409F438B6893401F43F76008E037696F
:1005D00002EB420293409F438B6893401F43376175
:1005E0000A68102A01D0112A20D1124B02689A42BF
:1005F00017D193681B0219D4936843F400039360E6
:100600000968102912D10C490C4A0968B1FBF2F1B2
:1006100001EB8101490000E0491E00910029FBD156
:1006200004E0816A41F020018162012480F82450B5
:100630002046F8BD002401401400002040420F0075
:100640002DE9F04104004FF000057FD0A06A00269C
:1006500028B9E66284F82460204600F081F820463C
:10066000FFF7B0FEA16AC90600D420B1A06A40F02D
:100670001000A0626AE0A16A21F4885141F00201F1
:10068000A162334923688B42E16904D1B1F5402F5F
:1006900001D14FF40021277B4FF4807C41EA4702CF
:1006A00061680A43A168614508D0012906D000218C
:1006B00094F814E0BEF1010F02D00AE06146F7E7BA
:1006C000C7B1A76A47F02007A762E76A47F00107AA
:1006D000E7625F6827F469470F435F6023689968A2
:1006E0001C4F394011439960A16861450BD0012925
:1006F00009D00CE0DFF860E0A7690EEB47370F4345
:1007000047F40061E5E7218A0D05A5F5801521680C
:10071000CB6A23F470032B43CB62216889680F4BAB
:100720001940914208D1E662A16A21F0020141F02C
:100730000101A162BDE8F081A06A20F0020040F052
:100740001000A062E06A40F00100E0620120F1E7E1
:10075000003C0140FDF7E1FF00E0FFFFFE0E1FFF40
:1007600000B585B0002100910191029103910068CC
:100770000E49884218D10E48816941F400718161A7
:10078000816901F400710491816941F00401816182
:100790008069694600F00400049002200090032064
:1007A0000190044800F0C4F805B000BD00240140E9
:1007B000001002400008014010B590F821100022FE
:1007C000022905D00421816380F82020012010BD7A
:1007D00001680B6823F00E030B6001680B6823F0BF
:1007E00001030B6090F84030C46B012101FA03F360
:1007F000636080F8211080F82020104610BD0000B2
:100800002DE9F05F90F821100024022903D0042183
:100810008163012485E001680A6822F00E020A6003
:1008200001680A6822F001020A603F4E3E4FB2158D
:10083000DFF8F4C0DFF8F090DFF8ECA0DFF8E8B004
:10084000DFF8E4E00168783F13011502ACF1640CB5
:10085000A9F15009AAF13C0AABF1280BAEF1140E34
:100860004FF48018B14227D9B9420ED0614512D059
:1008700049451DD0514518D0594518D0714501D171
:10088000424615E0294EB14201D1012210E0274E27
:100890001436B14201D110220AE0244E2836B1426A
:1008A00006D0224A3C32914201D11A4600E02A4643
:1008B0001E49091F0A602BE0B94213D0614517D0C9
:1008C000494522D051451DD059451DD0714501D112
:1008D00042461AE0B14202D14FF0807215E0134E49
:1008E000B14201D1012210E0104E1436B14201D1C3
:1008F00010220AE00D4E2836B14206D00B4A3C3297
:10090000914201D11A4600E02A46074980394A60DF
:10091000012180F82110002180F82010416B01B1E5
:1009200088472046BDE8F09F80000240080402404E
:100930002DE9F84FDFF8C891002409F1040A0AF103
:10094000040B23460F270BF1040ED1E00125A5402F
:1009500006EA0502AA4276D1DFF8A8C14E68A6EBE6
:100960000C0866452BD00DDC032E34D005DC36B3E5
:10097000012E19D0022E2FD11BE0112E16D0122ECF
:100980002AD119E0B8F5881F19D006DCB8F5803FE8
:1009900015D0B8F5801F1FD111E0B8F5001F0ED09B
:1009A000B8F5041F18D10AE0CB6815E0CB681B1D11
:1009B00012E0CB6808330FE0CB680C330CE08B6897
:1009C0002BB1012B4FF0080303D0456104E0042351
:1009D00002E0056100E00023FF2A01D8064601E09D
:1009E00000F104064FEA840501D9A5F12005D6F8E7
:1009F000008007FA05FC28EA0C0803FA05F548EA26
:100A00000508C6F800804D68ED0070D53E4DAE6912
:100A100046F00106AE61AD6924F0030605F001055C
:100A200000953A4D06EB050CDCF80850A607360F8A
:100A300007FA06F825EA0805DFF8D480404503D117
:100A40004FF0000825E052E0DFF8C880404502D1B1
:100A50004FF001081DE0DFF8C080404502D14FF0A3
:100A6000020816E0DFF8B480404502D14FF00308D9
:100A70000FE0DFF8AC80404502D14FF0040808E0F9
:100A8000DFF8A080404502D14FF0050801E04FF0AB
:100A9000060808FA06F848EA0508CCF808804D6808
:100AA000D9F80060ED034D4601D5164300E09643AA
:100AB0002E604D68DAF80060AD03554601D5164347
:100AC00000E096432E604D68DBF80060ED025D4665
:100AD00001D5164300E096432E604D68DEF80060B5
:100AE000AD02754601D5164300E096432E60641CA6
:100AF0000A681646E2407FF429AFBDE8F88F00008F
:100B000000040140000011100010024000000140EC
:100B100000080140000C0140001001400014014099
:100B200000180140001C01408068084000D00120EE
:100B30007047C26821EA02030A4043EA02410161A8
:100B400070470AB1016170470904FBE701488068FA
:100B500070470000080000200248816802781144B4
:100B60008160704708000020074810B5016841F017
:100B700010010160032000F079F8002000F006F871
:100B800000F024F8002010BD0020024070B50D4D8B
:100B900004464FF47A712878B1FBF0F00A490968ED
:100BA000B1FBF0F000F067FB48B9102C07D200222F
:100BB0002146501E00F03AF800206C6070BD012004
:100BC00070BD000008000020140000200E4808B589
:100BD000816941F001018161816901F001010091A8
:100BE000C16941F08051C161C06900F0805000903E
:100BF000052000F03BF80548416821F0E06141F034
:100C00000071416008BD000000100240000001407A
:100C1000002809DB00F01F020121914040098000FB
:100C200000F1E020C0F8001170470000F0B40E4B56
:100C30001B680C46C3F30223C3F10705042D00D93A
:100C40000425191D072901D2002300E0DB1E01261F
:100C500006FA05F1491E214099409E40761E164035
:100C60003143F0BC02F028B80CED00E0064900F07A
:100C7000070208684FF6FF03184040EA0220034AC3
:100C800010430860704700000CED00E00000FA051A
:100C90002DE9F84305460078354CC00754D0E0698B
:100CA0000026C00008D4E06940F08050E061E069AF
:100CB000012600F0805000902E480168C90512D42A
:100CC0000168804641F480710160FFF73FFF0746ED
:100CD00005E000BFFFF73AFFC01B642823D8D8F80F
:100CE0000000C005F6D5206A10F4407021D0A98814
:100CF00001F4407181421CD0206A1F49012220F476
:100D000040700A6000220A602062C00711D0FFF71D
:100D10001DFF074641F2883808E000BFFFF716FFC5
:100D2000C11B414502D90320BDE8F883206A800732
:100D3000F4D5206A696820F44070084320621EB12F
:100D4000E06920F08050E0612878800705D5606870
:100D5000A96820F44040084360602878C00605D5A3
:100D60006068696920F48000084360600020DBE768
:100D70000010024000700040400442422DE9F0475C
:100D80000F46050061D0434E306800F00700B842BE
:100D900009D2306820F0070038433060306800F036
:100DA0000700B84251D128683B4C810712D5400753
:100DB00003D5606840F4E06060602878000703D5E0
:100DC000606840F4605060606068A96820F0F000DE
:100DD000084360602878C00728D06868012810D0D0
:100DE0002168022810D0890700292EDA616821F0D5
:100DF000030101436160FFF7A9FE804641F2883993
:100E00000DE021688903EFE78901EDE7FFF79EFE1A
:100E1000A0EB0801494502D90320BDE8F0876068CE
:100E2000696800F00C00B0EB810FEFD1306800F082
:100E30000700B8420BD9306820F007003843306013
:100E4000306800F00700B84201D00120E5E72878BB
:100E5000400705D56068E96820F4E06008436060F9
:100E60002878000706D56068296920F4605040EAB8
:100E7000C100606000F038F86168084AC1F30311EE
:100E8000515CC8400649086006480068FFF77EFECE
:100E90000020C2E700200240001002403A3A000859
:100EA000140000200C00002004480549006849682F
:100EB000044AC1F30221515CC8407047140000206D
:100EC000001002404A3A0008044805490068496891
:100ED000044AC1F3C221515CC8407047140000208D
:100EE000001002404A3A000812A185B00FC98DE8EF
:100EF0000F0014A0144A006804905168134801F0D0
:100F00000C03042B10D0082B0ED1C1F38343C9036B
:100F10001DF803000AD5516804AAC1F34041515C91
:100F20000A4A5043B0FBF1F005B070470849484306
:100F3000FAE7000002030405060708090A0B0C0D76
:100F40000E0F1010010200000010024000127A0083
:100F500000093D002DE9F84F040070D02078C04D05
:100F6000C00749D06868C0F38100012807D06868CD
:100F7000C0F38100022809D16868C00306D528683B
:100F8000800339D560680028E7D035E06068B0F5A7
:100F9000803F0BD010B1B0F5A02F11D0286820F4FD
:100FA00080302860286820F4802002E0286840F41F
:100FB00080302860606890B1FFF7C8FD06460AE0FF
:100FC000286840F480202860F0E700BFFFF7BEFDEE
:100FD000801B642873D828688003F7D50CE0FFF7DE
:100FE000B5FD064605E000BFFFF7B0FD801B642895
:100FF000F0D828688003F7D420789A4E80074FF005
:1010000001094FF0000839D5686810F00C0F07D0BF
:101010006868C0F38100022809D16868C00306D45B
:101020002868800714D52069012808D110E02069BC
:10103000B0B1C6F80090FFF789FD074605E00AE168
:10104000FFF784FDC01B0228C4D828688007F7D5A5
:101050002868616920F0F80040EAC10028600DE0CE
:10106000C6F80080FFF772FD074604E0FFF76EFD4B
:10107000C01B022823D828688007F7D420780007EF
:101080002CD57948A169D9B1C0F80090FFF75EFD71
:10109000074604E0FFF75AFDC01B02280FD8686A14
:1010A0008007F7D571484FF4FA510068B0FBF1F0B2
:1010B000009000BF0098411E0091FAD20EE080E03F
:1010C000C0F80080FFF742FD074604E0FFF73EFD51
:1010D000C01B022875D8686A8007F7D420784007BB
:1010E00060D5E8690027C00008D4E86940F0805066
:1010F000E861E869012700F0805000905C480168D1
:10110000C90513D40168834641F480710160FFF77B
:101110001DFD824606E000BFFFF718FDA0EB0A00A8
:1011200064284ED8DBF80000C005F5D5E06801283A
:101130000AD008B1052813D0286A20F001002862DF
:10114000286A20F0040002E0286A40F001002862CA
:10115000E06841F2883B98B1FFF7F8FC82460BE06B
:10116000286A40F004002862EEE700BFFFF7EEFCBB
:10117000A0EB0A0159455AD8286A8007F6D50CE039
:10118000FFF7E4FC824605E0FFF7E0FCA0EB0A0174
:1011900059454CD8286A8007F6D41FB1E86920F079
:1011A0008050E861E06988B36968C1F38101022970
:1011B00044D00228C6F8608004D0FFF7C7FC04467C
:1011C00038E034E0FFF7C2FC074604E0FFF7BEFC5E
:1011D000C01B02282BD828688001F7D4206AB0F5FC
:1011E000803F05D16868A16820F40030084368603A
:1011F000D4E908010843696821F474110843686060
:10120000C6F86090FFF7A2FC044606E025E000BFA8
:10121000FFF79CFC001B022809D828688001F7D53D
:101220001BE000BFFFF792FC001B022802D903203D
:10123000BDE8F88F28688001F4D40EE00128F7D0CB
:101240006868226A00F48031914204D1616A00F436
:101250007010884201D00120EAE70020E8E7000092
:10126000001002400000424280044242140000206C
:1012700000700040704710B5401EB0F1807F01D370
:10128000012010BD4FF0E02460610F21601701F0D4
:1012900013FD0020A06107202061002010BD10B5C3
:1012A000FFF7E8FF10BD70477047000070B590F879
:1012B0003C20012A2CD0012480F83C40022280F8F6
:1012C0003D2003685A689D6822F070060A68324320
:1012D0005A60104B02689A420ED00F4B9A420BD0C4
:1012E000B2F1804F08D00D4B9A4205D00C4B9A4278
:1012F00002D00C4B9A4204D1496825F0800319436F
:10130000916080F83D40002180F83C10084670BD97
:10131000022070BD002C0140003401400004004058
:1013200000080040000C004010B5040003D094F801
:101330003D0010B107E0012010BD002084F83C0002
:10134000204600F01FF8022084F83D00211D20688F
:1013500001F026FA012084F8460084F83E0084F863
:101360003F0084F8400084F8410084F8420084F88B
:10137000430084F8440084F8450084F83D000020D0
:1013800010BD000008B5154A0168154891420ED1FC
:10139000C16941F01001C161C069012200F0100073
:1013A000009011463620FFF741FC362010E00D4A30
:1013B000914211D1C16941F02001C161C06900228F
:1013C00000F02000009001213720FFF72FFC37208C
:1013D000BDE80840FFF71CBC08BD0000001000403D
:1013E00000100240001400402DE9F0410D460400B9
:1013F00003D094F83D0018B108E00120BDE8F08169
:10140000002084F83C00204600F040F8022084F8D8
:101410003D002068816844F2070291438160211DEC
:10142000206801F0BDF9226890689169166A2B68FE
:10143000AF69034340F20330814341EA0721A868C2
:10144000EF6908434FF6FC418843E96840EA07200A
:10145000014328692F6A000140EA073008436968A0
:101460006D6926F0220646EA051529439360226835
:10147000906154F8460B0162012004F81F09E075E1
:101480002076E0762077A0750020B7E700B585B01C
:10149000002100910191029103911A4B02681A48B0
:1014A000C0219A4213D1C26942F00202C261C269EC
:1014B00002F002020492826942F0040282618069B1
:1014C000009100F0040004906946104815E0104BAC
:1014D0009A4214D1826942F400528261826902F414
:1014E00000520492826942F0100282618069009188
:1014F00000F01000049069460648FFF719FA05B09D
:1015000000BD00000004004000100240000801403F
:101510000034014000100140704770B50446006877
:1015200001694FF00005C943890715D4C168C94353
:10153000890711D4E91E01610120207720688069A4
:101540008007204602D0FFF7E7FF04E000F004F92F
:10155000204600F0E5F9257720680169C94349076D
:1015600017D4C168C943490713D46FF0040101615E
:10157000022020772068806910F4407F204602D046
:10158000FFF7CAFF04E000F0E7F8204600F0C8F9D2
:10159000257720680169C943090716D4C168C94382
:1015A000090712D46FF00801016104202077206838
:1015B000C0698007204602D0FFF7AEFF04E000F0CC
:1015C000CBF8204600F0ACF9257720680169C943C3
:1015D000C90617D4C168C943C90613D46FF01001F6
:1015E0000161082020772068C06910F4407F204600
:1015F00002D0FFF791FF04E000F0AEF8204600F0C3
:101600008FF9257720680169C943C90708D1C168E6
:10161000C943C90704D1891E0161204600F0C0F901
:1016200020680169C943090609D4C168C94309068C
:1016300005D46FF0800101612046FFF734FE206879
:101640000169C943490609D4C168C943490605D49B
:101650006FF040010161204600F07CFA20680169CA
:10166000C94389060BD4C168C943890607D46FF002
:10167000200101612046BDE87040FFF715BE70BD36
:1016800010B586B000210091019102910391036889
:101690001A4902221A48B3F1804F14D0194CA342C0
:1016A0000FD18B6943F008038B618969039201F0C4
:1016B000080104914FF44071CDE900126946FFF72B
:1016C00037F906B010BD8B6943F008038B61896957
:1016D000039201F0080104914FF44061CDE900123A
:1016E0006946FFF725F90848416821F4407141F047
:1016F000E06141F400714160E3E700000010024046
:10170000000C0140000800400000014010B50446F4
:1017100090F83C0001280AD0012084F83C0042B136
:10172000042A0AD0082A0CD00C2A11D10DE002207C
:1017300010BD206801F088F80AE0206801F0B4F8D4
:1017400006E0206801F0E6F802E0206801F016F9F2
:10175000002084F83C0010BD704710B5040003D091
:1017600094F83D0010B107E0012010BD002084F87E
:101770003C00204600F01EF8022084F83D00211DA8
:10178000206801F00DF8012084F8460084F83E003E
:1017900084F83F0084F8400084F8410084F8420057
:1017A00084F8430084F8440084F8450084F83D0040
:1017B000002010BD08B50068B0F1804F08D1054881
:1017C000C16941F00101C161C06900F001000090F0
:1017D00008BD00000010024070B5044690F83C00BF
:1017E0000D4601280AD0012084F83C0042B1042AA9
:1017F00018D0082A2AD00C2A4DD139E0022070BD19
:10180000206801F021F82068816941F008018161B8
:101810002068816921F004018161206881692A6959
:10182000114311E0206801F03FF82068816941F41C
:10183000006181612068816921F480618161206893
:1018400081692A6941EA0221816124E0206801F06E
:1018500061F82068C16941F00801C1612068C1696F
:1018600021F00401C1612068C1692A69114311E0B6
:10187000206801F083F82068C16941F40061C1610A
:101880002068C16921F48061C1612068C1692A6949
:1018900041EA0221C161002084F83C0070BD10B50E
:1018A000040003D094F83D0010B107E0012010BD02
:1018B000002084F83C00204600F01EF8022084F846
:1018C0003D00211D206800F06BFF012084F84600D8
:1018D00084F83E0084F83F0084F8400084F841001A
:1018E00084F8420084F8430084F8440084F84500FA
:1018F00084F83D00002010BD08B500680649884204
:1019000008D10648C16941F00401C161C06900F015
:101910000400009008BD00000008004000100240D4
:101920007047000030B504460D460068002200F004
:101930007DFF194B41F2111120688A10984202D0A4
:10194000164B984209D1036A0B4206D1036A13422F
:1019500003D1436C23F4004343642068036A0B42C1
:1019600006D1016A114203D1016821F00101016031
:1019700001203DB1042D08D0082D09D084F8410084
:10198000002030BD84F83E00FAE784F83F00F7E716
:1019900084F84000F4E70000002C014000340140CE
:1019A0002DE9F05F5E49002588427DD1FEF772FD8A
:1019B0005C4E4FF41A68316891FBF8F001F0DFFCDF
:1019C000DFF86491DFF864A14A46534601F0EEFC6B
:1019D00001F01CFB564C574F83462063396891FB3E
:1019E000F8F001F0CCFC4A46534601F0DFFC01F070
:1019F0000DFB6063617950484FF00108012952D115
:101A000081460146A06901F0CFFD594601F06EFF05
:101A100016D84946A06901F09BFF216B01F066FED4
:101A20000ED8607A401CC0B2607264280AD3657117
:101A300084F80880657201F03FFA01F007FA01E0CE
:101A400025726572E078012802D0207901282AD118
:101A500000F024FB6079012801D060691AE0374862
:101A6000006810F0FF4F07D030683968084400EB79
:101A7000D07040103060386000F0DAFA0646E0625C
:101A80003146E06901F090FD20613146606A01F065
:101A90005FFF606101F0F6FD0646206901F0F2FD8E
:101AA000314600F06EFD00E026E0A079012834D137
:101AB000E078012802D0207901282ED100F0EEFA3A
:101AC000E0692061606A6061A07A401CC0B2A072C7
:101AD000642805D3A571A5722561656184F8078026
:101AE000606901F0CFFD0546206901F0CBFD294674
:101AF000BDE8F05F00F045BD114988420DD12021BD
:101B00001048FFF716F810480560104800780128C3
:101B100003D10F490878401C0870BDE8F09F000011
:101B2000F001002044000020295C8FC2F568344099
:101B300068000020480000200000B041280000207C
:101B4000A8010020000C01405C000020670000207C
:101B5000660000207047704770470000F8B50268C3
:101B600004461068D168536910F00F0F4FF000055C
:101B700053D003F0010601F4907737435FD0C207DA
:101B800005D0CA0503D5226C42F001022264420747
:101B900005D5DA0703D0226C42F0020222648207E4
:101BA00005D5DA0703D0226C42F004022264020752
:101BB00007D501F02002324303D0226C42F0080224
:101BC0002264226C002A34D0800604D5880602D50F
:101BD000204600F01BFF20684069216CC0F3801094
:101BE000090700D430B3204600F0F8FE20684169B0
:101BF00049061BD5416921F040014161A06BA8B1A4
:101C000058494163A06BFEF7FBFD002811D0A06B83
:101C1000416B01B0BDE8F040084783060FD58B0645
:101C20000DD52046BDE8F84000F0F0BE2046FFF795
:101C300093FFF8BD2046FFF78FFF2564F8BD266BA4
:101C40002023012E52D1C60650D5CE064ED510689F
:101C500050680090506940062AD5A16B086840681A
:101C60000004000CEAD0A68D8642E7D9E085886999
:101C7000202818D0D06820F48070D0602068416996
:101C800021F0010141612068416921F04001416179
:101C900084F83E3025632068C16821F01001C160DE
:101CA000A06BFEF789FDA08DE18D401A81B219E08D
:101CB000A08DE18D401A81B2E08D0028BED00029B0
:101CC000BCD0D06820F49070D0602068426922F0C7
:101CD0000102426184F83E3025632068C26822F028
:101CE0001002C2602046FFF736FFF8BD05062BD56F
:101CF0000D0629D594F83D002128F6D1A068B0F54D
:101D0000805F01D12069B0B1206A411C2162216845
:101D100000784860E08C401E0004000CE084E4D1B0
:101D20002068C16821F08001C1602068C16841F06D
:101D30004001C160F8BD206A0088C0F3080050600F
:101D4000206A801C2062E5E74006F3D54806F1D5FD
:101D5000D168204621F04001D16084F83D3000F088
:101D600007F9F8BDCD29000870B5040004D094F837
:101D70003D00002510B106E0012070BD84F83C5004
:101D8000204600F023F8242084F83D002068C16834
:101D900021F40051C160204600F094FE20680169E2
:101DA00021F4904101612068416921F02A014161DB
:101DB0002068C16841F40051C1602564202084F886
:101DC0003D0084F83E00002070BD0000F0B585B0F5
:101DD000002400940194029403940368464F022067
:101DE00046490322464D4602BB4225D18B6943F446
:101DF00080438B618B6903F4804304938B6943F0C8
:101E000004038B618969039201F0040104910102CA
:101E1000CDE9001069462846FEF78AFDCDE9006449
:101E2000694628460294FEF783FD022211462520CA
:101E3000FEF7FCFE252028E0324FBB4229D1CB69BA
:101E400043F40033CB61CB6903F4003304938B6913
:101E500043F004038B618969039201F0040104914A
:101E60000421CDE9001069462846FEF761FD0820EF
:101E7000CDE90004694628460294FEF759FD012287
:101E800002212620FEF7D2FE2620FEF7C1FE05B075
:101E9000F0BD1D4DAB42FAD1CB6943F48023CB6139
:101EA000CB6903F4802304938B6943F010038B61A7
:101EB0008969164D01F01001CDE90321CDE90060DB
:101EC00069462846FEF734FDE814CDE9000469466A
:101ED00028460294FEF72CFD0D48416821F03001A0
:101EE00041F0E06141F01001416000220221272011
:101EF000FEF79CFE2720C8E7003801400010024092
:101F0000000801400044004000480040001001402B
:101F10000000014090F83E30202B0ED159B152B153
:101F200090F83C30012B08D0012380F83C3000238E
:101F3000036300F023BE01207047022070470000B9
:101F400010B500680749884203D10748C07A00F0FD
:101F50005FFB05490122BDE810400B310348FFF744
:101F6000D9BF0000004800404C00002008030020BA
:101F70007047FEE710B50B4C012240212046FEF7CA
:101F8000E0FD012280212046FEF7DBFD00228021BA
:101F90002046FEF7D6FD20460022BDE81040402135
:101FA000FEF7CFBD000C014010B5094C01224021C5
:101FB0002046FEF7C6FD002280212046FEF7C1FD27
:101FC00020460122BDE810408021FEF7BABD000086
:101FD000000C014010B5064C012240212046FEF7BE
:101FE000B0FD20460022BDE810404021FEF7A9BD0B
:101FF000000C014010B50C4C08212046FEF794FD62
:1020000058B110212046FEF78FFD40B1012107484D
:10201000FEF78AFD28B1002010BD012010BD02206E
:1020200010BD032010BD0000001801400008014051
:1020300010B5FEF74DFA14484178012903D1827892
:102040000AB9C27822B1827851EA020302D004E0D0
:102050000E4915E0C378012B03D0012903D041B10B
:102060000FE00B490CE0012A0BD1C17849B90949AD
:1020700006E0012A05D1C17811B1012901D1064933
:102080000161006910BD000018000020000096C327
:1020900000009643000048C30000484310B5124CAE
:1020A000E078012802D0207901281BD12078401C3B
:1020B000C0B22070022807D30020207000F026FE56
:1020C000206200F009FEA0620848216A00F014FFB7
:1020D0000748A16A00F010FF00F036FFE06100F051
:1020E0000DFF606210BD00006800002008040020A1
:1020F00028040020324810B50078324C012805D061
:10210000022834D003282BD1002028E000F05CFA0C
:102110002078401CC0B22070792826D011DC2228FB
:1021200021D007DC042819D00D281AD0182817D17F
:10213000142014E06F2818D0702816D071280FD101
:1021400013E0A0F17A010D290AD2DFE801F00E0EAA
:102150000E0909090909090E0E0E0E000120207052
:1021600010BD0A20FBE71E20F9E7401EF7E700F04C
:102170002BFA2078152821D013DC0A281ED009DC80
:10218000012803D0022801D00328E9D100EB800008
:102190004000E4E70B2811D00C280FD01428DFD121
:1021A0000CE0A0F116010C29DAD2DFE801F00707F4
:1021B00006060606060607070707D1E76430CEE7DE
:1021C00034000020300000203EB500241048009468
:1021D000019402940D498460016004730475012523
:1021E00005614FF460214460C161FEF729FA08B12E
:1021F000FEF74DF90095CDE9015469460448FEF714
:10220000A1F9002801D0FEF742F93EBD00240140AB
:10221000A000002000B585B000200190029003903E
:102220001448816941F020018161816901F0200138
:102230000491816941F010018161816901F010010F
:102240000491816941F004018161816901F0040117
:102250000491816941F0080181618069694600F05B
:10226000080004903E2000900348FEF761FB05B093
:1022700000BD0000001002400010014010B58AB0FF
:10228000002407941C2168460894FEF704F81948B6
:102290004FF08041C0E900144FF6FF71C0E90241E0
:1022A00004618461FFF759FA08B1FEF7F0F807946A
:1022B00007A910480894FEF7F9FF08B1FEF7E7F800
:1022C000009401940294082269460A480494FFF796
:1022D0001DFA08B1FEF7DBF80C2269460548FFF746
:1022E00015FA08B1FEF7D3F80248FFF7C9F90AB0AA
:1022F00010BD0000D000002010B58CB0242168462D
:10230000FDF7C9FF00241548099413490A94C0E950
:1023100000144FF6FF71C0E902410461846101209D
:10232000CDE90004CDE902040494CDE90540079409
:1023300069460A480894FFF757F808B1FEF7A7F86E
:10234000099409A905480A94FEF7B0FF002801D0B6
:10235000FEF79DF80CB010BD0004004018010020ED
:1023600010B58AB0002407941C2168460894FDF734
:1023700092FF1A481849C0E900144FF6FF71C0E9EE
:10238000024104618461FFF78AFA08B1FEF77FF821
:10239000079407A911480894FEF788FF08B1FEF7D3
:1023A00076F86020CDE900040294082269460B48C3
:1023B0000494FFF711FA08B1FEF769F80C22694698
:1023C0000648FFF709FA08B1FEF761F80348FFF77E
:1023D00057F90AB010BD000000080040600100205D
:1023E0001CB500240F4800940D490194016041F68A
:1023F0001F41C0E9011442F20F718461C160FEF710
:1024000093FF08B1FEF743F800946946054801942C
:10241000FEF74CFF002801D0FEF739F81CBD000084
:1024200000100040A80100201CB500240E480094B4
:102430000C49019401604721C0E9011444F61F6171
:102440008461C160FEF770FF08B1FEF720F80094C8
:10245000694605480194FEF729FF002801D0FEF7E0
:1024600016F81CBD00140040F001002010B58CB01F
:1024700024216846FDF70FFF0024164809941449EB
:102480000A94C0E900144FF6FF71C0E902410461EB
:10249000446184610120CDE90004CDE90204049483
:1024A000CDE90540079469460A480894FEF79CFF69
:1024B00008B1FDF7ECFF099409A906480A94FEF754
:1024C000F5FE002801D0FDF7E2FF0CB010BD0000C2
:1024D00000340140380200200C4810B50A49016060
:1024E0004FF4E1314160002181600C22C160C0E9FC
:1024F00004128161C161FFF737FC002803D0BDE8F9
:102500001040FDF7C4BF10BD00380140800200201C
:102510000C4810B50A4901604FF4E13141600021D7
:1025200081600C22C160C0E904128161C161FFF7C2
:102530001BFC002803D0BDE81040FDF7A8BF10BD6C
:1025400000440040C40200200C4810B50A49016054
:102550004FF4E1314160002181600C22C160C0E98B
:1025600004128161C161FFF7FFFB002803D0BDE8C1
:102570001040FDF78CBF10BD00480040080300204C
:10258000FEE770B50D46040001D4002001E044428E
:10259000012000F07BFC40F2CA36B44200DD344634
:1025A000002D01DB002001E06D42012000F038FC2D
:1025B000B54200DD3546A0B200F090FCA8B2BDE8FF
:1025C000704000F055BCFEE770B50024002104F116
:1025D000B00000F016F80021084600F012F80021C3
:1025E000102000F00EF800250121002000F009F86D
:1025F0006D1CEDB2802DF7D3641CE4B2082CE5D33A
:1026000070BDC0B209B100F040BB00F027BB0000B4
:10261000F0B52B4901260A460F7AD479294B621C62
:10262000D5B2002237B1012F08D0022F19D0032FC5
:1026300030D005E02C2803D10E720EE012280AD00B
:102640000A72CA715FF0000023F81020401CC0B26B
:102650000A28F9D3F0BD02220A7223F81400CD71C2
:10266000F0BD23F81400CD710A2D01D25B28F7D1FB
:102670000320087203EB45004E7210F80A2D0A7011
:1026800082784A7002798A708079C8700869401C23
:102690000861F0BD03EB440030F8020C5B280AD05F
:1026A0000A72CA715FF0000023F81020401CC0B20B
:1026B0000A28F9D3F0BD4A72CA710A72F0BD00004F
:1026C0004C000020E4030020704770470D4910B50E
:1026D00008780D4A401CC0B2087013885B1C138038
:1026E000052802D30020087005E0012803D1FDF77A
:1026F00095FEFFF7FFFCFEF72FFABDE81040FEF74E
:10270000CEBD0000020000200000002030B595B0D2
:1027100028216846FDF7BFFD14210AA8FDF7BBFD7F
:1027200018210FA8FDF7B7FD01210804CDE900101D
:102730000025029502240491CDE907404FF4E010F2
:1027400009906846FEF706FC08B172B6FEE70AA9D2
:102750000F2081E831004FF48060CDE90D050221A2
:102760000AA8FEF70BFB08B172B6FEE74FF4004073
:1027700011900F940FA8FEF78BFA002801D072B6C3
:10278000FEE715B030BD70470148FEF7C6BE000039
:10279000A80100200148FEF7C0BE0000F0010020A3
:1027A000F0B502681C4B1D4D1D4E1E4F1E4C4FF0C8
:1027B000804C984209D0A04207D0604505D0A8427D
:1027C00003D0B04201D0B84204D122F0700E4A6862
:1027D00042EA0E02984209D0A04207D0604505D0D7
:1027E000A84203D0B04201D0B84203D122F44075D0
:1027F000CA682A434D6922F080022A4302608A682F
:10280000C2620A688262984201D0A04201D109697D
:10281000016301214161F0BD002C01400004004032
:1028200000080040000C00400034014010B501F0E9
:102830001F030121046A99408C430462016A9A4093
:102840001143016210BD0000F0B5026A22F00102DE
:102850000262036A42688469124E24F073050C68B0
:102860002C4323F002058B682B430D4DA84201D069
:10287000B04205D123F00807CB683B4323F00403A3
:10288000A84201D0B04205D14D6922F440721543EF
:102890008A692A4342608461496841630362F0BDEA
:1028A000002C014000340140F0B5026A22F0100211
:1028B0000262026A436884690D6824F4E64444EACB
:1028C00005248D6822F0200242EA05120F4D104EB9
:1028D000A84201D0B04206D1CF6822F0800242EA7D
:1028E000071222F04002A84201D0B04207D14D6940
:1028F00023F4406343EA85038D6943EA850343601B
:102900008461496881630262F0BD0000002C0140CF
:1029100000340140F0B5026A22F480720262026A59
:102920004368C46922F4007224F073050C68124EE7
:102930002C438D6842EA05220E4DA84201D0B042D8
:1029400006D1CF6822F4006242EA072222F48062B4
:10295000A84201D0B04207D14D6923F4405343EA65
:1029600005138D6943EA05134360C4614968C16377
:102970000262F0BD002C01400034014030B5026A13
:1029800022F480520262046A4268C3690D6823F42B
:10299000E64343EA05238D6824F4005444EA0534F1
:1029A000084DA84202D0084DA84204D14D6922F436
:1029B000804242EA85124260C36149680164046250
:1029C00030BD0000002C01400034014010B5406AC9
:1029D0000021C185C184FFF7BFF810BD0168CA6836
:1029E00022F49072CA6001684A6922F001024A61C9
:1029F000016B012904D10168CA6822F01002CA6083
:102A0000202180F83E1000210163704708B590F83E
:102A10003E10222901D0022008BD82684FF4805365
:102A20009A4201D1016921B1816A9A421BD04AB10F
:102A30000AE00268816A5268C2F308020A80816A69
:102A4000891C08E0026972B10268526802F07F02D4
:102A50000A70816A491C8162C18D491E0904090CF2
:102A6000C18503D019E002685268F1E70168CA68BD
:102A700022F02002CA600168CA6822F48072CA602B
:102A800001684A6922F001024A61202180F83E1063
:102A9000016B012903D0FFF753FA002008BD002184
:102AA00001630168CA6822F01002CA6001680A68FE
:102AB000D20602D50A6849680091818DFFF74BF86C
:102AC000EBE7000070B5044600680169E26821F494
:102AD0004051114301612169A068084361690843BD
:102AE0002168CA6841F20C639A430243CA602068B5
:102AF0004169A26921F44071114341611E49206876
:102B0000884202D1FEF7E0F901E0FEF7CDF900EBD3
:102B1000C00101EB0012606864218000B2FBF0F399
:102B2000B3FBF1F36FF018067343B2FBF0F5B2FBA1
:102B3000F0F605EB8305322303EB0515B5FBF1F544
:102B4000B6FBF1F605F0F00505EB0615B2FBF0F665
:102B5000B2FBF0F0B0FBF1F06FF01802504306EB5F
:102B6000800003EB0010B0FBF1F0216800F00F00D3
:102B70002844886070BD0000003801408162828571
:102B8000C28500210164222280F83E2080F83C109A
:102B90000168CA6842F48072CA6001684A6942F0FA
:102BA00001024A610068C16841F02001C160002053
:102BB000704700000B4810B50168086800F0080273
:102BC00009488270496841700121401C00F0FCF8FE
:102BD00020210648FDF7ADFFBDE810400148FEF793
:102BE000BDBF00008002002002000020000C014058
:102BF0000148FEF7B3BF0000C40200200148FEF701
:102C0000ADBF000008030020FEE7000070B5124EC3
:102C10000446002240213046FDF793FF5FF0000597
:102C200004F08000802815D0002280213046FDF776
:102C300088FF6006040E012240213046FDF781FF27
:102C4000002240213046FDF77CFF6D1CEDB2082DBF
:102C5000E6D370BD0122E8E7000C014010B5044640
:102C6000FFF788F97820FFF7D1FFFFF7B3F90020CD
:102C7000FFF7CCFFFFF7AEF92046FFF7C7FFFFF7DE
:102C8000A9F9BDE81040FFF78FB910B50446FFF76A
:102C900071F97820FFF7BAFFFFF79CF94020FFF7A2
:102CA000B5FFFFF797F92046FFF7B0FFFFF792F95E
:102CB000BDE81040FFF778B90907090E002804DBCA
:102CC00000F1E02080F80014704700F00F0000F1E0
:102CD000E02080F8141D7047084810B5006800F027
:102CE000EDFC0146064800F02BF80649884202DC5C
:102CF0000549884200D9084610BD00004800002060
:102D0000680400200000DC420000DCC2084810B566
:102D1000006800F0D3FC0146064800F011F80649AF
:102D2000884202DC0549884200D9084610BD0000EF
:102D300044000020480400200000DC420000DCC207
:102D40002DE9F0410446006800F002FE0546A0604F
:102D50002946E06900F028FCE06107462846E16862
:102D600000F0F6FDA16900F0F5FC06463946606901
:102D700000F0F0FC07462946206900F0EBFC3946DC
:102D800000F012FC314600F00FFCE5606060BDE829
:102D9000F081FDF7E9FEFFF7B9FCFFF73BFAFFF71B
:102DA00013FAFFF7A9FAFFF7DBFAFFF719FBFFF7B2
:102DB000AFFBFFF7C9FBFFF737FBFFF757FBFFF749
:102DC0005DFAFFF789FBFEE72DE9F041DFF84C8063
:102DD000054640460C46B8F80610C38800680A1934
:102DE000D8F800701844802A0AD9C1F180018EB247
:102DF00032462946FDF70AFAA21BA919384601E016
:102E000022462946FDF702FA98F80610214401F0FF
:102E10007F01A8F80610BDE8F081000058030020EB
:102E2000084910B58870074A07490024D3890A6801
:102E300018B114640868C36310BD13640868C463E0
:102E400010BD000068000020D0000020064910B529
:102E5000002008710C210548FEF764FDBDE8104014
:102E600008210248FEF75EBD68000020D000002067
:102E70000449C8818A78044909680AB1C86370475F
:102E80000864704768000020D0000020084910B591
:102E90004870074A0749002493890A6818B1D46327
:102EA0000868036410BDD3630868046410BD0000A3
:102EB0006800002060010020064910B50020C8709D
:102EC00008210548FEF72EFDBDE810400C21024800
:102ED000FEF728BD680000206001002004498881B9
:102EE0004A78044909680AB108647047C8637047A2
:102EF0006800002060010020016070470D4810B597
:102F0000B0F9000000F03BFA00220B4B00F04EFA43
:102F100000220A4B00F04AFA0022094B00F0A8F800
:102F200000F0FEF900F0CAFB0146BDE8104005487C
:102F300000F030B84200002000408F4000004E40BA
:102F40000010E840280400200D4810B5B0F900003A
:102F500000F015FA00220B4B00F028FA00220A4B71
:102F600000F024FA0022094B00F082F800F0D8F9B2
:102F700000F0A4FB0146BDE81040054800F00AB887
:102F80004000002000408F4000004E400010E8400C
:102F9000080400202DE9F0410446006800F0D8FC48
:102FA000A060B0F17C5F04DAB0F13F4F01D20020A5
:102FB000A06001460D46E06900F0F6FA1149E061B3
:102FC000884202DA1049884200D9E1612846E16866
:102FD00000F0BEFCA16900F0BDFB0646E169606936
:102FE00000F0B8FB07462946206900F0B3FB3946DC
:102FF00000F0DAFA314600F0D7FAE5606060BDE82B
:10300000F081000000007A4400007AC421F0004200
:10301000A2F16052B2F5801F01F0004328BFD2F147
:103020007F6C0BD95FEA001C43EAC20242EB50708E
:1030300018BF704728BF20F001007047B2F5801F0D
:10304000BCBF184670474FEA410C1CF5001F02D266
:10305000084600F046BC70B500F052FA0000008946
:10306000FFF7F6BF4FF00040A0F58000704700006A
:103070002DE9C04130B4DFF8A0C23CEA111418BFFA
:103080003CEA131400F0EC8081EA03051CEA1114F9
:1030900044EAD57418BF1CEA131500F0C780A4EBEE
:1030A00005044FF0004545EAC12145EAC32341EA42
:1030B000505143EA525304F17F74994204F50034AD
:1030C0004FEAC0204FEAC22208BF904200F09C8025
:1030D0004FEA13650FF24016765D4FEA134506FB83
:1030E00005F7C7F1807706FB07F74FEAD737A7FB4D
:1030F00003687642C8F58038A7FB06CE38BFA8F132
:10310000010807FB08E64FF0000EA6FB028CE6FB69
:1031100003CEDCF1000CCEF1004E38BFAEF1010E53
:10312000A6FB0C584FF000074FF00005E6FB0E879A
:10313000A1FB08C6A0FB07CE16EB0E0645F1000565
:10314000E1FB076515F1E04E7EBFA4F580345FEA30
:1031500046066D4116F1800745F100054FEA172735
:103160004FEA066647EA0567A6F1DE46B6F1805FDC
:103170004FEA15251FD9384624F0010C05EBC47120
:10318000BCF1FE6F01EB0C1102D8F0BCBDE8008170
:1031900024425CBF01F5801E9EEAC47F02D4F0BCCD
:1031A000BDE80081244238D4F0BCA1F1C041BDE8A3
:1031B000004100F0F3B94FEAD22242EA43524FEA0B
:1031C000D323A7FB02864FEAD02040EA415007FBF9
:1031D00003661EEA0E0F4FEAD12105FB026658BFB7
:1031E000A6EB0056B6EB00564FEA520E4EEAC37EEF
:1031F00018EB0E0E56EB530EBDD518EB02085E41D0
:103200007F1C55F10005B6E74FF480154FF000071D
:103210004FF000064FF00008ADE7F0BC4FF00000A3
:1032200001F1C04101F00041BDE8008111EA0C1F2D
:103230000CEA131500D00CE013EA0C1F00F02580F7
:103240004FF00000F0BC81EA030101F00041BDE84D
:103250000081F0BCBDE8004181EA030100F09EB9A5
:10326000F0BCBDE8004170B500F04AF9097EFC3EB3
:1032700000F007B881EA03014FF0000001F00041BF
:10328000704781EA030100F089B9F0BCBDE8004154
:103290004FF0000021497047FFFDFBF9F7F5F4F20C
:1032A000F0EEEDEBE9E8E6E4E3E1E0DEDDDBDAD8E1
:1032B000D7D5D4D3D1D0CFCDCCCBCAC8C7C6C5C43F
:1032C000C2C1C0BFBEBDBCBBBAB9B8B7B6B5B4B356
:1032D000B2B1B0AFAEADACABAAA9A8A8A7A6A5A441
:1032E000A3A3A2A1A09F9F9E9D9C9C9B9A99999805
:1032F0009797969595949393929191908F8F8E8EA8
:103300008D8C8C8B8B8A8989888887878685858434
:1033100084838382828181800000FF070000F87F20
:103320004FEA41034FEA5353A3F58063D3F11E03E1
:10333000C8BFD3F1210C0CDD4FF0004242EAC1229C
:1033400042EA505232FA03FC8CEAE17CACEBE170C9
:103350007047102BC4BF0020704703F5787CBCF188
:10336000FF3F04D06FF0004282EA2100704770B541
:1033700000F0C6F84992248000207047F2E710F070
:10338000004248BF4042B0FA80F310FA03F10AD07D
:10339000C3F11D0303F580634FEA415002EB035272
:1033A00002EBD12170474FF000007047DFF848C1B1
:1033B00070B51CEA111E1EBF1CEA13159EEA0C0F05
:1033C00095EA0C0F00F06F8081EA030423EA4C13A6
:1033D0004EEAD47E21EA4C1141F4801143F480136B
:1033E000AE44A1FB024CA0FB0365AEF17F7E361913
:1033F00055EB0C05A1FB034C4CF10003A0FB021C98
:1034000016EB0C06654153F10003094218BF46F064
:10341000010613F4007F0BD14FEA03314FEA053068
:10342000340341EA155140EA16506FF003020AE0F6
:103430004FEAC3214FEAC520F40241EA555140EA60
:1034400056506FF0020202EB2E4201EB025585EA64
:10345000CE710AD05FEA440C18BF24F0004450F14A
:10346000000041F1000120EAD47040F2FE7C624588
:1034700000D270BDA84214BF4FF080444FF04044CA
:10348000002E08BF0024BEF1806FA8BFA1F1C0418B
:10349000BDE8704080F282804FF0000001F1C04131
:1034A00001F0004170479EEA0C0F0CEA131518BF9B
:1034B00095EA0C0F06D04FF0000081EA030E0EF0E3
:1034C000004170BD00F01CF88900013E00F007B813
:1034D00000F009B84FEA430C5FEA5C5C08D081EA6F
:1034E000030100F05BB84FEA410C5FEA5C5CF6D187
:1034F0004FF00000014970470000FF070000F87F0F
:103500000EF1020E2EF0030E5EF8046B364205D467
:10351000012A43EB030515F5001F12D8012841EBE2
:10352000010C1CF5001F0CD80ED14FEAD17C15F50B
:10353000001F0CEB4C0C0CF1020C08BF4CEBD37CC5
:1035400004E04FF0080C01E04FEAD37C0CEB4C0593
:1035500026FA05F606F00706B6F1040C06D20EEBC5
:10356000860CBDE870404CF0010C6047DFE80CF0C1
:10357000090B02024FF000414FF00000A1F50021BD
:1035800070BD19461046012851EB010418BFD4F54F
:10359000001484BF002001F0004170BD0808A0F5B0
:1035A00000114FEA3101704790EA010F48BF81F0E6
:1035B000004100F1D481421A3CBF801A89184FEAB9
:1035C000D0524FF07F4C1CEA410FA2EBD15318BFF1
:1035D0009CEA026F00F03B804FF0004C4CEA002068
:1035E0004CEA012121FA03FC10EB0C0C1ED202F173
:1035F000FF325FEA1C2040EBC25038BF70471CF01E
:103600007F0F4FEA400C18BFBCF17F4F38BF7047A7
:10361000C3F12003994008BF20F00100BCF17F4FA7
:1036200038BF7047A0F1C04000F05BB94FEA3C00E2
:10363000000A40EBC25028BF1CF0FF0F4FEA400CBD
:10364000E6D018BFBCF17F4F38BF7047EAE79CEA6D
:10365000026F05D010EA5C0F08BF00F00040704711
:1036600010B500F0F8F800BF64FBBE3E401058BF34
:10367000C0F14040491058BFC1F140418142EFF3D1
:103680000080704741000B0ED3F19E0208D950F420
:1036900000034FEA032323FA02F048BF4042704779
:1036A00010B500F0D8F800BF499224800020704780
:1036B0006FF0004282EA20007047000010F00041E5
:1036C00048BF4042B0FA80F310FA03F2C3F19D0301
:1036D0000BD051EAC35101EB1220530638BF70479B
:1036E00000F1010008BF20F00100704750EA010C12
:1036F00000F113801CF5000F58BFBCF5000F01D47A
:103700008842704707D710F5000F58BF11F5000F1A
:1037100015D488427047894270471CF5000F04D5C4
:10372000BCF5000FF7D5814270474FF0807C1CEB51
:10373000400F38BF1CEB410F01D28142704710B5DA
:1037400000F089F8922449004FF000504FF080516A
:10375000FFF78CBF4FF47F0C1CEAD0121EBF1CEA8F
:10376000D11392EA0C0F93EA0C0F00F0478090EA15
:10377000010F48BF42F480724FF0004C4CEA002029
:103780004CEA012102EB0302A0FB0113A2F50002A7
:10379000002918BF43F001035B0028BF4FEA330341
:1037A00042EB22425FEA132C4CEBC2502EBFBCEB23
:1037B000436FB2F57C0F70474FEA036CBCF1004FCA
:1037C00008BF20F00100B2F57C0F38BF70470BD561
:1037D00082F0FF0212F5803FC8BF704700F1C04081
:1037E000D8BF00F00040704700F5000C5FEA4C0CB9
:1037F00048BF7047B0F1C04000F073B890EA010FC5
:103800000CEAD11348BF42F48072624538BF634569
:1038100004D280EA010000F00040704710B500F0CB
:103820001AF800BF8900013E00F007B800F009B89F
:103830005FEA410C5FEA1C6C08D080EA010000F0EE
:1038400050B85FEA400C5FEA1C6CF6D14FF00040C4
:10385000A0F5800070470EF1020E2EF0030E5EF808
:10386000044B244204D44FEA4102B2F17F4F11D8F5
:103870004FEA4003B3F17F4F0CD80ED14FEAD07C12
:10388000B2F17F4F0CEB4C0C0CF1020C08BF4CEB6F
:10389000D17C04E04FF0080C01E04FEAD17C0CEB46
:1038A0004C0324FA03F404F00704B4F1040C06D228
:1038B0000EEB840CBDE810404CF0010C6047DFE8D3
:1038C0000CF0070802024FF00040A0F5800010BD88
:1038D0000846420018BFD2F1807288BF00F0004055
:1038E00010BDFF2141EAD050C005704751EA000CDD
:1038F00000F113801CF5000F58BFBCF5000F01D478
:103900008142704707D711F5000F58BF10F5000F1F
:1039100015D481427047894270471CF5000F04D5C9
:10392000BCF5000FF7D5884270474FF0807C1CEB48
:10393000410F38BF1CEB400F01D28842704780EA2C
:10394000010081EA000180EA0100FFF7F8BE0000F3
:1039500090EA010F48BF81F000413FF52CAE421ABA
:1039600004D882F00042A0EB020011444FEAD0528A
:103970004FF07F4C1CEA410FA2EBD15318BF9CEAD9
:10398000026F4AD04FF0004C4CEA00204CEA012173
:1039900021FA03FCB0EB0C0C0FD412F0FE0F36D062
:1039A0005FEA4C001DD5001240EBC25038BF704793
:1039B0001CF03F0F18BF70470BE0A2F101025FEA55
:1039C0001C2040EBC25038BF70471CF07F0F18BF5F
:1039D0007047C3F12003994014BF401E20F001003E
:1039E000704780084FEA122308BF7047B0FA80FC86
:1039F000A2EB0C02CCF1280C60FA0CF093EA122F27
:103A000004BF00EBC25070474FEAC3707047130AFF
:103A10005FEADC1008BF7047F6E79CEA026F04D04B
:103A200010EA5C0F08BF0020704710B5FFF713FFC6
:103A300040DFF63E81F000407047000000000000CB
:103A4000000001020304060708090000000001024B
:103A500003040000743A000800000020A0000000E9
:103A60006C010008143B0008A0000020480A000078
:103A700088010008000000000000000001000000B4
:103A800010000000000000000024F400000000000E
:103A90000000000000000000000000000000000026
:103AA0000000000084000000000000000000000092
:103AB0000000000000000000000000000000000006
:103AC00000000000000100000000000000000000F5
:103AD00000000000344C00006D00000000000000F9
:103AE00000000000000000000000000000000000D6
:103AF00000000000000000000000000000000000C6
:103B000000000000000000000000000000000000B5
:043B100000000000B1
:0400000508000131BD
:00000001FF
