:020000040800F2
:100000004804002001010008930E00089B07000827
:100010008F0E0008650600081D160008000000008D
:1000200000000000000000000000000013130008A2
:100030006906000800000000E91000082514000807
:100040001B0100081B0100081B0100081B01000820
:100050001B0100081B0100081B0100081B01000810
:100060001B0100081B0100081B0100081B01000800
:100070001B0100081B0100081B0100081B010008F0
:100080001B0100081B0100081B0100081B010008E0
:100090001B0100081B0100081B0100081B010008D0
:1000A0001B0100081B0100081B0100081B010008C0
:1000B0001B0100081B0100081B0100081B010008B0
:1000C0001B0100081B0100081B0100081B010008A0
:1000D0001B0100081B0100081B0100081B01000890
:1000E0001B0100081B0100081B010008DFF80CD0F1
:1000F00000F0A6FA00480047D51F00084804002079
:100100000648804706480047FEE7FEE7FEE7FEE7B1
:10011000FEE7FEE7FEE7FEE7FEE7FEE7291400083C
:10012000ED0000082DE9FE4F804681EA0300C00F74
:100130000C46009021F0004123F00045B8EB02008E
:10014000A94105D24046214690461C460B46024630
:1001500023F00040104347D0270DC7F30A00C3F334
:100160000A510290401A019040286BDAC3F3130041
:1001700040F4801B0098924620B10023D2EB030A82
:1001800063EB0B0B01985946C0F14002504600F05A
:10019000B0F906460D4650465946019A00F0C8F996
:1001A00010EB08006141002487EA115284EAE773EA
:1001B0001A4340D0009A62B3019A012A4FEA0752CB
:1001C00015DC001B61EB02014FF0004202EA07520E
:1001D000CDE90042001C41F5801132462B4600F06B
:1001E000C8F903B0BDE8F08F40462146F9E7001B8F
:1001F00061EB0201001C41F5801300185B412018DF
:10020000A2F5001747EB030140EAD570B6196D411E
:1002100011E06D084FEA360645EAC0754FEA07520D
:10022000001B61EB0201001C41F5801149084FEAF7
:1002300030000019514132462B4603B0BDE8F04F63
:1002400000F088B90098012240000023D0EB0202A0
:1002500063EBE073009821464FEAE074B8EB0000CE
:1002600061EB0401E9E783F000435BE781F00041C3
:1002700058E72DE9FE4F81EA030404F0004421F021
:10028000004100944FF0000B23F0004350EA0104BA
:100290005ED052EA03045BD0C3F30A54C1F30A559B
:1002A0002C44A4F2F3340194A0FB0254C1F31301D3
:1002B00041F48011C3F3130343F4801301FB0244A0
:1002C00000FB034E840A970A44EA815447EA8357A5
:1002D000A4FB076802958D0A05FB07854FEA932C5E
:1002E00004FB0C542705029D4FEA065847EA1637CF
:1002F000B5EB08056EEB070C870E920E47EA8117E7
:1003000042EA8312A7FB0201B6EB0B0164EB000487
:100310002B0D43EA0C335E1844EB1C50DA46514671
:10032000E7FB0201C5F313044FEA0B3343EA14530E
:100330004FEA0432019C43EA0603A4F10C04029440
:10034000009CCDE900B400F014F903B0BDE8F08FD3
:1003500000200146F9E72DE9F04D81EA030404F09D
:10036000004B21F0004514464FF0000A23F00041F5
:1003700050EA050220D054EA01021DD0C5F30A5705
:100380000246C5F31303C1F31300C1F30A5640F448
:10039000801543F48013A7EB0608101BD64608F21D
:1003A000FD3873EB050002D308F1010801E0921853
:1003B0005B41B8F1000F03DA00200146BDE8F08D83
:1003C00000204FF48011064684460EE0171B73EBA5
:1003D000050705D3121B63EB050306434CEA010C2A
:1003E00049084FEA300092185B4150EA0107EDD10D
:1003F00052EA030012D082EA040083EA05010843AE
:1004000005D0101BAB4106D20122002306E00022DA
:100410004FF0004302E06FF0010253101AEB0600A8
:100420004CEB085110EB0A0041EB0B01BDE8F04D1D
:1004300000F090B830B5041E71F1000404DB4FF0F9
:100440000044404264EB0101141E73F1000405DB1B
:100450001C464FF00043524263EB0403994208BF2D
:10046000904230BD30B50B460146002020220124C9
:1004700009E021FA02F59D4205D303FA02F5491B72
:1004800004FA02F52844151EA2F10102F1DC30BD88
:100490002DE9F05F0546002092469B4688460646B9
:1004A000814640241BE0284641464746224600F04C
:1004B0002FF853465A46C01A914110D31146184698
:1004C000224600F016F82D1A67EB01084F46224627
:1004D0000120002100F00DF817EB00094E41201E0D
:1004E000A4F10104DFDC484631462A464346BDE814
:1004F000F09F202A04DB203A00FA02F10020704726
:100500009140C2F1200320FA03F319439040704751
:10051000202A04DB203A21FA02F00021704721FA58
:1005200002F3D040C2F120029140084319467047BF
:10053000202A06DBCB17203A41FA02F043EAE073A7
:1005400006E041FA02F3D040C2F120029140084394
:100550001946704710B5141E73F1000408DA401CE8
:1005600041F1000192185B411A4301D120F00100D2
:1005700010BD2DE9F04D92469B4611B1B1FA81F2C2
:1005800002E0B0FA80F220329046FFF7B2FF044654
:100590000F4640EA0A0041EA0B0153465A46084317
:1005A00013D0114653EA010019D0C8F14002504659
:1005B000FFF7AEFF05460E46504659464246FFF746
:1005C00098FF084305D0012004E020463946BDE8E5
:1005D000F08D0020054346EAE0762C4337430A9825
:1005E0006305E40AA0EB08000022FD0A44EA475430
:1005F0000A3002D500200146E9E7010510196941DA
:10060000DDE9084500196941BDE8F04DA2E7C1F3F5
:100610000A52C1F3130140F2FF3341F480119A42B0
:1006200002DA00200146704740F233439A42A2F2B8
:10063000334202DC5242FFF76BBFFFF75ABF0000A4
:10064000064C074D06E0E06840F0010394E807001F
:1006500098471034AC42F6D3FFF74CFDE82500086C
:100660000826000800BFFEE770472DE9F04102466A
:1006700000250026002000230024002791F803C055
:100680000CF00F0591F803C00CF0100CBCF1000F3A
:1006900003D091F802C04CEA050591F800C0BCF106
:1006A000000F31D0146800202BE04FF0010C0CFA41
:1006B00000F3B1F800C00CEA03069E4220D183008B
:1006C0004FF00F0C0CFA03F7BC4305FA03FC4CEA9D
:1006D000040491F803C0BCF1280F06D14FF0010CBF
:1006E0000CFA00FCC2F814C00AE091F803C0BCF197
:1006F000480F05D14FF0010C0CFA00FCC2F810C0F5
:10070000401C0828D1D31460B1F800C0BCF1FF0F21
:1007100034DD546800202EE000F1080C4FF0010891
:1007200008FA0CF3B1F800C00CEA03069E4221D18E
:1007300083004FF00F0C0CFA03F7BC4305FA03FCDF
:100740004CEA040491F803C0BCF1280F05D100F174
:10075000080C08FA0CF8C2F8148091F803C0BCF138
:10076000480F07D100F1080C4FF0010808FA0CF807
:10077000C2F81080401C0828CED35460BDE8F08138
:100780000246002093680B400BB1012000E00020DE
:100790007047416170470161704700BFFEE7062066
:1007A00000BF0100A0F10102D0B2FAD170470000F1
:1007B00008B50121082000F0A9FC14208DF80300E1
:1007C0004020ADF8000003208DF80200694605487E
:1007D000FFF74BFF8020ADF8000069460148FFF7A6
:1007E00044FF08BD000C014070B5044600251DE023
:1007F00004F0800020B180211D48FFF7CCFF03E00A
:1008000080211B48FFF7C5FFFFF7C9FF40211848AB
:10081000FFF7C1FFFFF7C3FF40211548FFF7B9FFFE
:10082000FFF7BDFF6006040E681CC5B2082DDFDBB4
:1008300080210F48FFF7AFFFFFF7B1FF40210C48C1
:10084000FFF7A9FFFFF7ABFF80210948FFF798FFEB
:1008500018B101200749087002E00020054908701E
:1008600040210348FFF795FFFFF799FF70BD000097
:10087000000C01402800002010B540210A48FFF775
:100880008AFF80210848FFF786FFFFF788FF802155
:100890000548FFF77EFFFFF782FF40210248FFF780
:1008A00078FFFFF77CFF10BD000C014010B58021E0
:1008B0000748FFF76EFF40210548FFF76CFFFFF781
:1008C0006EFF80210248FFF766FFFFF768FF10BD4B
:1008D000000C014070B504460D461646FFF7CCFFEC
:1008E000E0B2FFF781FF0E480078012801D1002017
:1008F00070BD2846FFF778FF09480078012801D12C
:100900000020F5E73046FFF76FFF05480078012823
:1009100001D10020ECE7FFF7C9FF0120E8E7000064
:100920002800002010B500F07FFD01F0F9FA00F07A
:10093000ABFD09A000F074FEFFF73AFF00F0CFFA1C
:10094000002000F0A7FA00F085FA00F095FA00F018
:1009500047FA00F051F810BDD5E2CAC7B4AEBFDA0D
:10096000B5F7CAD4D6FACAD60D0A000070B5064645
:1009700014484088401E83B212480088401E82B24C
:100980000021084600F066F94FF400600E49086047
:100990004010091F086000240AE0002503E03046EB
:1009A00000F002FA6D1C07480088A842F7D8641CC2
:1009B00004484088A042F0D84FF400600249091F63
:1009C000086070BD34000020140C014008B50121FE
:1009D000082000F09BFB4FF4F050ADF8000003201E
:1009E0008DF8020010208DF8030069460148FFF7DA
:1009F0003CFE08BD000C014010B500F001FCFFF703
:100A0000E5FF00F013F9112000F068F9782001F0FB
:100A1000A9FAB12000F062F9012000F047F92C207A
:100A200000F044F92D2000F041F9B22000F056F911
:100A3000012000F03BF92C2000F038F92D2000F0C7
:100A400035F9B32000F04AF9012000F02FF92C20ED
:100A500000F02CF92D2000F029F9012000F026F9F2
:100A60002C2000F023F92D2000F020F9B42000F014
:100A700035F9072000F01AF9C02000F02FF9A22064
:100A800000F014F9022000F011F9842000F00EF9B2
:100A9000C12000F023F9C52000F008F9C22000F0C1
:100AA0001DF90A2000F002F9002000F0FFF8C32031
:100AB00000F014F98A2000F0F9F82A2000F0F6F886
:100AC000C42000F00BF98A2000F0F0F8EE2000F0CE
:100AD000EDF8C52000F002F90E2000F0E7F836200E
:100AE00000F0FCF8C02000F0E1F8E02000F0F6F89B
:100AF0000F2000F0DBF81A2000F0D8F80F2000F0EB
:100B0000D5F8182000F0D2F82F2000F0CFF82820D8
:100B100000F0CCF8202000F0C9F8222000F0C6F840
:100B20001F2000F0C3F81B2000F0C0F8232000F0C5
:100B3000BDF8372000F0BAF8002000F0B7F8072021
:100B400000F0B4F8022000F0B1F8102000F0AEF888
:100B5000E12000F0C3F80F2000F0A8F81B2000F0FF
:100B6000A5F80F2000F0A2F8172000F09FF833201E
:100B700000F09CF82C2000F099F8292000F096F85D
:100B80002E2000F093F8302000F090F8302000F094
:100B90008DF8392000F08AF83F2000F087F8002017
:100BA00000F084F8072000F081F8032000F07EF8C0
:100BB000102000F07BF82A2000F090F8002000F0D0
:100BC00075F8002000F072F8002000F06FF87F2028
:100BD00000F06CF82B2000F081F8002000F066F89F
:100BE000002000F063F8002000F060F89F2000F083
:100BF0005DF8F02000F072F8012000F057F8F620C0
:100C000000F06CF8002000F051F83A2000F066F88F
:100C1000052000F04BF8292000F060F8002000F0DB
:100C200085F84FF6FF70FFF7A1FE10BD10B54FF429
:100C3000805007490860642001F094F94FF4805017
:100C40000349091F0860322001F08CF910BD000033
:100C5000140C01402DE9F04104460D4616461F468E
:100C60001149887A00F03AF8002000F01FF8E0B24D
:100C700000F01CF8002000F019F8F0B200F016F8AF
:100C80000949087B00F02AF8002000F00FF8E8B2CC
:100C900000F00CF8002000F009F8F8B200F006F8B7
:100CA00000F032F8BDE8F0813400002010B50446B1
:100CB0004FF40060074908604010091F0860214692
:100CC000054800F015FB4FF400600249091F086059
:100CD00010BD0000140C01400038004010B504465F
:100CE0004FF400600649086040100860214605483E
:100CF00000F0FEFA4FF400600149091F086010BDC2
:100D0000140C01400038004010B50249087AFFF782
:100D1000E5FF10BD3400002070B505460C4628469E
:100D2000FFF7DCFFE0B2FFF7C1FF70BD10B504466E
:100D30002A201C4948812B2088812C20088134B12D
:100D4000012C0ED0022C16D0032C28D11DE08020BF
:100D500014490880A0204880C0213620FFF7DCFF1E
:100D60001EE0A0200F49088080204880A021362066
:100D7000FFF7D2FF14E080200A490880A0204880B5
:100D800000213620FFF7C8FF0AE0A02005490880AF
:100D90008020488060213620FFF7BEFF00E000BFC2
:100DA00000BF10BD3400002010B504464FF40060B1
:100DB000094908604010091F08602112074800F027
:100DC00097FAE1B2054800F093FA4FF40060024947
:100DD000091F086010BD0000140C014000380040DD
:100DE00010B5C0220221AE20FFF774FD00220321BE
:100DF000AE20FFF76FFD00220421AE20FFF76AFD51
:100E000000220521AE20FFF765FD00220621AE205D
:100E1000FFF760FD0F220821AE20FFF75BFD0322E4
:100E20000921AE20FFF756FD27220A21AE20FFF749
:100E300051FD32220C21AE20FFF74CFD32220D2154
:100E4000AE20FFF747FD7F221021AE20FFF742FDC5
:100E500010BD000008B50121082000F057F904205A
:100E60008DF80300C001ADF8000069460148FFF7A6
:100E7000FCFB08BD000C014010B540220921AE204A
:100E8000FFF728FD08B1012010BD0020FCE700BFDE
:100E9000FEE7704770B5054600241DE004F1B00080
:100EA000C2B200217820FFF715FD002211467820FC
:100EB000FFF710FD102200217820FFF70BFD002620
:100EC00006E02A4640217820FFF704FD701CC6B2D8
:100ED000802EF6DB601CC4B2082CDFDB70BD10B5C1
:100EE000AE2200217820FFF7F5FC20220021782097
:100EF000FFF7F0FC002211467820FFF7EBFCB02250
:100F000000217820FFF7E6FCC82200217820FFF7B7
:100F1000E1FC002211467820FFF7DCFC10220021C2
:100F20007820FFF7D7FC402200217820FFF7D2FC81
:100F3000812200217820FFF7CDFCDF2200217820DC
:100F4000FFF7C8FCA12200217820FFF7C3FCA622EE
:100F500000217820FFF7BEFCA82200217820FFF7AF
:100F6000B9FC3F2200217820FFF7B4FCA422002125
:100F70007820FFF7AFFCD32200217820FFF7AAFCEE
:100F8000002211467820FFF7A5FCD5220021782009
:100F9000FFF7A0FCF02200217820FFF79BFCD9226C
:100FA00000217820FFF796FC222200217820FFF70D
:100FB00091FCDA2200217820FFF78CFC122200211C
:100FC0007820FFF787FCDB2200217820FFF782FCE6
:100FD000202200217820FFF77DFC8D22002178203F
:100FE000FFF778FC142200217820FFF773FCAF2272
:100FF00000217820FFF76EFC10BD00000FB42DE932
:10100000F0439BB004468846002625A8019002A81C
:10101000019A249900F014FB002001900DF10809B9
:1010200055E027463CE007F1B000C2B2002178202D
:10103000FFF750FC08F00F0200217820FFF74AFC70
:10104000102000EB281200217820FFF743FCA74274
:1010500010D100250CE099F800002038214901EB5F
:101060000010425D40217820FFF734FC681CC5B2B7
:10107000082DF0DB601C874210D108250CE099F8A0
:1010800000002038174901EB0010425D4021782014
:10109000FFF720FC681CC5B2102DF0DB781CC7B22E
:1010A000A01C8742BFDB701CC6B208F1080000F02C
:1010B000FF08F11706EB11710911A6EB011109B92F
:1010C000A01CC4B2402E00D105E009F1010999F835
:1010D00000000028A5D100BF1BB0BDE8F0035DF8FB
:1010E00014FB0000F81F00087047000029B1064AF1
:1010F000D2690243044BDA6104E0034AD2698243B5
:10110000014BDA61704700000010024029B1064A25
:1011100092690243044B9A6104E0034A9269824354
:10112000014B9A61704700000010024030B5002169
:101130000022002400232D4D6D6805F00C0121B123
:10114000042905D0082923D105E0294D056022E0B6
:10115000274D05601FE0254D6D6805F47012234D85
:101160006D6805F48034022505EB92421CB9214DCF
:10117000554305600BE01D4D6D6805F400351DB14C
:101180001C4D5543056002E0194D5543056002E0D2
:10119000174D056000BF00BF144D6D6805F0F001EC
:1011A0000909154D6B5C0568DD4045600F4D6D68A4
:1011B00005F4E061090A104D6B5C4568DD4085600F
:1011C0000A4D6D6805F46051C90A0B4D6B5C4568AA
:1011D000DD40C560054D6D6805F44041890B074D44
:1011E0006B5CC568B5FBF3F5056130BD00100240CE
:1011F00000127A0000093D001400002024000020A5
:1012000000B587B001210920FFF780FF4FF420408F
:10121000ADF8040003208DF8060018208DF80700B3
:1012200001A91C48FFF721FA4FF48040ADF80400F3
:1012300048208DF8070003208DF8060001A9154805
:10124000FFF713FA01218803FFF750FF0020ADF8E4
:1012500008004FF48270ADF80A000020ADF80C00D1
:10126000ADF80E00ADF810004FF40070ADF81200AC
:101270000020ADF81400ADF816000720ADF81800F6
:1012800002A9054800F016F80121034800F006F80D
:1012900007B000BD000C01400038004021B10288B9
:1012A00042F04002028004E002884FF6BF731A4009
:1012B0000280704710B50022028802F441520B8868
:1012C0004C8823438C882343CC8823430C892343B5
:1012D0004C8923438C892343CC8923431A430280BE
:1012E000838B4FF2FF74234083830B8A038210BDEC
:1012F000024600BF108900F002000028FAD0918158
:1013000000BF108900F001000028FAD09089C0B217
:101310007047704710B500F001F810BD0CB5002003
:10132000019000903348006840F4803031490860F3
:1013300000BF3048006800F4003000900198401C65
:101340000190009818B90198B0F5A06FF1D1294823
:10135000006800F4003010B10120009001E000208E
:1013600000900098012843D12348006840F0100005
:10137000214908600846006820F00300086008461C
:10138000006840F0020008601A4840681949486047
:101390000846406848600846406840F480604860FD
:1013A0000846406820F47C1048600846406840F4D5
:1013B000E81048600846006840F08070086000BF90
:1013C0000C48006800F000700028F9D00948406817
:1013D00020F00300074948600846406840F00200DA
:1013E000486000BF0348406800F00C000828F9D1AD
:1013F0000CBD00000010024000200240042808D16B
:101400004FF0E021096941F004014FF0E022116141
:1014100007E04FF0E021096921F004014FF0E022DC
:10142000116170477047000010B51348006840F024
:1014300001001149086008464068104908400E49FB
:101440004860084600680E4908400B490860084695
:10145000006820F4802008600846406820F4FE0000
:1014600048604FF41F008860FFF754FF4FF00060A2
:101470000449086010BD0000001002400000FFF8A1
:10148000FFFFF6FE08ED00E000B585B00121042065
:10149000FFF73CFE01218803FFF738FE18208DF886
:1014A00013004FF40070ADF8100003208DF8120007
:1014B00004A91348FFF7D9F804208DF8130000029F
:1014C000ADF8100004A90E48FFF7CFF84FF4E13053
:1014D00000900020ADF80C000C20ADF80A000020B0
:1014E000ADF80800ADF80600ADF8040069460548FF
:1014F00000F024F80121034800F006F805B000BD13
:10150000000801400038014021B1828942F40052B4
:10151000828104E082894DF6FF731A408281704710
:1015200002460020B1F5007F00D100BF13880B40B8
:101530000BB1012000E00020704700002DE9F047CA
:1015400086B005460E460024A24600BFA1460027ED
:10155000B08900B100BF2F462C8A4CF6FF700440C2
:10156000F08804432C82AC894EF6F3100440B08816
:1015700031890843718908430443AC81AC8A4FF632
:10158000FF400440B0890443AC8201A8FFF7CEFDC0
:101590001F48874202D1DDF810A001E0DDF80CA061
:1015A000A88900F4004040B10AEBCA0000EB0A1021
:1015B00031684900B0FBF1F807E00AEBCA0000EB24
:1015C0000A1031688900B0FBF1F86420B8FBF0F034
:1015D00004012009642101FB1089A88900F400405E
:1015E00040B1322000EBC900B0FBF1F000F0070081
:1015F000044308E0322000EB09106421B0FBF1F055
:1016000000F00F0004432C8106B0BDE8F087000015
:1016100000380140C1F308028280704700BFFEE736
:101620000FB4054B10B503A9044A029800F0DCF88A
:1016300010BC5DF814FB0000B11F00083000002052
:1016400037B514460846064B6A46214600F0CCF8EA
:1016500004466946002000F05EFC20463EBD0000C6
:10166000171F000802E008C8121F08C1002AFAD19B
:1016700070477047002001E001C1121F002AFBD112
:10168000704700002DE9FF5FDDE90220010DDDF864
:1016900038B0024318D044F61050A1F2FF31414354
:1016A0000D140F98012820D0A5EB0B00401C5FEA19
:1016B000000A4FF00004474EDFF81C91A046504648
:1016C00016D5CAF1000728E00F98012443A201288B
:1016D00008D0002100980F9BC0E90021C0E9024317
:1016E000BDE8FF9F6FEA0B01F4E7CBF10000DEE7F6
:1016F000074612E0F80707D02246334640464946DF
:10170000FEF7B7FD80468946224633461046194605
:10171000FEF7AFFD04460E467F10002FEAD1DDE94B
:101720000201BAF1000F42464B4602DAFEF7A1FD74
:1017300001E0FEF710FE04460E460022284BFEF79D
:1017400079FE03D84FF0FF30014607E00022254B19
:1017500020463146FEF7E6FCFEF759FF102409E06B
:10176000002C0ADB0A220023FEF792FE019B303296
:101770001A55641E50EA0102F2D1641C019AC4F1A8
:10178000110314440F9A012A03D0012208430DD1FA
:101790000AE0084304D000204FF0110B0F9080E7BF
:1017A000A3EB0B056D1E0DE05B4504DD4FF0000261
:1017B00005F1010504E003DA4FF00002A5F101058F
:1017C000002AECD000980F99C0E90231C0E9004529
:1017D00086E70000000024400000F03F30000000D9
:1017E0000000F0430000E03F2DE9FF4F95B09B461D
:1017F0008946064600250FE2252877D10024274692
:10180000F84A0121059400E0044316F8013F203B0B
:1018100001FA03F01042F7D130782A2811D06FF086
:101820002F033078A0F13002092A16D8059A44F027
:10183000020402EB820203EB42021044761C059084
:10184000EFE759F8042B0592002A03DA504244F4DA
:101850000054059044F00204761C30782E2816D1EE
:1018600016F8010F44F004042A280DD06FF02F025F
:101870003078A0F13003092B09D807EB870302EB7E
:101880004303C718761CF3E759F8047B761C3078BD
:101890006C280FD006DC4C2817D068280DD06A2899
:1018A00014D104E0742810D07A280FD10DE044F44C
:1018B00000140AE044F4801401E044F44014727807
:1018C000824202D104F58014761C761C307866289A
:1018D0000BD013DC582877D009DC002875D04528B8
:1018E000F6D04628F4D047281AD19DE118E06328A5
:1018F00035D0642879D0652812D195E1702873D04D
:1019000008DC6728F1D069286FD06E280DD06F28C9
:1019100006D1B5E073282CD0752875D0782874D0FE
:101920005A46179990476D1C75E1C4F3025002287E
:1019300009D003280DD0D9F8001004280DD00D606F
:1019400009F1040967E1D9F80010EA17C1E900526A
:10195000F6E7D9F800100D80F2E70D70F0E719F8FE
:10196000041B8DF8001000208DF80100EA460120CC
:1019700003E059F804AB4FF0FF3061074FF000016E
:1019800002D40DE008F101018846B9420FDA804522
:10199000F8DB1AF808100029F4D108E008F1010179
:1019A00088468142FADB1AF808100029F6D105981A
:1019B0005B46A0EB080721463846179A00F094FAD8
:1019C000284400EB080507E04DE029E10DE01AF896
:1019D000010B5A4617999047B8F10108F7D25B46B8
:1019E00021463846179A13E142E00A220092C4F3D6
:1019F00002524FF0000A022A08D059F804CB032AF9
:101A00004FEAEC710AD00DE029E02AE009F1070164
:101A100021F00702F2E802C1914609E00FFA8CFCBE
:101A20004FEAEC71042A03D14FFA8CFC4FEAEC71B7
:101A3000002907DA0A460021DCF1000C61EB020103
:101A40002D2202E0220504D52B228DF8042001224C
:101A500003E0E20701D02022F7E7904659E00A218F
:101A600002E010220DE010214FF0000A00910BE07F
:101A700010224FF0000A44F004040827009203E00B
:101A800008224FF0000A0092C4F30252022A05D045
:101A900059F804CB0021032A08D009E009F1070115
:101AA00021F00702F2E802C1914605E01FFA8CFC22
:101AB000042A01D10CF0FF0C4FF00008220728D5B2
:101AC000702806D0009B83F0100353EA0A0305D068
:101AD0000EE040228DF80420012208E05CEA0102B9
:101AE00006D030228DF804208DF8050002229046A1
:101AF000009B83F0080353EA0A030AD15CEA01025F
:101B000001D1620705D530228DF804204FF001087D
:101B10007F1E582804D034A003900EA802900DE038
:101B200036A0F9E753466046009AFEF7B1FC8446BA
:101B30000398825C0298401E029002705CEA0100E9
:101B4000F0D1029806A9081A00F1200A600702D510
:101B500024F4803400E00127574502DDA7EB0A009A
:101B600000E0002000EB0A01009005984144401A73
:101B70000590E00306D45B462146179A059800F0CD
:101B8000B3F90544002706E001A85A46C05D17993D
:101B900090476D1C7F1C4745F6DBE0030CD55B4688
:101BA0002146179A059800F09FF9054404E030207B
:101BB0005A46179990476D1C0099481E00900029BD
:101BC000F5DC08E0029802995A460078491C029117
:101BD000179990476D1CBAF10001AAF1010AF1DCD6
:101BE00065E10000092801003031323334353637E1
:101BF0003839616263646566000000003031323359
:101C000034353637383941424344454600000000F8
:101C100000F058F90544761C307800287FF4ECADCC
:101C200019B02846BDE8F08F620700D4062709F1F5
:101C3000070222F0070CFCE80223E14603F000480B
:101C40005FEA080C02D00FF2702C0DE05FEA045C32
:101C500002D50FF2682C07E05FEAC47C02D00FF2D5
:101C6000602C01E0AFF2700C4FF0FF3823F000431E
:101C7000CDF850C065280CD006DC452809D0462890
:101C80001DD047283DD13DE0662818D067287ED179
:101C900038E00021112F01DB112000E0781CCDE994
:101CA000000106A90EA8FFF7EDFCDDE90F010E9A71
:101CB00003910021009207F1010A04914DE04FF0D9
:101CC00000400097CDE9011006A90EA8FFF7DAFC45
:101CD000DDE90F0203920E9B11990022DDF80CA0A2
:101CE0000093049211B9791C00EB010AB7EB0A00CA
:101CF00004D4C0F1FF3007F1010A0490AAEB0700F9
:101D0000019044E0012F00DA01270021112F01DDAD
:101D1000112000E03846CDE9000106A90EA8FFF722
:101D2000B1FCDDE90F010E9A0391002104910092AC
:101D3000BA4621070CD40399514500DA8A46BAF114
:101D4000010F05DD009AAAF10101515C302908D08C
:101D5000B84202DA10F1040F06DA0121CDE90110D0
:101D600015E0AAF10101E9E7002805DC0499014426
:101D70000491AAEB000102E0411C514500DD8A46B6
:101D80000499401A401C01904FF000400290200737
:101D900004D40198504501DBCDF8048000208DF873
:101DA0004F0002980DF14F07B0F1004F25D02B20C6
:101DB0000E9002984FF0020800280CDA4042029080
:101DC0002D200E9007E00A210298FEF74BFB3031E0
:101DD000029007F8011DB8F10001A8F10108F2DC3A
:101DE00002980028EFD1791E0E980870307800F024
:101DF000200040F0450007F8020D12A8C01B00F1BA
:101E000007081498007800B1012000EB0A0101983E
:101E100001EBE07105984144401A401E0590E00333
:101E200006D45B462146179A059800F05DF80544F4
:101E30001498007818B15A46179990476D1CE00322
:101E400024D55B462146179A059800F04DF80544C5
:101E50001CE00498002807DBDDE90301884203DD6C
:101E60000098405C179901E0179930205A46904736
:101E7000049805F10105401C04900198401E019052
:101E800004D12E205A46179990476D1CBAF10001D3
:101E9000AAF1010ADDDC05E017F8010B5A46179993
:101EA00090476D1CB8F10001A8F10108F4DC5B4615
:101EB0002146179A0598ABE62D0000002B00000084
:101EC000200000002DE9F041044600251E4617467B
:101ED000880404D405E039462020B0476D1C641EF8
:101EE000F9D52846BDE8F0812DE9F04104460025EA
:101EF0001E469046C80301D5302700E020278804FD
:101F000004D505E041463846B0476D1C641EF9D53E
:101F10002846BDE8F0810A68531C0B6010707047BA
:101F200010B56FF00400FFF769FA0A4800680A4923
:101F3000B0FBF1F0094908700846007800EB400159
:101F4000C1EBC0104FF6FF7101EAC00004490880E0
:101F500010BD00000000002000127A002A000020BE
:101F60002C0000200146114A12884A434FF0E0231A
:101F70005A6100229A611A46126942F001021A61FE
:101F800000BF4FF0E022106900F001021AB100F426
:101F90008032002AF5D04FF0E022126922F00102CF
:101FA0004FF0E0231A6100229A6170472C00002054
:101FB00070B504460D46E1B20548FFF72BFB00BFA4
:101FC00080210348FFF7ACFA0028F9D0204670BD05
:101FD00000380140FEF7A6FC03A200210846FFF7E7
:101FE0000DF800BFFEE700002020202A4F78696D21
:101FF000657465722A000000000000000000000007
:102000000000000000000000000000F800000000D8
:10201000000000330000000000100C02100C020051
:1020200000000000000000000040C07840C07800C0
:1020300000043F04043F040000708888FC0830005E
:1020400000182020FF211E00F008F080601800001A
:1020500000310C031E211E0000F0088870000000F3
:102060001E21232C1927211000120E000000000051
:102070000000000000000000000000E01804020062
:10208000000000071820400000020418E0000000D3
:102090000040201807000000404080F080404000D1
:1020A0000202010F0102020000000000E000000037
:1020B000000101010F01010100000000000000000B
:1020C0000090700000000000000000000000000010
:1020D00000010101010101000000000000000000FA
:1020E000003030000000000000000000C038040094
:1020F000006018070000000000E010080810E00071
:10210000000F102020100F0000001010F800000039
:10211000000020203F202000007008080808F00080
:102120000030282422213000003008080888700080
:102130000018202121221C000000804030F80000FF
:1021400000060524243F242400F888888808080015
:102150000019202020110E0000E010888890000057
:10216000000F112020201F000018080888681800A0
:102170000000003E01000000007088080888700020
:10218000001C222121221C0000F008080810E00099
:102190000001122222110F00000000C0C000000048
:1021A000000000303000000000000080000000004F
:1021B000000000E000000000000080402010080047
:1021C0000001020408102000004040404040400050
:1021D00000020202020202000008102040800000FB
:1021E00000201008040201000070480808887000F0
:1021F0000000003037000000C030C828E810E000C0
:10220000071827282F2817000000C038E00000001A
:10221000203C23020227382008F8888888700000B4
:10222000203F202020110E00C03008080808380088
:10223000071820202010080008F808080810E000FF
:10224000203F202020100F0008F88888E8081000A0
:10225000203F20202320180008F88888E808100074
:10226000203F200003000000C030080808380000AC
:1022700007182020221E020008F808000008F808AD
:10228000203F210101213F20000808F80808000034
:102290000020203F2020000000000808F808080067
:1022A000C08080807F00000008F888C028180800DF
:1022B000203F20012638200008F808000000000018
:1022C000203F20202020300008F8F800F8F808000F
:1022D000203F013E013F200008F830C00008F80808
:1022E000203F200007183F00E01008080810E00019
:1022F0000F10202020100F0008F808080808F00030
:10230000203F210101010000E01008080810E00052
:102310000F10282830504F0008F8888888887000EF
:10232000203F2000030C3020007088080808380087
:102330000038202121221C00180808F8080818007D
:102340000000203F2000000008F808000008F808FE
:10235000001F202020201F000878880000C83808AF
:10236000000007380E01000008F800F800F8080027
:1023700000033E013E0300000818688080681808CA
:1023800020302C03032C30200838C800C83808003F
:102390000000203F2000000010080808C83808008E
:1023A0002038262120201800000000FE0202020032
:1023B0000000007F40404000000438C000000000E2
:1023C000000000010638C00000020202FE0000000A
:1023D000004040407F0000000000040202040000B2
:1023E00000000000000000000000000000000000ED
:1023F00080808080808080800002020400000000D5
:10240000000000000000000000008080800000004C
:1024100000192424123F200010F0008080000000EA
:10242000003F112020110E0000000080808000007D
:10243000000E112020201100000080808090F0000C
:10244000001F202020103F2000008080808000009E
:10245000001F242424241700008080E09090200096
:102460000020203F2020000000008080808080002D
:10247000006B94949493600010F0008080800000C2
:10248000203F210000203F2000809898000000009D
:102490000020203F202000000000008098980000CD
:1024A00000C08080807F000010F0000080808000ED
:1024B000203F240629302000001010F80000000002
:1024C0000020203F202000008080808080808000CD
:1024D000203F20003F20003F80800080808000005F
:1024E000203F210000203F200000808080800000ED
:1024F000001F202020201F0080800080800000001E
:1025000080FF912020110E000000008080008000DC
:10251000000E11202091FF8080808000808080004C
:1025200020203F212000010000008080808080006A
:102530000033242424241900008080E080800000DF
:102540000000001F2020100080800000008080001C
:10255000001F202020103F2080808000808080008D
:1025600000030C300C03000080800080800080801D
:10257000010E300C0738060100808080008080004A
:102580000020310E2E31200080808000008080806D
:10259000008186781806010000808080808080009D
:1025A0000021302C222130000000000000FC02023B
:1025B00000000000013E404000000000FF0000005D
:1025C00000000000FF0000000202FC00000000000C
:1025D00040403E010000000000020102020402002F
:1025E0000000000000000000082600080000002095
:1025F00034000000641600083C2600083400002067
:10260000140400007416000800A24A040000000030
:102610000000000001020304060708090000000092
:102620000102030401020304060708090204060864
:0C2630000000000000000000000000009E
:04000005080000ED02
:00000001FF
