:020000040800F2
:10000000E8060020890100088D0600089D0500080B
:10001000D505000843020008DF17000800000000B3
:10002000000000000000000000000000A50C000817
:100030004702000800000000550B0008690E000888
:10004000A3010008A3010008A3010008A301000800
:10005000A3010008A3010008A3010008A3010008F0
:10006000A3010008A3010008A3010008A3010008E0
:10007000A3010008A3010008A3010008A3010008D0
:10008000A3010008A3010008A3010008A3010008C0
:10009000A3010008A3010008A3010008A3010008B0
:1000A000A3010008A3010008A3010008A3010008A0
:1000B000A30100080D110008A3010008A301000816
:1000C000A3010008A3010008A3010008A301000880
:1000D000A3010008CD150008A3010008A301000832
:1000E000A3010008A3010008A301000800F002F822
:1000F00000F03AF80AA090E8000C82448344AAF188
:100100000107DA4501D100F02FF8AFF2090EBAE885
:100110000F0013F0010F18BFFB1A43F0010318473B
:100120006025000080250000103A24BF78C878C1FF
:10013000FAD8520724BF30C830C144BF04680C60ED
:10014000704700000023002400250026103A28BF35
:1001500078C1FBD8520728BF30C148BF0B60704739
:100160001FB51FBD10B510BD00F031F81146FFF7E7
:10017000F7FF01F085FB00F04FF803B4FFF7F2FF43
:1001800003BC00F057F800000948804709480047C1
:10019000FEE7FEE7FEE7FEE7FEE7FEE7FEE7FEE737
:1001A000FEE7FEE704480549054A064B7047000094
:1001B0006D0E0008ED000008E8000020E8060020B1
:1001C000E8020020E802002070477047704775463B
:1001D00000F02CF8AE4605006946534620F00700B3
:1001E000854618B020B5FFF7DDFFBDE820404FF091
:1001F00000064FF000074FF000084FF0000B21F011
:100200000701AC46ACE8C009ACE8C009ACE8C009DD
:10021000ACE8C0098D46704710B50446AFF30080C6
:100220002046BDE81040FFF7A8BF00000048704717
:100230008800002001491820ABBEFEE7260002001E
:10024000704700BFFEE7704710B500F01FF800F0E0
:100250006FF810BD10B54FF0804000F0C3FF04B23E
:1002600000214FF0804001F0EFF8204610BD000063
:1002700010B5054800F0B6FF04B20021024801F0B5
:10028000E3F8204610BD00000008004000B587B02C
:100290000121084600F060FC0121042000F06CFC04
:1002A00048208DF81B000320ADF818008DF81A00C7
:1002B00006A91E4800F08CF80020ADF81200ADF839
:1002C0000E004FF6FF70ADF810000020ADF80C00E6
:1002D0008DF8140003A94FF0804001F0E3F8684660
:1002E00000F0EAFF0020ADF800000F20ADF8080094
:1002F00069464FF0804000F089FF0420ADF800000F
:100300000F20ADF8080069464FF0804000F07EFFF6
:1003100000231A4603214FF0804000F042FF0121E4
:10032000880700F023FF07B000BD0000000801406F
:1003300000B587B00121042000F00EFC0121082047
:1003400000F01AFC48208DF81B00C020ADF8180002
:1003500003208DF81A0006A91B4800F039F8002088
:10036000ADF81200ADF80E004FF6FF70ADF81000BA
:100370000020ADF80C008DF8140003A9134801F01B
:1003800091F8684600F098FF0020ADF800000F20BB
:10039000ADF8080069460D4800F038FF0420ADF8BC
:1003A00000000F20ADF808006946084800F02EFF55
:1003B00000231A460321054800F0F3FE01210348FB
:1003C00000F0D4FE07B000BD000C01400008004062
:1003D0002DE9F041024600250026002000230024DC
:1003E000002791F803C00CF00F0591F803C00CF042
:1003F000100CBCF1000F03D091F802C04CEA0505C7
:1004000091F800C0BCF1000F31D0146800202BE03F
:100410004FF0010C0CFA00F3B1F800C00CEA03062F
:100420009E4220D183004FF00F0C0CFA03F7BC431F
:1004300005FA03FC4CEA040491F803C0BCF1280F50
:1004400006D14FF0010C0CFA00FCC2F814C00AE00F
:1004500091F803C0BCF1480F05D14FF0010C0CFA24
:1004600000FCC2F810C0401C0828D1D31460B1F8B9
:1004700000C0BCF1FF0F34DD546800202EE000F115
:10048000080C4FF0010808FA0CF3B1F800C00CEAB0
:1004900003069E4221D183004FF00F0C0CFA03F7A4
:1004A000BC4305FA03FC4CEA040491F803C0BCF118
:1004B000280F05D100F1080C08FA0CF8C2F81480D6
:1004C00091F803C0BCF1480F07D100F1080C4FF0C0
:1004D000010808FA0CF8C2F81080401C0828CED396
:1004E0005460BDE8F0810000F0B50A460023002406
:1004F0000021002500F00046B6F1004F02D11D4E4C
:10050000F16901E01B4E7168C0F3034583B200F44A
:100510004016B6F5401F08D121F07061154E76687F
:1005200026F07066134F7E6012E000F48016B6F578
:10053000801F06D1032606FA05F4A14341F070613D
:1005400006E0460D360103FA06F6B14341F070614C
:1005500022B1460D360103FA06F6314300F000469B
:10056000B6F1004F02D1034EF16101E0014E71601E
:10057000F0BD0000000001400246002093680B40DF
:100580000BB1012000E0002070474161704701611C
:1005900070470AB1016100E04161704700BFFEE7AA
:1005A00008B50121102000F0E7FA10208DF80300B3
:1005B0004002ADF8000003208DF8020069460448AF
:1005C000FFF706FF02210248FFF7E1FF08BD000028
:1005D0000010014000BFFEE708B50121082000F02F
:1005E000CBFA10208DF803004FF47040ADF80000F6
:1005F00003208DF8020069460148FFF7E9FE08BDB7
:10060000000C014010B54FF480410448FFF7BDFFD6
:100610004FF400410148FFF7BAFF10BD000C014044
:1006200010B54FF480410448FFF7B1FF4FF400418B
:100630000148FFF7AAFF10BD000C014010B50446A9
:10064000A0B200F073FA10BD10B54FF40051044889
:10065000FFF79DFF4FF480510148FFF796FF10BD53
:10066000000C014010B54FF400510448FFF78DFF16
:100670004FF480510148FFF78AFF10BD000C014084
:1006800010B50446A0B200F05BFA10BD7047000040
:1006900070B5002100230F22C47804B3154C2468E0
:1006A00004F4E064C4F5E064210AC1F10403CA4023
:1006B000447804FA03F184781440214309010E4C74
:1006C0000678A155047804F01F050124AC40057894
:1006D0006D11AD0005F1E025C5F8004109E0047891
:1006E00004F01F050124AC40044D0678761145F84E
:1006F000264070BD0CED00E000E400E080E100E089
:1007000002490143024A1160704700000000FA05E7
:100710000CED00E070B500240EE00021204600F052
:10072000F0F8002504E0002000F08DF9681CC5B247
:10073000802DF8DB601CC4B2082CEEDB70BD00001D
:1007400008B50121082000F017FA14208DF80300E5
:1007500003208DF802004FF48070ADF80000694668
:100760000A48FFF735FE4FF40070ADF80000694607
:100770000648FFF72DFE012211020448FFF709FF8A
:10078000012251020148FFF704FF08BD000C01409F
:1007900070B50546002415E08020204100EA0502DE
:1007A0004FF400710E48FFF7F4FE012211020C48CD
:1007B000FFF7EFFE00224FF480710948FFF7E9FED2
:1007C000601CC4B2082CE7DB012211020448FFF7C9
:1007D000E0FE00224FF480710148FFF7DAFE70BDA1
:1007E000000C014010B5012251020A48FFF7D1FE6A
:1007F000012211020748FFF7CCFE00224FF40071DE
:100800000448FFF7C6FE00224FF480710148FFF74D
:10081000C0FE10BD000C014010B500224FF4007165
:100820000648FFF7B6FE012211020448FFF7B1FEA9
:10083000012251020148FFF7ACFE10BD000C01403F
:1008400070B5002406E0002500E06D1CB5F57A7F48
:10085000FBD3641CB4F57A7FF5D3FFF771FFAE20AC
:1008600000F0E1F8D52000F0DEF8802000F0DBF8A1
:10087000A82000F0D8F83F2000F0D5F8D32000F0F1
:10088000D2F8002000F0CFF8402000F0CCF8A120F2
:1008900000F0C9F8C82000F0C6F8DA2000F0C3F86C
:1008A000122000F0C0F8812000F0BDF8CF2000F049
:1008B000BAF8D92000F0B7F8F12000F0B4F8DB2046
:1008C00000F0B1F8302000F0AEF8A42000F0ABF852
:1008D000A62000F0A8F88D2000F0A5F8142000F064
:1008E000A2F8AF2000F09FF8FFF714FF70BD10B51D
:1008F0000246012000E050430B1EA1F10101FAD194
:1009000010BD70B505460C4645F0B00000F08BF800
:10091000102141EA141000F086F804F00F0000F0F6
:1009200082F870BD2DE9F04105460E461746721E4D
:10093000D206110E6A1E5206100EFFF7E2FF0024C7
:1009400009E0A7F12001134A02EB0111085D00F054
:100950007AF8601CC4B2082CF3DB721ED206110EAA
:100960006A1E012303EB4202D0B2FFF7CAFF002444
:100970000BE0A7F12001074A02EB011204F1080184
:10098000505C00F060F8601CC4B2082CF1DBBDE8DC
:10099000F08100008E2000082DE9F047814688464E
:1009A00015461E46002D06DB2B2241464846FFF722
:1009B000B9FF2F4605E02D2241464846FFF7B2FF1A
:1009C0006F42002417E0301B411E0A20FFF78FFF03
:1009D000B7FBF0F00A21B0FBF1F201FB120000F1CD
:1009E000300A08EB0400401CC1B252464846FFF7EB
:1009F00099FF601CC4B2B442E5DBBDE8F0872DE985
:100A0000F04107460E461546002407E02A5D3019DE
:100A1000C1B23846FFF786FF601CC4B2285D0028CB
:100A2000F4D1BDE8F08110B50446FFF7DBFE782075
:100A3000FFF7AEFE0020FFF7ABFE2046FFF7A8FE53
:100A4000FFF7EAFE10BD10B50446FFF7CBFE782095
:100A5000FFF79EFE4020FFF79BFE2046FFF798FE23
:100A6000FFF7DAFE10BD000030B589B005460C4630
:100A70000121C80200F080F80121042000F07CF878
:100A800018208DF823004FF41060ADF820000320EB
:100A90008DF8220008A92348FFF79AFC224800F0AD
:100AA0001DFC0020ADF81A00ADF81600681E80B2DB
:100AB000ADF81800601E80B2ADF8140000208DF86B
:100AC0001C0005A9184800F0EDFC01A800F0ADFCE1
:100AD0006020ADF804000020ADF80C000120ADF856
:100AE00006000020ADF80A0001A90F4800F0FCFB49
:100AF00001A90D4800F04EFC08210B4800F040FC15
:100B00000821094800F084FC0121074800F02EFB71
:100B10000121054800F018FB0121034800F032FBD9
:100B200009B030BD00080140002C014010B504465A
:100B30002146024800F083FC10BD0000002C01405B
:100B400010B504462146024800F07BFC10BD0000B1
:100B5000002C01407047000029B1064AD2690243C7
:100B6000044BDA6104E0034AD2698243014BDA6143
:100B7000704700000010024029B1064A9269024302
:100B8000044B9A6104E0034A92698243014B9A61E3
:100B9000704700000010024030B500210022002400
:100BA00000232D4D6D6805F00C0121B1042905D0FD
:100BB000082923D105E0294D056022E0274D056075
:100BC0001FE0254D6D6805F47012234D6D6805F426
:100BD0008034022505EB92421CB9214D5543056036
:100BE0000BE01D4D6D6805F400351DB11C4D5543DE
:100BF000056002E0194D5543056002E0174D0560A0
:100C000000BF00BF144D6D6805F0F0010909154DD6
:100C10006B5C0568DD4045600F4D6D6805F4E06173
:100C2000090A104D6B5C4568DD4085600A4D6D68B2
:100C300005F46051C90A0B4D6B5C4568DD40C56029
:100C4000054D6D6805F44041890B074D6B5CC56827
:100C5000B5FBF3F5056130BD0010024000127A00CB
:100C600000093D00000000201000002010B5082100
:100C70000848FFF781FC0849087010210548FFF774
:100C80007BFC0649087020210248FFF775FC0449E7
:100C9000087010BD000C0140160000201500002057
:100CA000140000207047000000B587B001218803C0
:100CB000FFF762FF01210420FFF75EFF18208DF887
:100CC0001B004FF40070ADF8180003208DF81A00D7
:100CD00006A92148FFF77CFB48208DF81B004FF444
:100CE0008060ADF8180003208DF81A0006A91A4894
:100CF000FFF76EFB4FF4E13002900020ADF81400D6
:100D00000C20ADF812000020ADF81000ADF80E0078
:100D1000ADF80C0002A9114800F0ECFC012240F2F1
:100D200025510E4800F0C0FC4FF4A060FFF7E8FC2E
:100D300025208DF8040001208DF807008DF80500AE
:100D40008DF8060001A8FFF7A3FC0121034800F07D
:100D500068FC07B000BD00000008014000380140F9
:100D600010B504462146054800F035FD00BF80213E
:100D7000024800F062FC0028F9D010BD00380140A4
:100D800010B500F001F810BD0CB5002001900090E6
:100D90003348006840F480303149086000BF304873
:100DA000006800F4003000900198401C0190009809
:100DB00018B90198B0F5A06FF1D12948006800F486
:100DC000003010B10120009001E000200090009858
:100DD000012843D12348006840F0100021490860F1
:100DE0000846006820F0030008600846006840F0EC
:100DF000020008601A48406819494860084640687F
:100E000048600846406840F4806048600846406892
:100E100020F47C1048600846406840F4E8104860C0
:100E20000846006840F08070086000BF0C48006809
:100E300000F000700028F9D00948406820F0030055
:100E4000074948600846406840F00200486000BF1B
:100E50000348406800F00C000828F9D10CBD0000E0
:100E600000100240002002407047000010B51348F7
:100E7000006840F0010011490860084640681049C8
:100E800008400E494860084600680E4908400B4972
:100E900008600846006820F4802008600846406822
:100EA00020F4FE0048604FF41F008860FFF768FFE1
:100EB0004FF000600449086010BD000000100240BF
:100EC0000000FFF8FFFFF6FE08ED00E0F0B50C466D
:100ED000154600220021068C4FF6FE773E40068420
:100EE000028B018C4FF60C7632407E1C06EA03160C
:100EF0002E433243104EB0420ED0104EB0420BD0B3
:100F0000B0F1804F08D00E4EB04205D00D4EB04229
:100F100002D00D4EB04206D14FF6FD76314044F07E
:100F20000106314305E04FF6F576314044F0010605
:100F3000314302830184F0BD002C014000340140A4
:100F40000004004000080040000C0040F0B50C46D2
:100F50001546002200210026078C4FF6EF7C07EA99
:100F60000C070784028B018C4FF6FF7707EA041603
:100F700040F6FF473A404FF6FF7707EA03373A4318
:100F80004FF6FF7707EA05273A43114FB8420ED0D4
:100F9000104FB8420BD0B0F1804F08D00E4FB8427E
:100FA00005D00E4FB84202D00D4FB84206D14FF6D1
:100FB000DF77394046F01007394305E04FF65F7799
:100FC000394044F01007394302830184F0BD00002A
:100FD000002C0140003401400004004000080040A3
:100FE000000C0040F0B50C461546002200210026FA
:100FF000078C4FF6FF6C07EA0C070784828B018C85
:101000004FF6FF7707EA04264FF60C773A404FF683
:10101000FF7707EA03172F433A43114FB8420ED028
:10102000104FB8420BD0B0F1804F08D00E4FB842ED
:1010300005D00E4FB84202D00D4FB84206D14FF640
:10104000FF57394046F48077394305E04FF2FF57A8
:10105000394044F48077394382830184F0BD000035
:10106000002C014000340140000400400008004012
:10107000000C0040F0B50C46154600220021002669
:10108000078C4EF6FF7C07EA0C070784828B018CE5
:101090004FF6FF7707EA043640F6FF473A404FF62F
:1010A000FF7707EA05273A434FF6FF7707EA03374A
:1010B0003A43114FB8420ED0104FB8420BD0B0F1A6
:1010C000804F08D00E4FB84205D00E4FB84202D024
:1010D0000D4FB84206D14DF6FF77394046F48057A0
:1010E000394305E047F6FF57394044F48057394308
:1010F00082830184F0BD0000002C014000340140D7
:101100000004004000080040000C004010B5012120
:101110000A4800F06AF801280FD1FFF7A9F808493A
:101120000880FFF797F8404200B20649088000F0B7
:101130009FFC0121014800F016F810BD000400409A
:101140001A0000201800002021B1028842F080021D
:10115000028004E002884FF67F731A4002807047D5
:10116000CA4302827047CA430282704721B1028893
:1011700042F00102028004E002884FF6FE731A403A
:101180000280704731B1B0F8442042F40042A0F828
:10119000442005E0B0F84420C2F30E02A0F8442039
:1011A0007047F0B50C4615461E460021002200236C
:1011B0000189028B038C4FF6F877394021434FF6B3
:1011C000FC473A4040F201173A434FF6DD773B4087
:1011D0004FF6FF7707EA06172F433B43018102834F
:1011E0000384F0BD0146888C704730B5024600206C
:1011F00000230024158A05EA0103958905EA010404
:1012000013B10CB1012000E0002030BD70B50546DF
:101210000C46244885420ED0234885420BD0B5F1B8
:10122000804F08D02148854205D02148854202D010
:101230002048854200D100E000BF208850B92389B2
:10124000A28861882846FFF741FEE188284600F021
:10125000FDF825E0208804280AD12389A288618826
:101260002846FFF773FEE188284600F0F8F817E0FB
:10127000208808280AD12389A28861882846FFF798
:10128000B1FEE188284600F0F7F809E02389A2883A
:1012900061882846FFF7EEFEE188284600F0F5F861
:1012A00070BD0000002C01400034014000040040EB
:1012B00000080040000C0040002101804180012115
:1012C00081800021C180018170471AB183890B435D
:1012D000838102E083898B438381704701894FF6C4
:1012E000F87211400181704770B50024002200237C
:1012F000058C4FF6FE7635400584028C8388048B7E
:101300004FF68F752C40B51E2C400D882C43751E52
:101310002A400D892A434D882A43144DA8420BD0F8
:10132000134DA84208D0134DA84205D0124DA84233
:1013300002D0124DA84213D14FF6F7752A404D89BD
:101340002A434FF6FB752A408D882A434FF6FF65E6
:101350002B404FF6FF552B408D892B43CD892B43D6
:1013600083800483CD888586028470BD002C014073
:101370000034014000400140004401400048014069
:101380000A460021018B4FF6F77319401143018380
:101390007047000070B5002200230024058C4EF633
:1013A000FF7635400584038C8488828B48F6FF7570
:1013B0002A404FF6FF452A400D884FF6FF7606EA91
:1013C00005252A434DF6FF752B400D8906EA0535A4
:1013D0002B434D8806EA05352B430B4DA84202D01E
:1013E0000A4DA84208D14BF6FF752C408D894FF667
:1013F000FF7606EA85152C4384808283CD88A0F889
:101400004050038470BD0000002C014000340140B6
:101410000A460021818B4FF2FF7319404FF6FF738C
:1014200003EA022319438183704700210180418030
:101430008180C180018141818181C1817047818624
:101440007047A0F84010704781847047028B4FF6B8
:10145000F3731A400283028B0A4302837047028BA4
:101460004FF2FF331A400283028B4FF6FF7303EAF9
:1014700001231A4302837047828B4FF6F3731A409D
:101480008283828B0A4382837047828B4FF2FF33C1
:101490001A408283828B4FF6FF7303EA01231A43BB
:1014A00082837047002202881D4B98420ED01D4B4C
:1014B00098420BD0B0F1804F08D01B4B984205D01A
:1014C0001A4B984202D01A4B984204D14FF68F73B0
:1014D0001A404B881A43174B984207D0164B984234
:1014E00004D04FF6FF431A40CB881A4302808B8802
:1014F00083850B8803850A4B98420BD0094B984291
:1015000008D00E4B984205D00D4B984202D00D4B9F
:10151000984201D10B7A0386012383827047000031
:10152000002C01400034014000040040000800404D
:10153000000C00400010004000140040004001403A
:1015400000440140004801407FB505460C4601219A
:101550000220FFF701FB1C48FFF7C0FE0020ADF89A
:101560000A00ADF80600681E80B2ADF80800601EE3
:1015700080B2ADF8040000208DF80C0001A91248DB
:10158000FFF790FF01211048FFF7EAFD0122114605
:101590000D48FFF79AFE4FF4A060FFF7B1F81D2049
:1015A0008DF8000001208DF8030002208DF8010065
:1015B00001208DF802006846FFF76AF80121024811
:1015C000FFF7D4FD7FBD00000004004010B540F2DD
:1015D0002551094800F03EF801280CD1064800F0DA
:1015E000F5F80649087001200549087040F22551B8
:1015F000014800F007F810BD003801401C00002031
:101600001D00002010B50022002340F66A14A142FC
:1016100000D100BF0A1201249440A3B2DC4304802D
:1016200010BD21B1828942F40052828104E0828996
:101630004DF6FF731A408281704702460020B1F5D3
:10164000007F00D100BF13880B400BB1012000E0E8
:101650000020704770B502460024002300250020BA
:1016600040F66A16B14200D100BFC1F3421501F045
:101670001F03012606FA03F3012D02D19689334098
:1016800006E0022D02D1168A334001E0968A3340EB
:101690000C12012606FA04F41688344013B10CB17A
:1016A000012000E0002070BDF0B5034600240026B4
:1016B0000025002040F66A17B94200D100BF184645
:1016C000C1F3421401F01F06012707FA06F5012CA9
:1016D00001D10C3004E0022C01D1103000E01430B4
:1016E0001AB107682F43076002E00768AF4307603D
:1016F000F0BD00002DE9F04786B005460E460024F7
:10170000A24600BFA1460027B08900B100BF2F4606
:101710002C8A4CF6FF700440F08804432C82AC897C
:101720004EF6F3100440B0883189084371890843AC
:101730000443AC81AC8A4FF6FF400440B0890443B7
:10174000AC8201A8FFF728FA1F48874202D1DDF8D2
:1017500010A001E0DDF80CA0A88900F4004040B121
:101760000AEBCA0000EB0A1031684900B0FBF1F83F
:1017700007E00AEBCA0000EB0A1031688900B0FBF1
:10178000F1F86420B8FBF0F004012009642101FBAA
:101790001089A88900F4004040B1322000EBC90054
:1017A000B0FBF1F000F00700044308E0322000EB4A
:1017B00009106421B0FBF1F000F00F0004432C810C
:1017C00006B0BDE8F0870000003801400146888877
:1017D000C0F308007047C1F308028280704700BF61
:1017E000FEE7000010B50320FFF7BAFAFC20FFF770
:1017F000B7FA1349486800F061FAC4B22046FFF70F
:10180000AFFA0F49086800F059FAC4B22046FFF752
:10181000A7FA0C49486800F051FAC4B22046FFF715
:101820009FFA0849086800F049FAC4B22046FFF759
:1018300097FAFC20FFF794FA0320FFF791FA10BD06
:10184000540000202000002008B501210920FFF7E6
:1018500093F901210848FEF747FE04208DF80300A4
:1018600003208DF802003820ADF8000069460348D7
:10187000FEF7AEFD08BD000000023000000C014084
:1018800008B5FEF7DDFF4FF4E151C820FFF75CFE1D
:10189000FEF7DAFC07214FF47A70FFF7E5F8FEF760
:1018A0009BFEFEF77DFEFFF7CFFF00204FF07F533A
:1018B000164A01460090164800F00CF900204FF03F
:1018C0007F53124A01460090124800F003F9FFF7D7
:1018D000EBF911A201210846FFF791F811A20121AD
:1018E0000220FFF78CF80FE004231148B0F9002024
:1018F0000A210120FFF750F804230E48B0F9002018
:101900000A210220FFF748F8EEE7000000004040FF
:1019100054000020200000204C6566744E756D3A1E
:101920000000000052696768744E756D3A0000004F
:10193000180000201A00002070B505460C46002D46
:1019400007DBFEF75FFE284600F0D8F90D49086076
:1019500006E0FEF765FE684200F0D0F9094908602C
:10196000002C07DBFEF770FE204600F0C7F90649A1
:10197000086006E0FEF776FE604200F0BFF902491B
:10198000086070BD20000020540000202DE9F041C7
:101990000446D4E9000100F005FBA060206B01289B
:1019A0002DD1D4E9020100F0FDFA0546616900F08D
:1019B000F1F92062A168A06900F0ECF9A0624FF093
:1019C0008040E16800F0E6F90746A16800F0DFFA20
:1019D0000646216900F0E8F80546E16900F0DAF909
:1019E0006062A16A206A00F0DFF80646616A00F0D2
:1019F000DBF80546E16A00F0D7F8E06221E0206BF1
:101A0000F8B9A168606900F0C5F92062A168A06911
:101A100000F0C0F90546A16A00F0C6F8A062D4E95A
:101A2000020100F0BFFA0546E16900F0B3F9606217
:101A3000A16A206A00F0B8F80546616A00F0B4F8BF
:101A4000E062E1682161A168E1600849E06A00F0B4
:101A50006DFA01D80548E0620021E06A00F066F9FD
:101A600001D80020E062BDE8F081000000007A4467
:101A700010B500F043F81348B0F9000000F03EF94B
:101A8000114948601148B0F9000000F037F91049D9
:101A900048600D48FFF77AFF0D48FFF777FF0A49C6
:101AA000C86A00F0EFF804B22046FEF7C7FD084907
:101AB000C86A00F0E7F804B22046FEF7E1FDFFF740
:101AC00091FE10BD18000020200000201A00002008
:101AD000540000202DE9F04104460D4617461E46ED
:101AE000DDF8188025636761A661C4F81C800021B9
:101AF0000846FFF721FFBDE8F081000010B5FFF7B1
:101B0000B5F82648007858B925480078012807D14B
:101B10002448007820B93C210846FFF70DFF3CE03F
:101B20001E48007801280BD11D480078012807D1F4
:101B30001C48007820B93C212D20FFF7FDFE2CE049
:101B40001648007801280AD11548007838B9154898
:101B5000007820B93C211E20FFF7EEFE1DE00F4863
:101B6000007860B90E480078012808D10D48007847
:101B7000012804D12D213C20FFF7DEFE0DE00748AF
:101B8000007850B90648007838B90648007801282E
:101B900003D11E213C20FFF7CFFE10BD1400002012
:101BA000150000201600002090EA010F48BF81F0C8
:101BB000004100F1FE81421A3CBF801A89184FEAA9
:101BC000D0524FF07F4C1CEA410FA2EBD15318BF0B
:101BD0009CEA026F00F03B804FF0004C4CEA002082
:101BE0004CEA012121FA03FC10EB0C0C1ED202F18D
:101BF000FF325FEA1C2040EBC25038BF70471CF038
:101C00007F0F4FEA400C18BFBCF17F4F38BF7047C1
:101C1000C3F12003994008BF20F00100BCF17F4FC1
:101C200038BF7047A0F1C04000F07BB94FEA3C00DC
:101C3000000A40EBC25028BF1CF0FF0F4FEA400CD7
:101C4000E6D018BFBCF17F4F38BF7047EAE79CEA87
:101C5000026F05D010EA5C0F08BF00F0004070472B
:101C600010B500F018F900BF64FBBE3E401058BF2D
:101C7000C0F14040491058BFC1F140418142EFF3EB
:101C80000080704741000B0ED3F19E0208D950F43A
:101C900000034FEA032323FA02F048BF4042704793
:101CA00010B500F0F8F800BF49922480002070477A
:101CB0006FF0004282EA200070470000C10DD1F1B0
:101CC0009E0206DB4FEA002343F0004323FA02F0B2
:101CD0007047004207D54FEA4001B1F1FE4F02D2F2
:101CE0004FF00000704710B500F0D5F849922480FD
:101CF000002070476FEA20007047000010F000419C
:101D000048BF4042B0FA80F310FA03F2C3F19D03DA
:101D10000BD051EAC35101EB1220530638BF704774
:101D200000F1010008BF20F00100704750EA010CEB
:101D300000F113801CF5000F58BFBCF5000F01D453
:101D40008842704707D710F5000F58BF11F5000FF4
:101D500015D488427047894270471CF5000F04D59E
:101D6000BCF5000FF7D5814270474FF0807C1CEB2B
:101D7000400F38BF1CEB410F01D28142704710B5B4
:101D800000F089F8922449004FF000504FF0805144
:101D9000FFF76CBF4FF47F0C1CEAD0121EBF1CEA89
:101DA000D11392EA0C0F93EA0C0F00F0478090EAEF
:101DB000010F48BF42F480724FF0004C4CEA002003
:101DC0004CEA012102EB0302A0FB0113A2F5000281
:101DD000002918BF43F001035B0028BF4FEA33031B
:101DE00042EB22425FEA132C4CEBC2502EBFBCEBFD
:101DF000436FB2F57C0F70474FEA036CBCF1004FA4
:101E000008BF20F00100B2F57C0F38BF70470BD53A
:101E100082F0FF0212F5803FC8BF704700F1C0405A
:101E2000D8BF00F00040704700F5000C5FEA4C0C92
:101E300048BF7047B0F1C04000F073B890EA010F9E
:101E40000CEAD11348BF42F48072624538BF634543
:101E500004D280EA010000F00040704710B500F0A5
:101E60001AF800BF8900013E00F007B800F009B879
:101E70005FEA410C5FEA1C6C08D080EA010000F0C8
:101E800050B85FEA400C5FEA1C6CF6D14FF000409E
:101E9000A0F5800070470EF1020E2EF0030E5EF8E2
:101EA000044B244204D44FEA4102B2F17F4F11D8CF
:101EB0004FEA4003B3F17F4F0CD80ED14FEAD07CEC
:101EC000B2F17F4F0CEB4C0C0CF1020C08BF4CEB49
:101ED000D17C04E04FF0080C01E04FEAD17C0CEB20
:101EE0004C0324FA03F404F00704B4F1040C06D202
:101EF0000EEB840CBDE810404CF0010C6047DFE8AD
:101F00000CF0070802024FF00040A0F5800010BD61
:101F10000846420018BFD2F1807288BF00F000402E
:101F200010BDFF2141EAD050C005704751EA000CB6
:101F300000F113801CF5000F58BFBCF5000F01D451
:101F40008142704707D711F5000F58BF10F5000FF9
:101F500015D481427047894270471CF5000F04D5A3
:101F6000BCF5000FF7D5884270474FF0807C1CEB22
:101F7000410F38BF1CEB400F01D28842704780EA06
:101F8000010081EA000180EA0100FFF7F8BE80F05D
:101F9000004090EA010F7FF50EAE81F0004100F0A5
:101FA00008B8000090EA010F48BF81F000413FF5FA
:101FB00002AE421A04D882F00042A0EB02001144A3
:101FC0004FEAD0524FF07F4C1CEA410FA2EBD153A5
:101FD00018BF9CEA026F4AD04FF0004C4CEA002038
:101FE0004CEA012121FA03FCB0EB0C0C0FD412F0E7
:101FF000FE0F36D05FEA4C001DD5001240EBC250F8
:1020000038BF70471CF03F0F18BF70470BE0A2F1BC
:1020100001025FEA1C2040EBC25038BF70471CF041
:102020007F0F18BF7047C3F12003994014BF401EB3
:1020300020F00100704780084FEA122308BF704764
:10204000B0FA80FCA2EB0C02CCF1280C60FA0CF088
:1020500093EA122F04BF00EBC25070474FEAC370DF
:102060007047130A5FEADC1008BF7047F6E79CEA86
:10207000026F04D010EA5C0F08BF0020704710B553
:10208000FFF709FF40DFF63E81F000407047000097
:102090000000000000000000000000000000000040
:1020A00000F80000000000000033300000000010C5
:1020B0000C06100C0600000000000000000040C0EC
:1020C0007840C0784000043F04043F0404000070DE
:1020D00088FC08300000001820FF211E0000F008D6
:1020E000F000E018000000211C031E211E0000F07B
:1020F0000888700000001E212324192721101016C3
:102100000E000000000000000000000000000000C1
:1021100000E0180402000000000718204000000240
:102120000418E000000000402018070000004040B4
:1021300080F0804040000202010F01020200000016
:1021400000F0000000000101011F0101010000007A
:1021500000000000000080B07000000000000000DF
:102160000000000000000001010101010101000068
:1021700000000000000000303000000000000000FF
:10218000000080601804006018060100000000E0F4
:1021900010080810E000000F102020100F000010A1
:1021A00010F8000000000020203F202000000070F8
:1021B00008080888700000302824222130000030F0
:1021C0000888884830000018202020110E000000E8
:1021D000C02010F8000000070424243F240000F869
:1021E0000888880808000019212020110E0000E04E
:1021F000108888180000000F112020110E000038F0
:102200000808C83808000000003F00000000007007
:10221000880808887000001C222121221C0000E090
:1022200010080810E0000000312222110F00000009
:1022300000C0C000000000000030300000000000BE
:10224000008000000000000080600000000000002E
:1022500080402010080000010204081020004040C7
:10226000404040404000040404040404040000080A
:1022700010204080000000201008040201000070BF
:1022800048080808F0000000003036010000C030A7
:10229000C828E810E0000718272423140B000000CA
:1022A000C038E0000000203C23020227382008F854
:1022B000888888700000203F202020110E00C03048
:1022C000080808083800071820202010080008F81F
:1022D00008080810E000203F202020100F0008F818
:1022E0008888E8081000203F20202320180008F8E4
:1022F0008888E8081000203F200003000000C0305C
:1023000008080838000007182020221E020008F8DC
:1023100008000008F808203F210101213F200008A3
:1023200008F8080800000020203F202000000000DE
:102330000808F8080800C08080807F00000008F8C6
:1023400088C028180800203F20012638200008F8FF
:10235000080000000000203F20202020300008F866
:10236000F800F8F80800203F003F003F200008F880
:1023700030C00008F808203F200007183F00E01098
:1023800008080810E0000F10202020100F0008F8A7
:1023900008080808F000203F210101010000E010BA
:1023A00008080810E0000F18242438504F0008F8DF
:1023B000888888887000203F2000030C302000703F
:1023C0008808080838000038202121221C0018083D
:1023D00008F8080818000000203F2000000008F856
:1023E00008000008F808001F202020201F0008789F
:1023F000880000C83808000007380E010000F808FF
:1024000000F80008F800033C0700073C0300081828
:1024100068808068180820302C03032C302008388E
:10242000C800C83808000000203F20000000100845
:102430000808C8380800203826212020180000008D
:1024400000FE020202000000007F40404000000C3D
:1024500030C000000000000000010638C00000028B
:102460000202FE000000004040407F00000000002B
:10247000040202020400000000000000000000004E
:10248000000000000000808080808080808000024A
:102490000204000000000000000000000000000036
:1024A0008080808000000019242222223F2008F82A
:1024B000008080000000003F112020110E0000006D
:1024C000008080800000000E1120202011000000FC
:1024D00000808088F800000E112020103F200000AE
:1024E000808080800000001F2222222213000080B2
:1024F00080F0888888180020203F202000000000FD
:10250000808080808000006B94949493600008F831
:10251000008080800000203F210000203F200080BC
:102520009898000000000020203F202000000000BC
:1025300000809898000000C08080807F000008F82C
:10254000000080808000203F24022D302000000801
:1025500008F8000000000020203F202000008080BC
:10256000808080808000203F20003F20003F8080CE
:10257000008080800000203F210000203F200000DC
:10258000808080800000001F202020201F0080808D
:1025900000808000000080FFA12020110E000000BC
:1025A000008080808000000E112020A0FF808080AD
:1025B00080008080800020203F212000010000005A
:1025C000808080808000003324242424190000802F
:1025D00080E0808000000000001F2020000080803C
:1025E000000000808000001F202020103F208080FD
:1025F00080000080808000010E300806010080808D
:102600000080008080800F300C030C300F000080B1
:102610008000808080000020312E0E3120008080DC
:1026200080000080808080818E701806010000800C
:102630008080808080000021302C2221300000002A
:102640000000807C020200000000003F40400000CB
:102650000000FF00000000000000FF00000000027A
:10266000027C800000000040403F000000000006A7
:10267000010102020404000000000000000000004C
:10268000A02600080000002020000000280100080B
:10269000C026000820000020C806000044010008F1
:1026A00000000000010203040102030406070809F8
:1026B0000204060800000000000000000000000006
:04000005080000ED02
:00000001FF
