:020000040800F2
:10000000C04D0020FD020008E1020008E3020008E4
:10001000E7020008EB020008EF0200080000000001
:10002000000000000000000000000000F3020008D3
:10003000F502000800000000F7020008F9020008BD
:100040001703000817030008170300081703000828
:100050001703000817030008170300081703000818
:100060001703000817030008170300081703000808
:1000700017030008170300081703000817030008F8
:1000800017030008170300081703000817030008E8
:1000900017030008170300081703000817030008D8
:1000A000170300082D310008170300081703000884
:1000B000C731000881320008170300081703000841
:1000C00017030008170300081703000817030008A8
:1000D00017030008372D00086B2E000817030008CF
:1000E000170300081703000817030008DFF80CD0F7
:1000F00004F00AF800480047A9290008C04D002074
:100100000CB50020019000906C48006840F48030ED
:100110006A49086000BF6948006800F40030009038
:100120000198401C0190009818B90198B0F5A06F93
:10013000F1D16248006800F4003010B10120009055
:1001400001E0002000900098012843D15C4800683D
:1001500040F010005A4908600846006820F003008B
:1001600008600846006840F0020008605348406894
:10017000524948600846406848600846406840F474
:10018000806048600846406820F47C10486008465B
:10019000406840F4E81048600846006840F080700D
:1001A000086000BF4548006800F000700028F9D0E2
:1001B0004248406820F003004049486008464068D3
:1001C00040F00200486000BF3C48406800F00C006E
:1001D0000828F9D10CBD10B5FFF792FF10BD10B57E
:1001E0003648006840F0010034490860084640681D
:1001F000344908403149486008460068324908409F
:100200002E4908600846006820F4802008600846EF
:10021000406820F4FE0048604FF41F008860FFF73C
:10022000DAFF4FF000602949086010BD10B50021C9
:1002300000200022214B5B6803F00C0121B104294E
:1002400006D0082928D107E0214B224C236027E063
:100250001F4B204C236023E0184B5B6803F47010A5
:10026000164B5B6803F48032022303EB904022B903
:10027000194B4343174C23600DE0104B5B6803F4AC
:10028000003323B1144B4343124C236003E0104B63
:100290004343104C236003E00D4B0E4C236000BF22
:1002A00000BF064B5B68C3F303130C4CE15C094BC6
:1002B0001B68CB40074C236010BD000000100240BB
:1002C000002002400000FFF0FFFFF6FE08ED00E016
:1002D00000127A000000002000093D000400002008
:1002E000704700BFFEE700BFFEE700BFFEE700BFAC
:1002F000FEE7704770477047704700000648804728
:1003000006480047FEE7FEE7FEE7FEE7FEE7FEE7FA
:10031000FEE7FEE7FEE7FEE7DF010008ED0000086C
:1003200031490143314A1160704770B50021002303
:100330000F22C47804B32D4C246804F4E064C4F59F
:10034000E064210AC1F10403CA40447804FA03F1CD
:100350008478144021430901254C0678A15504787E
:1003600004F01F050124AC4005786D11AD0005F1C6
:10037000E025C5F8004109E0047804F01F050124D8
:10038000AC401C4D0678761145F8264070BD1A4ADF
:100390000A400243154B1B1F1A60704739B1134ABC
:1003A000121D12680243114B1B1D1A6006E00F4A12
:1003B000121D126882430D4B1B1D1A6070470428E2
:1003C00008D14FF0E021096941F004014FF0E0222B
:1003D000116107E04FF0E021096921F004014FF0BD
:1003E000E0221161704700000000FA050CED00E00A
:1003F00000E400E080E100E080FFFF1F10B504464C
:10040000CC48844208D10121042000F02DFB0021BA
:10041000042000F029FB46E0C748844208D10121AE
:10042000082000F021FB0021082000F01DFB3AE02D
:10043000C248844208D10121102000F015FB0021A0
:10044000102000F011FB2EE0BD48844208D10121AC
:10045000202000F009FB0021202000F005FB22E015
:10046000B848844208D10121402000F0FDFA002163
:10047000402000F0F9FA16E0B348844208D1012187
:10048000802000F0F1FA0021802000F0EDFA0AE06F
:10049000AE48844207D10121801500F0E5FA002121
:1004A000A01500F0E1FA10BD10B50121084600F0DA
:1004B000DBFA0021012000F0D7FA10BD2DE9F04150
:1004C000024600250026002000230024002791F882
:1004D00003C00CF00F0591F803C00CF0100CBCF138
:1004E000000F03D091F802C04CEA050591F800C056
:1004F000BCF1000F31D0146800202BE04FF0010C4C
:100500000CFA00F3B1F800C00CEA03069E4220D1B9
:1005100083004FF00F0C0CFA03F7BC4305FA03FC01
:100520004CEA040491F803C0BCF1280F06D14FF047
:10053000010C0CFA00FCC2F814C00AE091F803C0E8
:10054000BCF1480F05D14FF0010C0CFA00FCC2F8C9
:1005500010C0401C0828D1D31460B1F800C0BCF111
:10056000FF0F34DD546800202EE000F1080C4FF03E
:10057000010808FA0CF3B1F800C00CEA03069E4229
:1005800021D183004FF00F0C0CFA03F7BC4305FA9E
:1005900003FC4CEA040491F803C0BCF1280F05D118
:1005A00000F1080C08FA0CF8C2F8148091F803C0A6
:1005B000BCF1480F07D100F1080C4FF0010808FA10
:1005C0000CF8C2F81080401C0828CED35460BDE857
:1005D000F0814FF6FF710180022181700421C1700A
:1005E00070470246002093680B400BB1012000E0E9
:1005F000002070470146886880B27047024600209C
:10060000D3680B400BB1012000E000207047014689
:10061000C86880B2704701617047416170470AB194
:10062000016100E041617047C16070474FF4803262
:100630000A438261816182618269826970470246F0
:100640000020434B18684FF68073184040EA0210B0
:1006500008433F4B186070473E49C8617047F0B58A
:100660000A46002300240021002500F00046B6F1D0
:10067000004F02D1364EF16901E0354E7168C0F38A
:10068000034583B200F44016B6F5401F08D121F0AF
:1006900070612F4E766826F070662D4F7E6012E0F6
:1006A00000F48016B6F5801F06D1032606FA05F47D
:1006B000A14341F0706106E0460D360103FA06F6EB
:1006C000B14341F0706122B1460D360103FA06F6DE
:1006D000314300F00046B6F1004F02D11C4EF161EB
:1006E00001E01B4E7160F0BD30B500228B071C0F7E
:1006F0000F2303FA04F2164B08338C1053F82430FE
:100700009343134C08348D1044F8253023468C1045
:1007100053F824308C07240F00FA04F423430C4CC4
:1007200008348D1044F8253030BD0A49DC310860AA
:100730007047000000080140000C0140001001401B
:100740000014014000180140001C0140002001403D
:100750000000014000002042DF48006840F0010036
:10076000DD49086008464068DC490840DA494860CD
:1007700008460068DA490840D7490860084600681A
:1007800020F4802008600846406820F4FE0048609D
:100790004FF41F0088607047CF49096821F4803109
:1007A000CD4A11601146096821F480211160B0F52D
:1007B000803F03D0B0F5802F0ED106E0C64909680E
:1007C00041F48031C44A116007E0C349096841F42B
:1007D000A021C14A116000E000BF00BF704710B502
:1007E00001460022002300204A11012A02D1BA4CFE
:1007F000236806E0022A02D1B74C236A01E0B64C16
:10080000636A01F01F02012494401C400CB10120D6
:1008100000E0002010BD38B5002000900024002525
:1008200000BF3120FFF7DBFF05460098401C009019
:100830000098B0F5A06F01D0002DF2D03120FFF765
:10084000CEFF08B1012400E00024204638BD014657
:100850000020A14A106820F0F80040EAC1001060B2
:100860007047A04908607047024600209A4B5868BC
:1008700020F47C1042EA01031843974B58607047FC
:1008800098490866704701460020934A506820F056
:1008900003000843506070478F48406800F00C0028
:1008A0007047014600208C4A506820F0F000084351
:1008B0005060704701460020874A506820F4E0608D
:1008C00008435060704701460020834A506820F476
:1008D000605040EAC1005060704729B17E4A527AA8
:1008E00002437D4B5A7204E07B4A527A82437A4B30
:1008F0005A7270477B49D831086070470146002022
:10090000754A506820F44040084350607047002109
:10091000714A20321170704A82F82010012802D0EA
:1009200004280AD104E001216B4A2032117005E04D
:100930000521694A2032117000E000BF00BF7047F6
:100940006949086070476449096A0143624A116253
:100950007047654944390860704730B5002100226E
:10096000002400235C4D6D6805F00C0121B10429C1
:1009700005D0082923D105E05C4D056022E05B4DE0
:1009800005601FE0544D6D6805F47012524D6D689E
:1009900005F48034022505EB92421CB9544D5543B1
:1009A00005600BE04C4D6D6805F400351DB1504DF0
:1009B0005543056002E04D4D5543056002E04B4D47
:1009C000056000BF00BF444D6D6805F0F0010909E6
:1009D000484D6B5C0568DD4045603F4D6D6805F432
:1009E000E061090A434D6B5C4568DD4085603A4D26
:1009F0006D6805F46051C90A3E4D6B5C4568DD4089
:100A0000C560354D6D6805F44041890B3A4D6B5C0E
:100A1000C568B5FBF3F5056130BD29B12E4A5269B1
:100A200002432D4B5A6104E02B4A526982432A4B00
:100A30005A61704729B1284A92690243264B9A614C
:100A400004E0254A92698243234B9A61704729B199
:100A5000214AD2690243204BDA6104E01E4AD2697E
:100A600082431D4BDA61704729B11B4AD2680243A9
:100A7000194BDA6004E0184AD2688243164BDA60F8
:100A8000704729B1144A12690243134B1A6104E0FA
:100A9000114A12698243104B1A617047124940395A
:100AA000086070470F49C86470470B49C8717047A8
:100AB0000948406A40F08070074948627047014623
:100AC0000020054A92680A400AB1012000E0002097
:100AD0007047014988727047001002400000FFF81B
:100AE000FFFFF6FE000042428004424200127A00FC
:100AF00000093D00140000202400002010B5044629
:100B0000FB48844209D101218803FFF7ADFF002192
:100B10004FF48040FFF7A8FF32E0F648844209D145
:100B200001214804FFF7ADFF00214FF40030FFF72B
:100B3000A8FF25E0F048844209D101218804FFF78D
:100B4000A0FF00214FF48020FFF79BFF18E0EB4847
:100B5000844209D10121C804FFF793FF00214FF41B
:100B60000020FFF78EFF0BE0E548844208D1012109
:100B70000805FFF786FF00214FF48010FFF781FF83
:100B800010BD2DE9F04786B005460E460024A2466A
:100B900000BFA1460027B08900B100BF2F462C8AB4
:100BA0004CF6FF700440F08804432C82AC894EF66A
:100BB000F3100440B0883189084371890843044325
:100BC000AC81AC8A4FF6FF400440B0890443AC824C
:100BD00001A8FFF7C2FEC648874202D1DDF810A087
:100BE00001E0DDF80CA0A88900F4004040B10AEB58
:100BF000CA0000EB0A1031684900B0FBF1F807E0C9
:100C00000AEBCA0000EB0A1031688900B0FBF1F86A
:100C10006420B8FBF0F004012009642101FB108975
:100C2000A88900F4004040B1322000EBC900B0FBBD
:100C3000F1F000F00700044308E0322000EB091057
:100C40006421B0FBF1F000F00F0004432C8106B0EA
:100C5000BDE8F0874FF41651016000218180C1800A
:100C600001810C21418100218181704710B502462C
:100C70000020108A4FF2FF0318400B884C88234352
:100C80008C882343CC8823431843108210BD002155
:100C9000018041808180C180704721B1828942F406
:100CA0000052828104E082894DF6FF731A408281EE
:100CB0007047F0B50346002400260025002040F6CA
:100CC0006A17B94200D100BF1846C1F3421401F0BF
:100CD0001F06012707FA06F5012C01D10C3004E0AC
:100CE000022C01D1103000E014301AB107682F43F4
:100CF000076002E00768AF430760F0BD1AB1838A5E
:100D00000B43838202E0838A8B4383827047028A8B
:100D10004FF6F0731A400282028A0A430282704739
:100D200082894FF2FF731A40828182890A4382814D
:100D3000704721B1828942F00202828104E08289F7
:100D40004FF6FD731A4082817047028A4FF6DF73B7
:100D50001A400282028A0A430282704721B1028A43
:100D600042F48042028204E0028A4BF6FF731A408A
:100D700002827047C1F3080282807047014688886A
:100D8000C0F308007047818941F0010181817047FB
:100D9000028BD2B20283028B42EA012202837047A5
:100DA000028B02F47F420283028B0A430283704764
:100DB00021B1828A42F02002828204E0828A4FF6C8
:100DC000DF731A408282704721B1828A42F010029A
:100DD000828204E0828A4FF6EF731A408282704763
:100DE00021B1828A42F00802828204E0828A4FF6B0
:100DF000F7731A408282704721B1828942F400421F
:100E0000828103E08289C2F30E028281704721B1A0
:100E1000828A42F40062828204E0828A4FF2FF7387
:100E20001A4082827047828A4FF6FB731A40828290
:100E3000828A0A438282704721B1828A42F002028A
:100E4000828204E0828A4FF6FD731A4082827047E4
:100E500002460020B1F5007F00D100BF13880B408F
:100E60000BB1012000E00020704701F40072B2F5E0
:100E7000007F00D100BFCA430280704770B50246B0
:100E8000002400230025002040F66A16B14200D15C
:100E900000BFC1F3421501F01F03012606FA03F358
:100EA000012D02D19689334006E0022D02D1168A27
:100EB000334001E0968A33400C12012606FA04F40E
:100EC0001688344013B10CB1012000E0002070BD41
:100ED00010B50022002340F66A14A14200D100BFE1
:100EE0000A1201249440A3B2DC43048010BD000028
:100EF000003801400044004000480040004C0040E1
:100F00000050004010B50446FA48844208D101213F
:100F10004015FFF7A9FD00216015FFF7A5FD17E0BB
:100F2000F548844208D101210015FFF79DFD0021FD
:100F30002015FFF799FD0BE0F048844208D101210C
:100F4000C803FFF791FD00214FF40040FFF78CFD2F
:100F500010BD30B50246002000235068E84C204008
:100F60000D790C6844EA0524204350609068E54CF4
:100F70002040D1E902542C434D7944EA45042043F2
:100F80009060D06A20F470000C7C641EE4B22343AD
:100F900040EA0350D06230BD00210160017141710F
:100FA0008160C16001210174704721B1826842F003
:100FB0000102826003E0826822F0010282607047D1
:100FC00021B1826842F48072826003E0826822F478
:100FD00080728260704710B50023CBB21AB14468AA
:100FE0001C43446002E044689C43446010BD816837
:100FF00041F0080181607047014600208A6802F0D4
:1010000008020AB1012000E000207047816841F029
:10101000040181607047014600208A6802F00402E2
:101020000AB1012000E00020704721B1826842F43B
:10103000A002826003E0826822F4A002826070470E
:10104000014600208A6802F480020AB1012000E013
:101050000020704710B50A4600210023416821F4A2
:101060006041531E41EA4331416010BD21B14268E5
:1010700042F40062426003E0426822F4006242608F
:101080007047F0B504460D4600200021092D11DD02
:10109000E068A5F10A0606EB4607072606FA07F1FF
:1010A0008843A5F10A0606EB460603FA06F1084353
:1010B000E0600CE0206905EB4507072606FA07F11A
:1010C000884305EB450603FA06F108432061072A29
:1010D0000FDA606B561E06EB86071F2606FA07F12D
:1010E0008843561E06EB860605FA06F10843606340
:1010F00022E00D2A0FDA206BD61F06EB86071F268B
:1011000006FA07F18843D61F06EB860605FA06F1B4
:101110000843206310E0E06AA2F10D0606EB8607A3
:101120001F2606FA07F18843A2F10D0606EB860694
:1011300005FA06F10843E062F0BD21B1826842F48D
:101140008012826003E0826822F48012826070471D
:101150000146C86C80B2704766484C3000687047E2
:1011600021B1426842F48062426003E0426822F4A6
:1011700080624260704721B1426842F4805242600E
:1011800003E0426822F48052426070470A46002120
:10119000816821F4E04111438160704721B1826888
:1011A00042F40042826003E0826822F400428260DE
:1011B000704721B1826842F40212826003E08268C3
:1011C00022F4021282607047014600208A6802F40D
:1011D00000120AB1012000E000207047F0B504467B
:1011E0001546002000220026092911DDE068A1F142
:1011F0000A0707EB470C072707FA0CF29043A1F107
:101200000A0707EB470703FA07F21043E0600CE018
:10121000206901EB410C072707FA0CF2904301EB20
:10122000410703FA07F210432061A06BC0F3015697
:10123000EF1C06F1010CA7EB0C0707EB870C1F272F
:1012400007FA0CF29043EF1C06F1010CA7EB0C0718
:1012500007EB870701FA07F21043A063F0BD10B552
:101260000A4600210023816B21F44011531E41EAFC
:101270000351816310BD08B5002300930090009BCB
:101280000B440093009B1A6008BD08B5024600207D
:101290000090009201F12800009B184400900098F3
:1012A000006880B208BD0A4600214168164B19400B
:1012B0001143416070474162826270470A460021D3
:1012C000416821F01F0111434160704740B1094955
:1012D0000831096841F40001064A0832116007E04C
:1012E00004490831096821F40001024A08321160FA
:1012F000704700000024014000280140003C0140EC
:10130000FFFEF0FFFDF7F1FFFFFD3FFF024600206B
:1013100013680B400BB1012000E000207047CA4366
:101320000260704770B502460020002300240B12B3
:101330005568CEB205EA060415681D4015B10CB11A
:10134000012000E0002070BD00220A12D343036098
:101350007047000001684FF6FE72114001600021E5
:10136000016041608160C1608D49884208D18C492B
:101370000839496841F00F01894A083A51608AE00A
:1013800087491431884208D185490839496841F0B4
:10139000F001834A083A51607DE081492831884252
:1013A00008D17F490839496841F470617C4A083A9C
:1013B000516070E07A493C31884208D17849083957
:1013C000496841F47041764A083A516063E07449D3
:1013D0005031884208D172490839496841F4702176
:1013E0006F4A083A516056E06D496431884208D12D
:1013F0006B490839496841F47001694A083A5160FB
:1014000049E067497831884208D165490839496817
:1014100041F07061624A083A51603CE0614988429B
:1014200006D1011F096841F00F01021F116032E06F
:101430005C491431884208D15A49091F096841F0B2
:10144000F001584A121F116025E0564928318842A0
:1014500008D15449091F096841F47061514A121FAB
:10146000116018E04F493C31884208D14D49091FAD
:10147000096841F470414B4A121F11600BE0494961
:101480005031884207D14749091F096841F470214A
:10149000444A121F1160704710B50022026847F6D7
:1014A000F0739A430C6A8B6823430C6923434C699D
:1014B00023438C692343CC6923434C6A23438C6ABE
:1014C00023431A430260CB6843600B6883604B6818
:1014D000C36010BD0021016041608160C160016195
:1014E00041618161C161016241628162704721B1E4
:1014F000026842F00102026004E002684FF6FE73E7
:101500001A40026070471AB103680B43036002E09F
:1015100003688B4303607047416070470146486829
:1015200080B2704701460020002201F080531BB1B9
:101530001C4B083B1A6802E0194B083B1A6802EA88
:1015400001030BB1012000E00020704700F0805142
:1015500019B11449091F086002E0114908394860AF
:10156000704701460020002201F080531BB10D4B53
:10157000083B1A6802E00A4B083B1A6802EA0103BA
:101580000BB1012000E00020704700F0805119B13C
:101590000449091F086002E00149083948607047A2
:1015A000080002400804024010B50446FE48844288
:1015B00008D10121C014FFF757FA0021E014FFF70A
:1015C00053FAC4E0B4F1804F08D101210846FFF777
:1015D00058FA00210120FFF754FAB8E0F34884429A
:1015E00008D101210220FFF74CFA00210220FFF769
:1015F00048FAACE0EE48844208D101210420FFF70C
:1016000040FA00210420FFF73CFAA0E0E9488442B8
:1016100008D101210820FFF734FA00210820FFF744
:1016200030FA94E0E448844208D101211020FFF709
:1016300028FA00211020FFF724FA88E0DF488442CE
:1016400008D101212020FFF71CFA00212020FFF7FC
:1016500018FA7CE0DA48844208D101214014FFF7EF
:1016600003FA00216014FFF7FFF970E0D5488442C7
:1016700009D10121C804FFF7F7F900214FF4002038
:10168000FFF7F2F963E0D048844209D1012108054F
:10169000FFF7EAF900214FF48010FFF7E5F956E073
:1016A000CA48844209D101214805FFF7DDF900212C
:1016B0004FF40010FFF7D8F949E0C548844208D13B
:1016C00001214020FFF7DDF900214020FFF7D9F983
:1016D0003DE0C048844208D101218020FFF7D1F9C4
:1016E00000218020FFF7CDF931E0BB48844208D1CA
:1016F00001218015FFF7C5F90021A015FFF7C1F9F9
:1017000025E0B648844209D101210804FFF7ACF96D
:1017100000214FF48030FFF7A7F918E0B048844269
:1017200009D101214804FFF79FF900214FF400304F
:10173000FFF79AF90BE0AB48844208D101218804F5
:10174000FFF792F900214FF48020FFF78DF910BDCB
:1017500000220288944B98420ED0994B98420BD0AD
:10176000B0F1804F08D0914B984205D0904B9842F1
:1017700002D0904B984204D14FF68F731A404B8899
:101780001A438D4B984207D08C4B984204D04FF6A9
:10179000FF431A40CB881A4302808B8883850B88CD
:1017A0000385814B98420BD0854B984208D08B4BD8
:1017B000984205D08A4B984202D08A4B984201D178
:1017C0000B7A038601238382704770B500240022C0
:1017D0000023058C4FF6FE7635400584028C838805
:1017E000048B4FF68F752C40B51E2C400D882C4372
:1017F000751E2A400D892A434D882A436A4DA84206
:101800000BD06F4DA84208D0744DA84205D0744D3E
:10181000A84202D0734DA84213D14FF6F7752A4063
:101820004D892A434FF6FB752A408D882A434FF68F
:10183000FF652B404FF6FF552B408D892B43CD89FB
:101840002B4383800483CD888586028470BD70B568
:10185000002400220023058C4FF6EF7635400584E6
:10186000028C8388048B48F6FF752C404FF6FF45A9
:101870002C400D884FF6FF7606EA05252C434FF6DF
:10188000DF752A400D8906EA05152A434D8806EAC8
:1018900005152A43444DA84202D0494DA8421DD106
:1018A0004FF67F752A404D894FF6FF7606EA0515FB
:1018B0002A434FF6BF752A408D8806EA05152A434C
:1018C0004FF6FF352B404FF2FF752B408D8906EA0E
:1018D00085052B43CD8906EA85052B438380048348
:1018E000CD880587028470BD70B5002400220023D6
:1018F000058C4FF6FF6635400584028C8388848B07
:101900004FF68F752C404FF6FC752C400D882C43FC
:101910004FF6FF552A400D894FF6FF7606EA05255A
:101920002A434D8806EA05252A431F4DA84202D0C6
:10193000234DA8421DD14FF2FF752A404D894FF625
:10194000FF7606EA05252A434FF6FF352A408D88A3
:1019500006EA05252A434EF6FF752B404DF6FF7526
:101960002B408D8906EA05152B43CD8906EA05151E
:101970002B4383808483CD888587028470BD70B5B6
:10198000002200230024058C4EF6FF7635400584A6
:10199000038C8488828B48F6FF752A404FF6FF45FA
:1019A0002A400D8820E00000002C01400004004087
:1019B00000080040000C00400010004000140040EF
:1019C00000340140004C01400050014000540140EF
:1019D00000180040001C0040002000400040014072
:1019E00000440140004801404FF6FF7606EA052515
:1019F0002A434DF6FF752B400D8906EA05352B432A
:101A00004D8806EA05352B43FA4DA84202D0FA4D1F
:101A1000A84208D14BF6FF752C408D894FF6FF7612
:101A200006EA85152C4384808283CD88A0F8405037
:101A3000038470BD828B4FF2FF331A408283828B06
:101A40004FF6FF7303EA01231A4382837047F0B510
:101A50000C461546002200210026078C4EF6FF7C1E
:101A600007EA0C070784828B018C4FF6FF7707EAA1
:101A7000043640F6FF473A404FF6FF7707EA05275E
:101A80003A434FF6FF7707EA03373A43D94FB84254
:101A90000ED0D94FB8420BD0B0F1804F08D0D74FFD
:101AA000B84205D0D64FB84202D0D64FB84206D180
:101AB0004DF6FF77394046F48057394305E047F645
:101AC000FF57394044F48057394382830184F0BD85
:101AD000828B4FF6F3731A408283828B0A43828390
:101AE0007047F0B50C461546002200210026078CF1
:101AF0004FF6FF6C07EA0C070784828B018C4FF6C8
:101B0000FF7707EA04264FF60C773A404FF6FF7747
:101B100007EA03172F433A43B64FB8420ED0B64FE9
:101B2000B8420BD0B0F1804F08D0B44FB84205D0C6
:101B3000B34FB84202D0B34FB84206D14FF6FF5769
:101B4000394046F48077394305E04FF2FF5739407A
:101B500044F48077394382830184F0BD028B4FF2D5
:101B6000FF331A400283028B4FF6FF7303EA01230F
:101B70001A4302837047F0B50C4615460022002137
:101B80000026078C4FF6EF7C07EA0C070784028BD0
:101B9000018C4FF6FF7707EA041640F6FF473A40FC
:101BA0004FF6FF7707EA03373A434FF6FF7707EA26
:101BB00005273A438F4FB8420ED08F4FB8420BD013
:101BC000B0F1804F08D08D4FB84205D08C4FB8424D
:101BD00002D08C4FB84206D14FF6DF77394046F03D
:101BE0001007394305E04FF65F77394044F010079E
:101BF000394302830184F0BD028B4FF6F3731A4020
:101C00000283028B0A4302837047F0B50C461546E7
:101C100000220021068C4FF6FE773E400684028BA0
:101C2000018C4FF60C7632407E1C06EA03162E43DA
:101C30003243704EB0420ED06F4EB0420BD0B0F176
:101C4000804F08D06D4EB04205D06D4EB04202D0EC
:101C50006C4EB04206D14FF6FD76314044F001069D
:101C6000314305E04FF6F576314044F0010631434B
:101C700002830184F0BD70B505460C465D4885427F
:101C80000ED05D4885420BD0B5F1804F08D05B483F
:101C9000854205D05A48854202D05A48854200D133
:101CA00000E000BF208850B92389A28861882846B7
:101CB000FFF7ABFFE1882846FFF79EFF25E020886D
:101CC00004280AD12389A28861882846FFF753FF98
:101CD000E1882846FFF742FF17E0208808280AD14C
:101CE0002389A28861882846FFF7FBFEE188284601
:101CF000FFF7EEFE09E02389A28861882846FFF7F6
:101D0000A6FEE1882846FFF795FE70BD2DE9F0415B
:101D100005460C4600260127608808B9022600E027
:101D20000026A088012801D1022700E00127208891
:101D3000A0B92389A28861882846FFF766FFE18859
:101D40002846FFF759FF23893A4631462846FFF7D0
:101D500012FFE1882846FFF701FF13E02389A288DC
:101D600061882846FFF707FFE1882846FFF7F6FE5F
:101D700023893A4631462846FFF747FFE18828463F
:101D8000FFF73AFFBDE8F0810A884B881A438B8839
:101D90001A43CB881A430B891A434B891A438B8900
:101DA0001A43A0F8442070474FF6FF71818000214C
:101DB0000180C18041800172704700210180418013
:101DC0008180C180018141818181C1817047002171
:101DD00001804180012181800021C1800181704703
:101DE0000021018041808180C18001814181818108
:101DF00070470000002C0140003401400004004006
:101E000000080040000C004021B1028842F00102AD
:101E1000028004E002884FF6FE731A400280704789
:101E200031B1B0F8442042F40042A0F8442005E06B
:101E3000B0F84420C2F30E02A0F8442070471AB153
:101E400083890B43838102E083898B4383817047BD
:101E50008182704741EA0203A0F8483070471AB106
:101E600083890B43838102E083898B43838170479D
:101E700001894FF6F8721140018170470A4600212E
:101E800001894FF68F73194011430181704730B5B6
:101E900004460D4629462046FFF7F0FF208940F012
:101EA0000700208130BD2DE9F04104460D4616465D
:101EB0001F46602D06D13B46012231462046FFF7E2
:101EC0005AFE05E03B46012231462046FFF79DFEC3
:101ED00029462046FFF7D2FF208940F007002081E5
:101EE000BDE8F08130B50C4600210189C9B24FF63A
:101EF000FF7505EA0325154325432943018130BDBC
:101F00002DE9F04105460E46174698460024434603
:101F10003A4631462846FFF7E5FF2C894FF6F87020
:101F2000044044F007044FF68F70044044F07004FE
:101F30002C81BDE8F081F0B504460D4616461F46DB
:101F40003B46324629462046FFF7CCFF208940F425
:101F500080402081F0BD0185828270470A460021C1
:101F600001884FF68F731940114301807047F0B517
:101F70000C4615461E460021002200230189028BD3
:101F8000038C4FF6F877394021434FF6FC473A402F
:101F900040F201173A434FF6DD773B404FF6FF77AB
:101FA00007EA06172F433B43018102830384F0BDF8
:101FB0000A460021018B4FF68F73194011430183AC
:101FC00070470A460021018B48F6FF7319404FF60F
:101FD000FF7303EA02231943018370470A46002175
:101FE000818B4FF68F7319401143818370470A46E6
:101FF0000021818B48F6FF7319404FF6FF7303EA07
:10200000022319438183704721B1028842F0800284
:10201000028004E002884FF67F731A400280704706
:1020200021B1828842F00402828004E082884FF667
:10203000FB731A408280704721B1828842F0080207
:10204000828004E082884FF6F7731A4082807047DE
:1020500021B1828842F00102828004E082884FF63A
:10206000FE731A40828070470A460021018B4FF6AA
:10207000F77319401143018370470A460021018B11
:102080004FF2FF7319404FF6FF7303EA022319431F
:10209000018370470A460021818B4FF6F773194080
:1020A0001143818370470A460021818B4FF2FF73F1
:1020B00019404FF6FF7303EA0223194381837047E7
:1020C0000A460021018B4FF6FB731940114301832F
:1020D00070470A460021018B4FF6FF3319404FF637
:1020E000FF7303EA02231943018370470A46002164
:1020F000818B4FF6FB7319401143818370470A4669
:102100000021818B4FF6FF3319404FF6FF7303EA2E
:1021100002231943818370470A460021018B4FF641
:102120007F7319401143018370470A460021018BD8
:10213000C1F30E014FF6FF7303EA02231943018333
:1021400070470A460021818B4FF67F731940114377
:10215000818370470A460021818BC1F30E014FF63F
:10216000FF7303EA02231943818370470A46002163
:10217000018C4FF6FD7319401143018470470A46E4
:102180000021018C4FF6F773194011430184704709
:102190000A460021018C4FF6DF7319404FF6FF739A
:1021A00003EA02131943018470470A460021018C97
:1021B0004FF67F7319404FF6FF7303EA021319437A
:1021C000018470470A460021018C4FF6FF531940E5
:1021D0004FF6FF7303EA02231943018470470A464E
:1021E0000021018C4FF2FF7319404FF6FF7303EA91
:1021F00002231943018470470A460021018C4DF6E1
:10220000FF7319404FF6FF7303EA02331943018449
:10221000704730B5002301248C40A3B2048C9C434A
:102220000484048C02FA01F5ADB22C43048430BD61
:1022300030B5002304248C40A3B2048C9C43048456
:10224000048C02FA01F5ADB22C43048430BD70B5A4
:102250000346002000241846183001258D40ACB2FA
:102260001D8CA5431D8409B1082909D100EB61002B
:10227000056825F0700505600568154305600EE0EA
:102280000D1FC5F34E052844056825F4E04505609B
:1022900005684FF6FF7606EA02263543056070BDF5
:1022A00021B1028842F00202028004E002884FF667
:1022B000FD731A400280704721B1028842F0040287
:1022C000028004E002884FF6FB731A4002807047D8
:1022D00021B1828842F08002828004E082884FF639
:1022E0007F731A408280704702884FF6F7731A4056
:1022F000028002880A430280704782884FF68F73FB
:102300001A40828082880A438280704702894FF691
:10231000F8731A40028102890A43028170470289D8
:102320004FF67F731A40028102890A430281704787
:102330008184704781857047818670470187704727
:1023400081877047A0F84010704702884FF6FF431E
:102350001A40028002880A43028070470146888E34
:1023600070470146088F70470146888F70470146C5
:10237000B1F8400070470146888C70470146088DCF
:10238000704702460020138A0B400BB1012000E089
:1023900000207047CA430282704730B502460020D1
:1023A00000230024158A05EA0103958905EA010442
:1023B00013B10CB1012000E0002030BDCA430282FD
:1023C0007047000010B5FD480178FDA2FE4800F0FE
:1023D0008CFD60B9FDA001F0C9FE4FF434713220CC
:1023E00000F066FF01221146FD48FFF728FDF34883
:1023F0000178FCA2F44800F078FD60B9FBA001F080
:10240000B5FE4FF43471642000F052FF01221146F2
:10241000F348FFF714FDE9480178F9A2EA4800F013
:1024200064FD60B9F8A001F0A1FE4FF43471C8203A
:1024300000F03EFF01221146E948FFF700FD10BD04
:1024400070B50825F44909684868A02101F03DFDF0
:10245000002420E0AA21F0480068426805FB04F04F
:102460001154FF21EC480068426805FB04F0401C51
:102470001154F121E8480068426805FB04F0801C13
:1024800011540221E4480068426805FB04F0C01CB6
:102490001154601C84B2642CDCDB002070BD012070
:1024A00080F3138800BF00BFDC48006800F4E060E0
:1024B000DB490843001DD9490860BFF34F8F00BFB7
:1024C00000BFFEE72DE9F84F4FF000080027D5A028
:1024D00001F04CFE002001F09CF881464946D4A052
:1024E00001F044FED7A001F041FE4FF4E15140F667
:1024F000B83000F08DFE0020D6490870D64908702B
:1025000001E001F0E9FAD448007818B9D148007820
:102510000A28F6DBD0480078D0B101F027FB064648
:102520001EB1CEA001F022FE02E0D0A001F01EFEFE
:10253000D2A001F01BFE0121D348FFF765FC032068
:1025400000F06DFB0021D048FFF75EFCFFF7A7FF0E
:10255000CEA001F00BFE0020D24908604FF4E1202C
:1025600000F026FCAC480068CF494268CF4800F034
:10257000E9FE012000F017FF01228021CA48001F58
:10258000FEF7BCFB0020CA490870FFF759FF012085
:10259000C849C1F89801C3491C3108604FF4E151A2
:1025A00042F2107000F034FEC3A001F0DFFD012004
:1025B00000F035FB0020C3490870C3490870A549E5
:1025C0000870012211469007FFF739FC012000F046
:1025D00036FFD0E100F0F7FCBA48007818B10020CF
:1025E000B8490870C8E19B4800780A2846D1002005
:1025F00098490870B549888801F005FD8346B349BC
:10260000488801F000FD5946009001F0BEFC82466A
:10261000AF4901F088FC814601F0FAFC4FF6FF71EA
:1026200001EA4000AB49088008460188AAA001F0F1
:102630009DFDA548007870B9A6480088B0F5486FA0
:102640001CDA0120A04908704FF4E1514FF4FA6000
:1026500000F0DEFD12E09C48007801280ED19D4874
:10266000008840F65431884208DA02209649087002
:102670004FF4E1514FF47A7000F0CAFD9A48008897
:1026800018B38B48007800BB00209749088097A0BA
:1026900001F06CFD002406E04B48015D97A001F0BD
:1026A00065FD601C84B2454800888442F4DB5FA06D
:1026B00001F05CFDFFF786FE00F0F5FB012240F221
:1026C00025517948001FFEF7F4FA53480068007B53
:1026D00001281DD17648007858B901207449087046
:1026E00000204D4909680873A021704800F051FE90
:1026F00041E149480068006900780128F8D10020CC
:1027000045490968096908707DA001F02FFD32E193
:1027100041490968086901F050F900284CD00024AB
:1027200011E1AA203C4909684968002202EBC40271
:102730008854FF20384909684968012202EBC40225
:102740008854F120344909684968022202EBC40226
:1027500088540220304909684968032202EBC40208
:1027600088542D480068006980692B490968096907
:10277000496850F82100401C10F8140026490968E7
:102780004968042202EBC4028854234800680069A7
:102790008069214909680969496850F8210010F8E1
:1027A00014001D4909684968052202EBC4028854D7
:1027B0000027B8460025B3E0DDE000003600002029
:1027C00041542B323030300077010020D0DEB8C4C5
:1027D000B2C9D1F9C2CA323030300D0A000000004F
:1027E0000008004041542B3130303000D0DEB8C4F6
:1027F000B2C9D1F9C2CA313030300D0A0000000030
:1028000041542B3035303000D0DEB8C4B2C9D1F9D4
:10281000C2CA3530300D0A00300000200CED00E057
:102820000000FA05C0B6D1C0B7A2CBCD0D0A00009A
:10283000C4DAB4E6B5B1C7B0D5BCD3C32025640DA6
:102840000A000000C0B6D1C0C9E8D6C3BCECB2E2F1
:102850000D0A00004400002070000020C0B6D1C066
:10286000C9E8D6C3CAA7B0DC0D0A0000C0B6D1C003
:10287000C9E8D6C3B3C9B9A60D0A0000CFB5CDB318
:10288000D6D8C6F40D0A000000040040BFAAC6F462
:10289000C0B6D1C0B4AEBFDABCB0444D41D6D0B69C
:1028A000CF0D0A0080812142044400408000024094
:1028B0004600002000802142B7A2CBCDCAFDBEDD7C
:1028C0000D0A00003E000020570000204E000020AE
:1028D00000009644540000204241545F564F4C2063
:1028E0002564206D562000003A000020B4AEBFDA07
:1028F000CAFDBEDDBDD3CAD53A0000002578200050
:102900006620000069480068406805EBC401405C2F
:102910003844C7B208EB070000F0FF08681C85B216
:10292000062DEFDB614800684068062101EBC40119
:1029300047545E4800684068072101EBC40100F875
:102940000180601C84B2142CFFF6EBAE01205749C5
:10295000096808735548006800694068401C53497D
:1029600009680969C968B0FBF1F201FB12004F491F
:102970000968096948602DE600BF00220121880727
:10298000FFF75DFA002201214948FFF758FA47494D
:102990000968086901F01EF8002000F004FD00201D
:1029A00044490870BDE8F88F012043490870FDF7DD
:1029B00016FC00F0D3F8642000F00DF9002000F0C0
:1029C0000DFE00F067FD00F0EDFA01F05FF84FF446
:1029D000E12000F061F939A001F0C8FB39A001F055
:1029E000C5FB0020434908604349C1F89C014FF4EE
:1029F0007A7000F0F0F801203E4908603E49C1F8C5
:102A00009C014FF4E15147F2305000F055FB4FF478
:102A1000E1510A2000F09EFB4FF4E15142F21070A8
:102A200000F0F6FB4FF43471322000F041FC33A08B
:102A300001F09CFB00F04EFD0321354800F0D4FC72
:102A400034A001F093FB1421002000F089FE174907
:102A500008602821642000F09DFE1449096808617F
:102A6000A021002000F07CFE1049096848600F4852
:102A7000006838B10D480068006918B10B4800685B
:102A8000406818B929A001F071FB02E02DA001F007
:102A90006DFB002000F0BDFD04462146AFF2702022
:102AA00001F064FB01E0FFF70DFDFCE730000020C2
:102AB000000800404600002028000020BFAABBFA02
:102AC0000D0A000053544D333246313033433854ED
:102AD00036B5A5CDA8B5C0D0C4D2F4B2C9BCAF201C
:102AE000202056302E3120323032332D312D3330EC
:102AF0000D0A00009881214200802142444D41206E
:102B000041444320B3F5CABCBBAF0D0A000000002E
:102B10004E000020444D412041444320B3F5CABC3F
:102B2000BBAFCDEAB3C90D0A00000000B4AEBFDAF6
:102B3000BBBAB4E62CC4DAB4E6C9EAC7EBCAA7B09C
:102B4000DC0D0A00B4AEBFDABBBAB4E62CC4DAB40A
:102B5000E6C9EAC7EBB3C9B9A60D0A0010B56FF014
:102B60000400FDF72CFC484800684849B0FBF1F030
:102B7000474908700846007800EB4001C1EBC010DF
:102B80004FF6FF7101EAC0004249088010BD0146BE
:102B90003F4A12784A434FF0E0235A6100229A617B
:102BA0001A46126942F001021A6100BF4FF0E0229A
:102BB000106900F001021AB100F48032002AF5D049
:102BC0004FF0E022126922F001024FF0E0231A6177
:102BD00000229A61704701462E4A12884A434FF0FC
:102BE000E0235A6100229A611A46126942F00102FA
:102BF0001A6100BF4FF0E022106900F001021AB123
:102C000000F48032002AF5D04FF0E022126922F061
:102C100001024FF0E0231A6100229A61704710B55B
:102C20000446642104FB01F0FFF7D5FF642104FB97
:102C300001F0FFF7D0FF642104FB01F0FFF7CBFFA9
:102C4000642104FB01F0FFF7C6FF642104FB01F0DF
:102C5000FFF7C1FF642104FB01F0FFF7BCFF642113
:102C600004FB01F0FFF7B7FF642104FB01F0FFF75D
:102C7000B2FF642104FB01F0FFF7ADFF642104FB08
:102C800001F0FFF7A8FF10BD0000002000127A003D
:102C90002A0000202C00002010B586B00446012137
:102CA00044F20500FDF7C6FE4FF40070ADF81400C5
:102CB00003208DF8160018208DF8170005A9B148DB
:102CC000FDF7FCFB4FF48060ADF8140004208DF894
:102CD000170005A9AB48FDF7F1FB4FF4A060FDF725
:102CE0001FFB25208DF8000001208DF801008DF8D4
:102CF00002008DF803006846FDF717FB01940020E1
:102D0000ADF80800ADF80A00ADF80C00ADF8100001
:102D10000C20ADF80E0001A99B48FDF732FF002200
:102D200040F225519848FDF7C4FF01219648FDF770
:102D3000B4FF06B010BD10B540F225519248FEF721
:102D40009DF810B39048FEF719F8C4B28F48008878
:102D500000F40040C8B98D48008800F4804060B19C
:102D60000A2C03D000208949088020E08748008889
:102D700040F400408549088019E00D2C06D18348B5
:102D8000008840F480408149088010E07F48008836
:102D9000C0F30D007E490C547C480088401C7B49E0
:102DA000088008460088FE2801DD0020088010BD4C
:102DB00010B586B0044601210520FDF73BFE012138
:102DC0004804FDF744FE0120ADF8140028208DF8DA
:102DD000170005A96B48FDF771FB0420ADF814003E
:102DE00003208DF8160018208DF8170005A96548F6
:102DF000FDF764FB0820ADF8140004208DF81700DF
:102E000005A96048FDF75AFB4FF4A060FDF788FA6A
:102E100026208DF8000000208DF8010001208DF89B
:102E200002008DF803006846FDF77FFA0194002048
:102E3000ADF80800ADF80A00ADF80C004FF40070D2
:102E4000ADF810000C20ADF80E0001A95148FDF7B7
:102E500098FE012240F225514E48FDF72AFF01213C
:102E60004C48FDF71AFF06B010BD10B540F22551D1
:102E70004848FEF703F8A8B10020474908804548B4
:102E8000FDF77CFFC4B2454845490988445444488D
:102E90000088401C4249088008460088FF2801D16C
:102EA0000020088010BD10B5FF213C4801F00DF84E
:102EB00000203B49088010BD2DE9F04107460D4632
:102EC0001646002400BF0CE000BF40213846FDF745
:102ED000BFFF0128F9D1295D3846FDF74BFF601C83
:102EE000C4B2B442F0DBBDE8F0812DE9F041044604
:102EF0000E4617463946204600F0F2FF054645B11A
:102F0000281B00F0FF08B04503DA281B00B2BDE81B
:102F1000F0814FF0FF30FAE72DE9F04104460E460C
:102F200017463946204600F0EDFF054645B1281BFF
:102F300000F0FF08B04503DA281B00B2BDE8F081BD
:102F40004FF0FF30FAE770B504460D460E48008892
:102F5000E1B20D48FDF70EFF00BF40210A48FDF722
:102F600077FF0028F9D0204670BD00BF06480088D2
:102F700000F020000028F9D00348001D0088C0F3AD
:102F8000080070470008014000380140340000206C
:102F90007800002000440040380000207701002025
:102FA0003600002008B501210420FDF743FD4FF451
:102FB0008070ADF8000048208DF80300694636485F
:102FC000FDF77CFA08BD10B534480068A8BB34484A
:102FD000007800F00100C0B13248008842F2107160
:102FE000884257DB2F48008847F23051884206DB81
:102FF00002202D49087000202C4908604AE0012079
:10300000294908702949086044E0012125482438ED
:10301000FEF7FAFE00212648FEF7F6FE00202149C1
:103020000880224908601E48007840F001001C49D1
:10303000087000201C4908702CE0FFE71848007851
:1030400000F0010030B31648007820F00100144968
:103050000870002113482438FEF7D6FE01211448D9
:10306000FEF7D2FE0120114908600F4800780128C0
:1030700006D100200C49087001200E49087009E0B3
:1030800009480078022805D100200749087002206D
:103090000849087010BD00000008014020012142CD
:1030A0003D000020242C01403C0000209C81214256
:1030B000000400403E0000207FB505460C4601217B
:1030C000C802FDF7B7FC681E80B2ADF80800601EAC
:1030D00080B2ADF804000020ADF80A00ADF806009B
:1030E0008DF80C0001A98E48FEF732FB4FF4A0606A
:1030F000FDF716F919208DF8000002208DF8010067
:103100008DF8020001208DF803006846FDF70DF9E7
:1031100041218348FFF752F9012241218048FEF7FF
:103120008EFE00217E48FEF76FFE7FBD10B50121A7
:103130007B48FFF732F960B101217948FFF73EF98A
:1031400000217748FEF760FE47F230507449243181
:10315000088010BD7FB505460C4601210846FDF7E5
:1031600076FC681E80B2ADF80800601E80B2ADF833
:1031700004000020ADF80A00ADF8060001A94FF0E8
:103180008040FEF7E5FA4FF4A060FDF7C9F81C2077
:103190008DF8000002208DF801008DF8020001205A
:1031A0008DF803006846FDF7C0F801218807FFF796
:1031B00005F9002201218807FEF741FE0121880759
:1031C000FEF722FE7FBD10B501218807FFF7E5F865
:1031D000E8B154480088B0B953480088401C5249AF
:1031E00008800846008814280DDB002008804F481E
:1031F000008840B101204B490880002240F225514F
:103200004B48FDF756FD01218807FFF7D7F810BDA1
:103210007FB505460C4601210220FDF718FC681E0B
:1032200080B2ADF80800601E80B2ADF80400002046
:10323000ADF80A00ADF8060001A93E48FEF788FA8D
:103240004FF4A060FDF76CF81D208DF800000220FF
:103250008DF801008DF8020001208DF8030068460A
:10326000FDF763F801213348FFF7A8F80122114662
:103270003048FEF7E4FD01212E48FEF7C5FD7FBD75
:1032800010B501212B48FFF788F880B12A48007853
:10329000401C294908702948006808B9012000E04D
:1032A00000202649086001212248FFF787F810BD59
:1032B00030B587B004460D4601210420FDF7C7FB59
:1032C000601E80B2ADF81400681E80B2ADF8100028
:1032D0000020ADF81600ADF8120004A91848FEF75A
:1032E00037FA6020ADF800000120ADF8020020465A
:1032F00004EBD071C1F34F01ADF806100220ADF818
:10330000080069460E48FEF73AFB01210C48FEF71B
:103310007BFD01210A48FEF783FD07B030BD0000A8
:10332000002C01403A000020380000203600002028
:1033300000440040000400404400002098812142E5
:103340000008004070B58CB006460C4615460121B9
:103350000846FDF762FB01210220FDF75EFB3046C7
:10336000FDF7F8FF019402951020039000200590CE
:103370008020069000200790089009904FF480501C
:103380000A9000200B9001A93046FEF785F80CB09A
:1033900070BD026822F0010202604160026842F0E2
:1033A00001020260704738B504464FF4A060FCF794
:1033B000B7FF11208DF8000001208DF801008DF875
:1033C00002008DF803006846FCF7AFFF012C05D121
:1033D000012202212D48FEF796F804E00022022186
:1033E0002A48FEF790F838BD30B58BB005460C463C
:1033F00001210846FDF711FB24487838FDF7AAFFA4
:1034000023480090019500200290039404908020AE
:103410000590400006908000079020200890000250
:10342000099000200A90694618487838FEF734F869
:10343000012116487838FEF75AF80BB030BD38B580
:1034400004464FF4A060FCF76BFF0B208DF80000E2
:1034500001208DF801008DF802008DF80300684608
:10346000FCF763FF0220FEF790F8012C06D1012241
:10347000022106487838FEF746F805E000220221CE
:1034800002487838FEF73FF838BD0000800002405F
:103490004C24014008B501210820FDF7CBFAC020DB
:1034A000ADF8000010208DF8030002208DF8020016
:1034B00069460548FDF702F80120044908600449FF
:1034C000C1F89C0108BD0000000C01409881214218
:1034D0000080214200B587B001214FF40370FDF751
:1034E000A9FA01210846FDF7A5FA4FF40040FDF7BF
:1034F00005FA8020ADF8180000208DF81B0006A901
:103500002E48FCF7DBFF0220ADF8180000208DF8F4
:103510001B0006A92A48FCF7D1FF2A48FDF7F2FC58
:103520000020019001208DF8080000208DF809008E
:103530004FF4202003900020049003208DF8140005
:1035400001A92048FDF705FD0723012219461D4862
:10355000FDF797FD0723022209211A48FDF791FD87
:103560000723032211211748FDF78BFD0121154880
:10357000FDF726FD01211348FDF717FD1148FDF762
:1035800036FD00BF0F48FDF737FD0028FAD10D4882
:10359000FDF73CFD00BF0B48FDF73DFD0028FAD1CB
:1035A00001210848FDF741FD01210648FDF7C5FD51
:1035B0000120FDF78BFE07B000BD000000080140B0
:1035C000000C01400024014030B5034601E003F83F
:1035D000011B141EA2F10102F9D130BD10B5044641
:1035E000684951F824104A00674951F82400002125
:1035F000FFF7EAFF654951F824206349091F51F894
:1036000024000021FFF7E0FF01215F48001D015564
:1036100010BD10B501460023002207E05A4850F8BB
:10362000210030F8120000B15B1C521C554850F8C4
:1036300021009042F2D864205843524C54F8214063
:10364000B0FBF4F0C0B210BD2DE9F04704460F46C0
:103650000025A9464C48001D005D20B94A480C3899
:103660000168204688471FB94FF0FF30BDE8F0875A
:10367000474850F82400B7FBF0F6454850F82400BE
:10368000B7FBF0F100FB117000B1761C3D4850F81B
:103690002400451E20E03C4850F8240030F8150076
:1036A00010B909F1010901E04FF00009B14512D14B
:1036B0004FF0000808E0344850F8240005EB0802F9
:1036C00020F8126008F10108B045F4D3304850F8F2
:1036D00024006843CAE76D1E002DDCDA4FF0FF308E
:1036E000C4E72DE9F04104460E462748001D005D61
:1036F00038B925480C380168204688470120BDE8C4
:10370000F081224850F82400B04217D9204850F8E0
:103710002400B6FBF0F11C4850F8240030F81120CA
:10372000002507E00023184850F824004F1920F81E
:1037300017306D1C9542F5DB0020E0E70220DEE744
:1037400070B505460C4604B970BD0F48001F50F80F
:103750002500261A31462846FFF7C3FF00BFF3E7CE
:1037600070B504460E4631462046FFF76DFF05460C
:10377000681C08B9002070BD0348001F50F82400E1
:103780002844F8E76C4400086800002074440008EE
:10379000704400082DE9F04106460F464FF000083E
:1037A00007B116B90020BDE8F0811C210020FFF709
:1037B000D7FF04460CB90020F5E700206070A08216
:1037C000A06060602761E6602070E06881000020F2
:1037D000FFF7C6FFA061A06928B921460020FFF7C6
:1037E000AFFF0020DFE7002514E000202169FFF78C
:1037F000B7FFA16941F82500A06950F8250010B96C
:103800004FF0010809E0A16951F82500394600F0A0
:103810005CFB6D1CE068A842E7D800BFB8F1000F60
:1038200013D006E0A06950F825100020FFF788FFAC
:103830006D1E002DF6D10020A169FFF781FF214602
:103840000020FFF77DFF0020ADE72046ABE770B515
:1038500004460CB9012070BD002507E0A06950F8AE
:1038600025100020FFF76CFF681C85B2E068A842B5
:10387000F4D80020A169FFF763FF21460020FFF77D
:103880005FFF0020E7E710B5024612B94FF0FF30A6
:1038900010BD9068401CD368B0FBF3F403FB140028
:1038A0005368984207D15068401CD368B0FBF3F4CA
:1038B00003FB140050609368906950F82300017076
:1038C0000120E5E72DE9F04104460F4615461E4666
:1038D0001CB94FF0FF30BDE8F081A068401CE168E2
:1038E000B0FBF1F201FB12006168884201D10020B7
:1038F000F1E7A268A16951F8221048193246394609
:1039000000F0CAFAA068401CE168B0FBF1F201FBCC
:103910001200A0600120DEE770B504460D46164691
:1039200014B94FF0FF3070BDA068401CE168B0FBD7
:10393000F1F201FB1200616888420AD16068401C04
:10394000E168B0FBF1F201FB120060600120207021
:1039500001E000202070A268A16951F822003246DF
:10396000294600F099FAA068401CE168B0FBF1F22A
:1039700001FB1200A0600120D5E770B504460D469A
:10398000164614B94FF0FF3070BDD4E901018842EA
:1039900001D10020F8E76268A06950F82210324691
:1039A000284600F079FA6068401CE168B0FBF1F24B
:1039B00001FB120060600120E6E7014611B94FF0FB
:1039C000FF307047D1E90102904201D10020F8E7B1
:1039D0000120F6E770B5044614B94FF0FF3070BD12
:1039E0000020A082A06060602070002507E0A2692E
:1039F00052F82500216900F068FA681C85B2E06879
:103A0000A842F4D80120EAE72DE9F04104460F4628
:103A100015461E461CB94FF0FF30BDE8F081A06886
:103A2000401CE168B0FBF1F201FB120061688842C2
:103A30000AD16068401CE168B0FBF1F201FB1200A2
:103A400060600120207001E000202070A268A16960
:103A500051F82210A28A02FB05102A46394600F0CE
:103A60001BFAA08A401CA082A08AB0420BD1002081
:103A7000A082A068401CE168B0FBF1F201FB1200DB
:103A8000A0600120C9E70020C7E7000008B50121B8
:103A90000C20FCF7CFFF1020ADF800008DF80300DC
:103AA00002208DF802006946AC48FCF707FD0120B2
:103AB000ADF8000010208DF8030002208DF8020000
:103AC0006946A748FCF7FAFC0120A64908600020D7
:103AD000A549C1F8900108BD10B50024A3480068AD
:103AE00000BB00209F491C31086013E00A20FFF74B
:103AF00072F8601C84B2B4F5967F0BDD0120994901
:103B00001C3108609A49087000BF98480068002876
:103B1000FBD010BD954800680028E7D001209149EE
:103B20001C31086000BFF4E72DE9F04104460D4662
:103B30001646FFF7B8F9204600F0EEF900F0FF084E
:103B4000424621468B48FFF7B7F93046FFF743F866
:103B500089498AA000F00AFB8C4801782A468648E9
:103B6000FFF7C3F907463846BDE8F08110B50124D8
:103B700001207E4970310860FFF751F80020844928
:103B8000C1F880010120FFF74AF800207749703121
:103B900008600120FFF743F84FF41640FFF708F9DB
:103BA000012240F225517348FDF783F879A000F017
:103BB000DDFA4FF4FA7279A179A0FFF7B5FF00287A
:103BC00000DAB0E067481C30006808B9012000E066
:103BD000002064491C31086073A000F0C7FA74A08B
:103BE00000F0C4FA4FF4FA726CA174A0FFF79CFFC6
:103BF000002800DA97E05B481C30006808B9012013
:103C000000E0002057491C31086067A000F0AEFAC0
:103C10006EA000F0ABFA4FF4FA7260A16EA0FFF74D
:103C200083FF002800DA7EE04E481C30006808B9A7
:103C3000012000E000204B491C3108605AA000F030
:103C400095FA68A000F092FA4FF4FA7253A169A0B5
:103C5000FFF76AFF002800DA65E042481C30006880
:103C600008B9012000E000203E491C3108604EA048
:103C700000F07CFA62A000F079FA4FF4FA7247A1E2
:103C800062A0FFF751FF002800DA4CE035481C30F5
:103C9000006808B9012000E0002032491C310860AA
:103CA00041A000F063FA5FA000F060FA4FF4FA72EE
:103CB0003AA160A0FFF738FF002800DA33E0294876
:103CC0001C30006808B9012000E0002025491C31A3
:103CD000086035A000F04AFA5AA000F047FA4FF405
:103CE000FA722EA15AA0FFF71FFF002800DA1AE08F
:103CF0001C481C30006808B9012000E00020194968
:103D00001C31086028A000F031FA56A000F02EFA0D
:103D10004FF4FA7221A155A0FFF706FF002800DA40
:103D200001E0002400BF002240F225511148FCF7B9
:103D3000C0FF01200B491C3108601549C1F8800102
:103D40001CB94DA000F012FA02E04FA000F00EFAEC
:103D5000012004490860204610BD00000008014011
:103D6000000C0140808121420000214220012142BB
:103D700070000020004400407701002048433035A7
:103D8000207273703A2573200D0A0000360000205F
:103D9000008021424154B2E2CAD420004F4B0000BF
:103DA00041540D0A00000000B3C9B9A60D0A000075
:103DB000C9E8D6C3C0B6D1C0C3FB200041542B4EC6
:103DC000414D453D484330350D0A0000D6F7B4D388
:103DD000C9E8D6C32000000041542B524F4C453D4A
:103DE000300D0A00C7E5B3FDBCC7C2BCB5C4B5D829
:103DF000D6B7200041542B524D4141440D0A0000DA
:103E0000C9E8D6C3B2A8CCD8C2CA200041542B55A9
:103E10004152543D3436303830302C302C300D0A7D
:103E200000000000C9E8D6C3C1ACBDD3B7BDCABD50
:103E30002000000041542B434D4F44453D310D0AB5
:103E400000000000C9E8D6C3C3DCC2EB20000000BC
:103E500041542B505357443D2231323334220D0A02
:103E600000000000B8B4CEBB2000000041542B522B
:103E7000455345540D0A0000C0B6D1C0C9E8D6C3A9
:103E8000B3C9B9A60D0A0000C0B6D1C0C9E8D6C3EF
:103E9000CAA7B0DC0D0A000040EA01039B0703D06B
:103EA00009E008C9121F08C0042AFAD203E011F879
:103EB000013B00F8013B521EF9D27047D2B201E03B
:103EC00000F8012B491EFBD270470022F6E710B51F
:103ED00013460A4604461946FFF7F0FF204610BD78
:103EE00030B505462A460B4612F8010B13F8014B74
:103EF00008B1A042F8D01CB1002802D06D1CF1E737
:103F0000284630BDCAB2401E10F8011F8A4202D0B6
:103F10000029F9D100207047421C10F8011B00292C
:103F2000FBD1801A704780EA010210B502F000430D
:103F3000400022D04A001FD0010E01EB1261C0F3F5
:103F40005600C2F3560240F4000042F40002A0FB07
:103F5000022000047F39140400D0401C50EA1240B3
:103F600001D44000491EC2B20C0604EBD010401C24
:103F70004008802A02D003E0002010BD20F001009C
:103F8000002900DA0020184310BD30B480EA010295
:103F900002F0004530F0004221F0004013D090B113
:103FA000C30DD40DC2F31601C0F31600E41A41F498
:103FB000000140F400027D34914201D3641C00E012
:103FC0004900002C02DA30BC002070474FF400009A
:103FD0000023914201D3891A034340084FEA41016B
:103FE000F7D151B1914202D14FF0004105E002D228
:103FF0004FF0010101E06FF0010103EBC4502844D0
:1040000030BC00F04AB896230022114600F04EB8AA
:1040100020F00040C10DC0F3160040F400007F29DD
:1040200001DA00207047962903DCC1F19601C840EF
:1040300070479639884070472DE9F05F05460020AB
:1040400092469B4688460646814640241BE0284609
:1040500041464746224600F078F853465A46C01A71
:10406000914110D311461846224600F05FF82D1AF0
:1040700067EB01084F4622460120002100F056F868
:1040800017EB00094E41201EA4F10104DFDC484675
:1040900031462A464346BDE8F09F0029A8BF704735
:1040A000401C490008BF20F00100704710B4B0FA6E
:1040B00080FC00FA0CF050EA010404BF10BC704709
:1040C00049B1CCF1200421FA04F411FA0CF118BF23
:1040D000012121430843A3EB0C01CB1D4FEA0061F2
:1040E0004FEA102042BF002010BC704700EBC350C5
:1040F00010440029A4BF10BC7047401C490008BFF1
:1041000020F0010010BC7047064C074D06E0E06847
:1041100040F0010394E8070098471034AC42F6D30E
:10412000FBF7E8FF7844000898440008202A04DBE5
:10413000203A00FA02F1002070479140C2F12003BA
:1041400020FA03F3194390407047202A04DB203AF9
:1041500021FA02F00021704721FA02F3D040C2F1A7
:104160002002914008431946704700000FB4054BE8
:1041700010B503A9044A029800F018F810BC5DF8C5
:1041800014FB0000472F00087400002002E008C85C
:10419000121F08C1002AFAD170477047002001E0C1
:1041A00001C1121F002AFBD1704700002DE9FF4F0B
:1041B0008DB09B460F460446002606E025280BD00E
:1041C0005A460F999047641C761C20780028F5D138
:1041D00011B03046BDE8F08F0025A846012298496D
:1041E00000E0054314F8013F203B02FA03F00842C7
:1041F000F7D120782E2817D114F8010F45F00405C7
:104200002A280ED06FF02F022078A0F13001092962
:104210000AD808EB880102EB410100EB0108641C9D
:10422000F2E757F8048B641C20786C280DD004DC6E
:104230004C2812D06A2811D104E074280DD07A28B5
:104240000CD10AE045F4001507E0617845F48015CB
:10425000814202D1641C05F58015641C2278692A0C
:1042600045D008DC002AB3D0582A69D0632A10D080
:10427000642A08D13BE0702A67D0732A13D0752ACC
:104280005CD0782A5CD010465A460F999047761C2D
:10429000D3E017F8040B8DF8000000208DF8010022
:1042A000E946012003E057F8049B4FF0FF3069070F
:1042B0004FF0000501D40AE06D1C45450DDA85423A
:1042C000FADB19F805100029F6D106E06D1C8542CD
:1042D000FCDB19F805100029F8D12E4404E019F888
:1042E000010B5A460F9990476D1EF8D2A5E00A209F
:1042F0000021CDE90801C5F3025002280DD001CFFD
:10430000C117031E71F100030DDA4FF0000CD0EB62
:104310000C006CEB01012D2308E0FF1D27F00707BF
:10432000F7E80201EDE72B0504D52B238DF82830A3
:1043300001233BE0EB0739D02023F7E70A2000E018
:1043400010200021CDE9080107E01020002145F0F0
:104350000405CDE908014FF00808C5F30250022812
:104360000FD001CF00214FF0000A2B071FD5702A74
:104370000DD0DDE908C38CF0100C5CEA030C0CD006
:1043800015E0FF1D27F00707F7E80201EBE74022E1
:104390008DF828204FF0010A0BE050EA010306D007
:1043A00030238DF828308DF8292002239A46582A88
:1043B00004D024A20DF120090B9209E026A2F9E70E
:1043C000DDE90823FFF738FE0B9B9B5C09F8013DF4
:1043D00050EA0102F4D1ADEB0900203008906807E3
:1043E00001D44FF001080899884502DDA8EB0100CF
:1043F00000E000208046002506E00AA85A46405DFD
:104400000F9990476D1C761C5545F6DB04E0302073
:104410005A460F999047761CB8F10001A8F101089F
:10442000F5DC05E019F8010B5A460F999047761C08
:104430000899481E08900029F4DC641CC5E60000B9
:10444000092801003031323334353637383961626A
:10445000636465660000000030313233343536372E
:104460003839414243444546000000002002000024
:1044700020000000004400009844000800000020D4
:10448000780000008C4100081045000878000020EA
:10449000484D00009C41000800A24A0400000000B2
:1044A00000000000010203040607080900000000E4
:1044B00001020304010203040607080902040608B6
:1044C00000000000000000000000000000000000EC
:1044D00000000000000000000000000000000000DC
:1044E00000000000000000000000000000000000CC
:1044F00000000000DD3500081336000880030020AE
:1045000080470020000000000000000000000000C4
:04000005080000ED02
:00000001FF
