:020000040800F2
:10000000E8310020990100082F30000895290008E8
:100010002D300008D10C0008593C000800000000F9
:1000200000000000000000000000000001010008C6
:100030009F10000800000000450100086936000814
:10004000B3010008B3010008B3010008B3010008C0
:10005000B3010008B3010008B3010008B3010008B0
:10006000B3010008B3010008B3010008B3010008A0
:100070005D10000869100008B3010008B301000812
:10008000B3010008B3010008B3010008B301000880
:10009000B3010008B3010008B3010008A110000873
:1000A000B3010008E5360008B3010008B3010008F9
:1000B000B3010008F1360008B3010008B3010008DD
:1000C000B3010008B3010008B3010008B301000840
:1000D000B3010008B3010008B3010008F53B0008B4
:1000E000B3010008B3010008B3010008DFF80CD029
:1000F00000F028FD00480047DD620008E8310020DC
:10010000224B19680868B0E8F00F80F30988BFF344
:100110006F8F4FF0000080F311884EF00D0E704786
:100120000000000006480068006880F3088862B696
:1001300061B6BFF34F8FBFF36F8F00DF00BF00BF0B
:1001400008ED00E0EFF30980BFF36F8F0F4B1A68E3
:1001500020E9F00F106008B54FF0500080F31188CF
:10016000BFF34F8FBFF36F8F07F084FC4FF0000099
:1001700080F31188BDE8084019680868B0E8F00FFE
:1001800080F30988BFF36F8F704700BF28000020FD
:10019000EFF3058070470000064880470648004797
:1001A000FEE7FEE7FEE7FEE7FEE7FEE7FEE7FEE727
:1001B000FEE7FEE7E3360008ED0000082DE9F04118
:1001C0000024061B254671F1000605DA01240027EC
:1001D000D0EB070067EB0101161E73F1000605DA8C
:1001E0000027D2EB0702012567EB030300F094FB25
:1001F00086460E4617469C46AC4204D00025D0EBFE
:10020000050E65EB010624B10020D2EB000760EB80
:10021000030C704631463A466346BDE8F081202A19
:1002200004DB203A21FA02F00021704721FA02F3A0
:10023000D040C2F12002914008431946704740EA7D
:1002400001039B0703D009E008C9121F08C0042A54
:10025000FAD203E011F8013B00F8013B521EF9D23B
:100260007047D2B201E000F8012B491EFBD2704763
:100270000022F6E710B513460A4604461946FFF772
:10028000F0FF204610BD30B504460020034600E0D4
:100290005B1C934203D2E05CCD5C401BF8D030BDC8
:1002A000F0B480EA0102D40F4200B2EB410F02D257
:1002B0000246084611464A0042D0C30DDDB2C1F3E2
:1002C000C752AD1A202D35DAC1F3160141F40002F0
:1002D00004B15242C5F1200602FA06F12A41104447
:1002E000B3EBD05F23D0C4B1012DA0EBC35009DC28
:1002F000F0BC4FF0004202EAC352DBB200F500004E
:1003000000F065BB400000F1807000EBC350A0F12D
:10031000807040EAD170490009E0490841EAC071A3
:10032000A0EBC35000F50000400800EBC350F0BC48
:1003300000F044BB6142012202EB4101001BF6E7E1
:10034000F0BC704781F00041AAE780F00040A7E7C9
:1003500080EA010210B502F00043400022D04A00BA
:100360001FD0010E01EB1261C0F35600C2F356021A
:1003700040F4000042F40002A0FB022000047F3998
:10038000140400D0401C50EA124001D44000491E21
:10039000C2B20C0604EBD010401C4008802A02D0E8
:1003A00003E0002010BD20F00100002900DA002049
:1003B000184310BD30B480EA010202F0004530F06D
:1003C000004221F0004013D090B1C30DD40DC2F310
:1003D0001601C0F31600E41A41F4000140F40002D3
:1003E0007D34914201D3641C00E04900002C02DA04
:1003F00030BC002070474FF400000023914201D32D
:10040000891A034340084FEA4101F7D151B19142A3
:1004100002D14FF0004105E002D24FF0010101E0AE
:100420006FF0010103EBC450284430BC00F0C6BAA1
:10043000420005D0C0F3C7525242914201DC002075
:10044000704700EBC15070472DE9FE4F804681EAAE
:100450000300C00F0C46009021F0004123F000453E
:10046000B8EB0200A94105D24046214690461C4601
:100470000B46024623F00040104347D0270DC7F338
:100480000A00C3F30A510290401A019040286BDA27
:10049000C3F3130040F4801B0098924620B1002360
:1004A000D2EB030A63EB0B0B01985946C0F14002F3
:1004B000504600F062FA06460D4650465946019AEB
:1004C00000F06AFA10EB08006141002487EA11523B
:1004D00084EAE7731A4340D0009A62B3019A012A72
:1004E0004FEA075215DC001B61EB02014FF000429E
:1004F00002EA0752CDE90042001C41F58011324664
:100500002B4600F0A1FA03B0BDE8F08F404621462B
:10051000F9E7001B61EB0201001C41F58013001894
:100520005B412018A2F5001747EB030140EAD570A4
:10053000B6196D4111E06D084FEA360645EAC075FF
:100540004FEA0752001B61EB0201001C41F58011CC
:1005500049084FEA30000019514132462B4603B09A
:10056000BDE8F04F00F061BA00980122400000237E
:10057000D0EB020263EBE073009821464FEAE0748F
:10058000B8EB000061EB0401E9E783F000435BE7AF
:1005900081F0004158E72DE9FE4F81EA030404F0A1
:1005A000004421F0004100944FF0000B23F0004381
:1005B00050EA01045ED052EA03045BD0C3F30A544C
:1005C000C1F30A552C44A4F2F3340194A0FB025465
:1005D000C1F3130141F48011C3F3130343F48013F7
:1005E00001FB024400FB034E840A970A44EA81544B
:1005F00047EA8357A4FB076802958D0A05FB078528
:100600004FEA932C04FB0C542705029D4FEA065831
:1006100047EA1637B5EB08056EEB070C870E920E0E
:1006200047EA811742EA8312A7FB0201B6EB0B01EE
:1006300064EB00042B0D43EA0C335E1844EB1C50B2
:10064000DA465146E7FB0201C5F313044FEA0B33C8
:1006500043EA14534FEA0432019C43EA0603A4F12F
:100660000C040294009CCDE900B400F0EDF903B055
:10067000BDE8F08F00200146F9E72DE9F04D81EA51
:10068000030404F0004B21F0004514464FF0000A2B
:1006900023F0004150EA050220D054EA01021DD0A7
:1006A000C5F30A570246C5F31303C1F31300C1F3A0
:1006B0000A5640F4801543F48013A7EB0608101B7C
:1006C000D64608F2FD3873EB050002D308F10108A5
:1006D00001E092185B41B8F1000F03DA00200146F7
:1006E000BDE8F08D00204FF48011064684460EE0F0
:1006F000171B73EB050705D3121B63EB05030643BA
:100700004CEA010C49084FEA300092185B4150EA6C
:100710000107EDD152EA030012D082EA040083EA15
:100720000501084305D0101BAB4106D2012200236E
:1007300006E000224FF0004302E06FF00102531088
:100740001AEB06004CEB085110EB0A0041EB0B01D1
:10075000BDE8F04D00F069B970B521F000430343E6
:100760000CD0C1F30A550024D5EB040564EB040357
:10077000D617AD1AB34102DB0020014670BD201828
:1007800041EB025170BDC10F80EAE0700844CA0716
:100790009623002100F01BB996230022114600F099
:1007A00016B90EB5C10F80EAE0700844CA070021EF
:1007B00040F233438DE80E000A460B4600F044F940
:1007C00003B000BD00F0004220F00040C10DC0F3B6
:1007D000160040F400007F2901DA002070479629B6
:1007E00003DCC1F19601C84001E096398840002A37
:1007F000F4D04042704720F00040C10DC0F3160015
:1008000040F400007F2901DA00207047962903DCBC
:10081000C1F19601C840704796398840704770B55D
:10082000C1F30A5201F000450024C1F3130140F264
:10083000FF3341F480119A4201DA002070BD40F28A
:1008400033439A42A2F2334203DC5242FFF7E7FC01
:1008500000E090402C43F1D0404270BDC1F30A52F9
:1008600010B5C1F3130140F2FF3341F480119A42F5
:1008700001DA002010BD40F233439A42A2F2334223
:1008800003DC5242FFF7CBFC10BD904010BD00F0DE
:10089000004230F000400AD0C10D01F56071C0F394
:1008A000160042EA0151C208400711437047002078
:1008B0000146704701F0004330B421F0004150EA96
:1008C000010206D00A0DA2F56072C1F31301002ADD
:1008D00002DC30BC00207047440F44EAC104C10070
:1008E000E01830BC00EBC25000F068B830B50B46E1
:1008F000014600202022012409E021FA02F59D4250
:1009000005D303FA02F5491B04FA02F52844151E23
:10091000A2F10102F1DC30BD2DE9F05F05460020B7
:1009200092469B4688460646814640241BE0284660
:10093000414647462246FFF772FC53465A46C01AC4
:10094000914110D311461846224600F016F82D1A90
:1009500067EB01084F4622460120002100F00DF808
:1009600017EB00094E41201EA4F10104DFDC4846CC
:1009700031462A464346BDE8F09F202A04DB203A50
:1009800000FA02F1002070479140C2F1200320FAE2
:1009900003F3194390407047202A06DBCB17203A17
:1009A00041FA02F043EAE07306E041FA02F3D04074
:1009B000C2F1200291400843194670470029A8BFA0
:1009C0007047401C490008BF20F00100704710B478
:1009D000B0FA80FC00FA0CF050EA010404BF10BC2D
:1009E000704749B1CCF1200421FA04F411FA0CF15A
:1009F00018BF012121430843A3EB0C01CB1D4FEA93
:100A000000614FEA102042BF002010BC704700EB8D
:100A1000C35010440029A4BF10BC7047401C4900BB
:100A200008BF20F0010010BC704710B5141E73F110
:100A3000000408DA401C41F1000192185B411A439E
:100A400001D120F0010010BD2DE9F04D92469B46EA
:100A500011B1B1FA81F202E0B0FA80F22032904690
:100A6000FFF78BFF04460F4640EA0A0041EA0B01FC
:100A700053465A46084313D0114653EA010019D091
:100A8000C8F140025046FFF7CAFB05460E465046E5
:100A900059464246FFF771FF084305D0012004E0A4
:100AA00020463946BDE8F08D0020054346EAE07651
:100AB0002C4337430A986305E40AA0EB08000022A0
:100AC000FD0A44EA47540A3002D500200146E9E70E
:100AD000010510196941DDE9084500196941BDE8C2
:100AE000F04DA2E7C1F30A52C1F3130140F2FF3304
:100AF00041F480119A4202DA00200146704740F228
:100B000033439A42A2F2334202DC5242FFF787BBE0
:100B1000FFF733BF30B5041E71F1000404DB4FF062
:100B20000044404264EB0101141E73F1000405DB34
:100B30001C464FF00043524263EB0403994208BF46
:100B4000904230BD064C074D06E0E06840F00103DE
:100B500094E8070098471034AC42F6D3FFF7CAFA7E
:100B60005C9500087C9500082DE9F04D00231A469D
:100B70001B1A8A4103DB00200146BDE8F08DC1F35A
:100B80000A52C1F3130141F480154FF0000BD10755
:100B900002D100186D41521E0027044640F2FF1199
:100BA000384601EB620A3E468046024600204FF47A
:100BB0008011FFF734FBC2197141BB1846EB0100ED
:100BC000B4EB030C75EB000C04D3E41A65EB0005E1
:100BD00017460E46241908F101006D41804634285D
:100BE000E3DDF91946EB0600091BA84103D24FF0DB
:100BF000FF32134601E0002213461BEB070046EBD1
:100C00000A51BDE8F04DFFF710BF0EB540F2334179
:100C100002910021CDE900110A460B46FFF714FFAF
:100C200003B000BD70B58C1810F8015B15F0070318
:100C300001D110F8013B2A1106D110F8012B03E075
:100C400010F8016B01F8016B5B1EF9D12B0705D47D
:100C50000023521E0DD401F8013BFAE710F8013BC6
:100C6000CB1A921C03E013F8015B01F8015B521EE2
:100C7000F9D5A142D8D3002070BD000010B51349AA
:100C800002788B789A4220D18279CB789A421CD113
:100C900043784B6082788A60C478CC6000790861C0
:100CA0007F2B01DDFF3B4B60180000D5584200232D
:100CB0000A2800DA4B607F2A01DDFF3A8A601000C3
:100CC00000D550420A2800DA8B6010BDAC2D002000
:100CD000FEE700002DE9F041DFF874815D4C4046ED
:100CE000D8F80C10E16080684FF0333739B15A4AB8
:100CF00000260129156807D002293ED121E0FFF71F
:100D000050FD3A46554B33E0554901278D4203DAF1
:100D1000002801DD66600AE052498D4209DA284662
:100D2000FFF710FB6FF00101FFF782FB6060E761E6
:100D300023E0E661FFF735FD4FF0FF32FFF70CFDD2
:100D400018E02069FFF71FFD2946FFF7FBFAFFF7C0
:100D500039FD454960618D4203DC00F11D013B29ED
:100D600001D2666009E04042FFF71BFD3A463F4B67
:100D7000FFF711FCFFF79EFD6060D8F80400FFF755
:100D800010FD3B4A3B4BFFF706FC06460D46A068AC
:100D9000FFF77DFD32462B46FFF7F7FBFFF78AFD95
:100DA0003549364DA060884203DD2946FFF7CAFA6F
:100DB000A0603349884203D92946FFF771FAA06041
:100DC000012002F0F9FAE062022002F0F5FA2D4D5E
:100DD00040422063B5F90800FFF7D5FC0146E868FA
:100DE00002F04EFF6062EA68D4E90B01636802F02A
:100DF00069FFA062B5F90A00FFF7C5FC0246696900
:100E0000A06802F0ABFF40422060D4E9091211440F
:100E10000A18081A6263FFF7C4FC154A1A4B5242BB
:100E2000FFF7B9FBFFF7FBFC0A49A0633831081F45
:100E300002F0ACFAE86802F047FD012805D0D4E9D9
:100E40000D01BDE8F04102F0CBBABDE8F081000031
:100E5000AC2D00209C000020900000203333F33F95
:100E600000007A43000048430000FA433333C33F95
:100E7000B81E85EB51B88E3F000034430000B443E8
:100E8000000034C3942D0020AE47F13F024A111FE9
:100E9000081F05F0B7BA0000A82D002000F01CB90B
:100EA000F8B55C495C4C00250A69A069022612B1BC
:100EB00025620D6117E0216A491C2162052912DDB6
:100EC00048B902F0B5F8022354A20321282002F009
:100ED000F1F90120A0610096082305212820226A4B
:100EE00002F0B0F9F8BD01281AD102F0A1F80123EF
:100EF0004CA21946184602F0DDF901234BA203214A
:100F0000184602F0D7F901234AA20521184602F03B
:100F1000D1F9012349A20721184602F0CBF9A561B6
:100F2000484D494F4FF00203E868B84209D32D22DB
:100F300001212E2002F00AF9E868009680F00042B4
:100F400006E0202201212E2002F000F90096EA6836
:100F500003230121322002F03DF928694FF00203FA
:100F6000B84209D32D2203212E2002F0EFF8286980
:100F7000009680F0004206E0202203212E2002F09D
:100F8000E5F800962A6903231946322002F022F977
:100F900068694FF00203B84209D32D2205212E20A3
:100FA00002F0D4F86869009680F0004206E0202242
:100FB00005212E2002F0CAF800966A690323052154
:100FC000322002F007F90223202207212E2002F00E
:100FD000BDF81E480068FFF70EFC024604230721F7
:100FE0003820009602F02EF9012319A20721502083
:100FF00002F060F9E0694FF00103012807D015A263
:1010000001B00721BDE8F0405F2002F053B912A201
:10101000F6E70000AC2D00209C00002072786C6F79
:101020007373000070697463683A0000726F6C6CCF
:101030003A0000007961773A000000006469733A71
:1010400000000000942D002000008080900000200F
:101050006D6D00002020000021210000014800F0FB
:10106000C9B8000008050020014800F0C3B800001E
:10107000C404002030B590F840500124AC40C56B4A
:101080006C60046863604368102B036803D0996048
:101090000068C26030BD9A600068C16030BD7047B2
:1010A0004FF4807000F056BA704700F059BB000052
:1010B0000148006870470000242C014010B500F082
:1010C0004FFB00EB4001C1EBC0100249096801EB86
:1010D000C00010BD242C014070B50C4D012204212C
:1010E000284600F038FBFFF7E9FF00F10A0400BFD3
:1010F000FFF7E4FFA042FBD300220421284600F0C2
:101100002AFB03490878401C087070BD00080140A4
:101110008800002010B590F821100022022905D087
:101120000421816380F82020012010BD01680B6834
:1011300023F00E030B6001680B6823F001030B60C2
:1011400090F84030C46B012101FA03F3636080F82A
:10115000211080F82020104610BD000010B590F836
:1011600021100024022903D00421816301243DE0E1
:1011700001680A6822F00E020A6001680A6822F01B
:1011800001020A601A4A0168914201D1012121E05D
:10119000174A1432914201D110211BE0144A28321F
:1011A000914201D1891515E0114A3C32914201D199
:1011B00089140FE00E4A5032914202D14FF480312F
:1011C00008E00B4A6432914202D14FF4801101E0F1
:1011D0004FF08071064A083A5160012180F82110D1
:1011E000002180F82010416B01B18847204610BDD6
:1011F000080002402DE9F05FC16B0C6801680B68C4
:10120000D0F840C0042202FA0CF2494DDFF824A1C4
:10121000494E4A4FDFF828B1DFF828E122422CD0AE
:101220005A072AD50A68920603D40A6822F00402F3
:101230000A600168A94201D1042219E0514501D197
:10124000402215E0B14202D14FF4806210E0B94271
:1012500002D14FF480420BE0594502D14FF4802275
:1012600006E0714502D14FF4800201E04FF0806248
:101270002F4908394A60C16A3BE04FF0020808FA7A
:101280000CF818EA040F4FF000094FF0010235D0B6
:101290005FEA837832D50B689B0605D40B6823F090
:1012A0000A030B6080F821200168A94201D10222C3
:1012B00019E0514501D1202215E0B14202D14FF48D
:1012C000007210E0B94202D14FF400520BE05945D0
:1012D00002D14FF4003206E0714502D14FF4001202
:1012E00001E04FF00072124908394A6080F82090FE
:1012F000816A00291AD0BDE8F05F0847082505FA81
:101300000CF5254212D01B0710D50B6823F00E03F5
:101310000B6090F84010C36B02FA01F159608263D0
:1013200080F8212080F82090016BE2E7BDE8F09F73
:10133000080002401C00024030000240440002400D
:10134000580002406C00024030B528B308C8134969
:1013500014221944B1FBF2F18900C1631049816381
:10136000022141771A6843F6F0718A43D0E90014EC
:101370002143D0E902452C432143046921434469B8
:1013800021438469214311431960002141630122F3
:1013900042770177084630BD012030BDF8FFFDBF20
:1013A0000000024070B5044690F820000025012896
:1013B0000CD0012084F8200094F821600020012E38
:1013C00006D084F820000225284670BD022070BD9A
:1013D000022684F82160A0632068066826F00106D2
:1013E00006602046FFF746FEE06A00282068016894
:1013F00002D041F00E0106E021F0040101602068F6
:10140000016841F00A0101602068016841F00101B2
:101410000160D9E770B5044600F0A2F90546601CEA
:1014200002D004480078044400F09AF9401BA0421E
:10143000FAD370BD180000202DE9F0474FF48076F4
:10144000B04260D1354F3146384600F07FF9344D17
:101450000128A5F10C0458D03146384600F076F941
:10146000002850D1FFF721FEE880FFF721FE80B26F
:10147000A880E9886A88891A01EB4102C2EBC11190
:1014800000EBC1002988401A6060A068FFF7FFF9EF
:10149000DFF89090244B4A46FFF77DF80646234834
:1014A0008846C06820F00040FFF7F1F9204A214B40
:1014B000FFF771F80022204BFFF7DFF803F09CFFE5
:1014C00007460D466068FFF767F9FFF7E0F91B4A2A
:1014D0001B4BFFF760F83A462B46FFF75CF84A468D
:1014E000184BFFF758F832464346FEF7ADFFFFF7BB
:1014F000E1F9A060FFF7CBF902460B4612A002F01B
:101500006DFC00202070BDE8F087FFF7CEFD6880FD
:10151000FFF7CEFD28802078401CF3E7000801404B
:10152000940000209A9999999999C93F942D002087
:101530001F85EB51B81E094000806640C3F5285C4A
:101540008FC2C53F9999E93F646973203D202566A4
:101550000A000000044910B50A68024202D008607F
:10156000FFF76AFF10BD0000140401402DE9F84F99
:10157000DFF8B891002409F1040A0AF1040B2346AC
:101580000F270BF1040EC9E00125A5402A40AA420D
:101590007DD1674ED1F804C0ACEB0608B44532D01B
:1015A00014DCBCF1030F3AD009DCBCF1000F2AD0E7
:1015B000BCF1010F1CD0BCF1020F31D11DE0BCF118
:1015C000110F17D0BCF1120F2AD119E0B8F5881FFE
:1015D00019D006DCB8F5803F15D0B8F5801F1FD1B3
:1015E00011E0B8F5001F0ED0B8F5041F18D10AE0BD
:1015F000CB6815E0CB681B1D12E0CB6808330FE009
:10160000CB680C330CE08B682BB1012B4FF0080337
:1016100003D0456104E0042302E0056100E00023FB
:10162000FF2A01D8064601E000F104064FEA8405CE
:1016300001D9A5F12005D6F8008007FA05FC28EAB3
:101640000C0803FA05F548EA0508C6F800804D685D
:10165000ED0062D5374DAE6946F00106AE61AD6969
:1016600024F0030605F001050095334D06EB050C4B
:10167000DCF80850A607360F07FA06F825EA080531
:10168000DFF8B880404503D14FF0000817E044E090
:10169000DFF8AC80404502D14FF001080FE0DFF8E1
:1016A000A480404502D14FF0020808E0DFF898809E
:1016B000404502D14FF0030801E04FF0040808FA5A
:1016C00006F848EA0508CCF808804D68D9F80060AB
:1016D000ED034D4601D5164300E096432E604D685C
:1016E000DAF80060AD03554601D5164300E0964395
:1016F0002E604D68DBF80060ED025D4601D51643B3
:1017000000E096432E604D68DEF80060AD0275463D
:1017100001D5164300E096432E60641C0D682A46EE
:10172000E5407FF431AFBDE8F88F000000040140D0
:1017300000001110001002400000014000080140AC
:10174000000C014000100140001401408068084076
:1017500000D0012070470AB1016170470904FBE71E
:101760000148806870470000180000200248816826
:10177000027811448160704718000020074810B5B6
:10178000016841F010010160032000F095F800208D
:1017900000F006F800F03EF8002010BD00200240E6
:1017A00000B5014687B00022192000F065F8192025
:1017B00000F054F81348816941F400618161806947
:1017C00005A900F400600690684600F01DF900F0DD
:1017D0004BF90D490D4AB0FBF1F10D48491E02606D
:1017E000416040F2E7320021C0E90321816000F04E
:1017F00047FB10B1012007B000BD054800F06EFBAB
:10180000F9E700000010024040420F00002C0140A8
:101810004C0500200F4808B5816941F00101816144
:10182000816901F001010091C16941F08051C161FC
:10183000C069002200F0805000900F21901E00F03F
:101840001BF80548416821F0E06141F000714160FA
:1018500008BD00000010024000000140002809DB24
:1018600000F01F02012191404009800000F1E020BA
:10187000C0F8001170470000F0B40E4B1B680C4616
:10188000C3F30223C3F10705042D00D90425191D54
:10189000072901D2002300E0DB1E012606FA05F12C
:1018A000491E214099409E40761E16403143F0BCAF
:1018B00002F0B8BA0CED00E0064900F00702086833
:1018C0004FF6FF03184040EA0220034A1043086025
:1018D000704700000CED00E00000FA052DE9F0472C
:1018E0000F46050061D0434E306800F00700B84253
:1018F00009D2306820F0070038433060306800F0CB
:101900000700B84251D128683B4C810712D54007E7
:1019100003D5606840F4E06060602878000703D574
:10192000606840F4605060606068A96820F0F00072
:10193000084360602878C00728D06868012810D064
:101940002168022810D0890700292EDA616821F069
:10195000030101436160FFF703FF804641F28839CC
:101960000DE021688903EFE78901EDE7FFF7F8FE55
:10197000A0EB0801494502D90320BDE8F087606863
:10198000696800F00C00B0EB810FEFD1306800F017
:101990000700B8420BD9306820F0070038433060A8
:1019A000306800F00700B84201D00120E5E7287850
:1019B000400705D56068E96820F4E060084360608E
:1019C0002878000706D56068296920F4605040EA4D
:1019D000C100606000F058F86168084AC1F3031163
:1019E000515CC8400649086006480068FFF7D8FE09
:1019F0000020C2E70020024000100240407E0008A4
:101A0000240000201C0000200F2202600C4A5368B2
:101A100003F003034360536803F0F00383605368EB
:101A200003F4E063C36052684FF4E06303EAD20258
:101A300002610448006800F0070008607047000079
:101A4000001002400020024004480549006849682F
:101A5000044AC1F30221515CC840704724000020B1
:101A600000100240507E000804480549006849689B
:101A7000044AC1F3C221515CC840704724000020D1
:101A800000100240507E000812A185B00FC98DE8F9
:101A90000F0014A0144A006804905168134801F024
:101AA0000C03042B10D0082B0ED1C1F38343C903C0
:101AB0001DF803000AD5516804AAC1F34041515CE6
:101AC0000A4A5043B0FBF1F005B07047084948435B
:101AD000FAE7000002030405060708090A0B0C0DCB
:101AE0000E0F1010010200000010024000127A00D8
:101AF00000093D002DE9F84F040070D02078C04D5A
:101B0000C00749D06868C0F38100012807D0686821
:101B1000C0F38100022809D16868C00306D528688F
:101B2000800339D560680028E7D035E06068B0F5FB
:101B3000803F0BD010B1B0F5A02F11D0286820F451
:101B400080302860286820F4802002E0286840F473
:101B500080302860606890B1FFF702FE06460AE018
:101B6000286840F480202860F0E700BFFFF7F8FD08
:101B7000801B642873D828688003F7D50CE0FFF732
:101B8000EFFD064605E000BFFFF7EAFD801B642875
:101B9000F0D828688003F7D420789A4E80074FF059
:101BA00001094FF0000839D5686810F00C0F07D014
:101BB0006868C0F38100022809D16868C00306D4B0
:101BC0002868800714D52069012808D110E0206911
:101BD000B0B1C6F80090FFF7C3FD074605E00AE183
:101BE000FFF7BEFDC01B0228C4D828688007F7D5C0
:101BF0002868616920F0F80040EAC10028600DE023
:101C0000C6F80080FFF7ACFD074604E0FFF7A8FD2B
:101C1000C01B022823D828688007F7D42078000743
:101C20002CD57948A169D9B1C0F80090FFF798FD8B
:101C3000074604E0FFF794FDC01B02280FD8686A2E
:101C40008007F7D571484FF4FA510068B0FBF1F006
:101C5000009000BF0098411E0091FAD20EE080E093
:101C6000C0F80080FFF77CFD074604E0FFF778FD31
:101C7000C01B022875D8686A8007F7D4207840070F
:101C800060D5E8690027C00008D4E86940F08050BA
:101C9000E861E869012700F0805000905C48016825
:101CA000C90513D40168834641F480710160FFF7D0
:101CB00057FD824606E000BFFFF752FDA0EB0A0089
:101CC00064284ED8DBF80000C005F5D5E06801288F
:101CD0000AD008B1052813D0286A20F00100286234
:101CE000286A20F0040002E0286A40F0010028621F
:101CF000E06841F2883B98B1FFF732FD82460BE085
:101D0000286A40F004002862EEE700BFFFF728FDD4
:101D1000A0EB0A0159455AD8286A8007F6D50CE08D
:101D2000FFF71EFD824605E0FFF71AFDA0EB0A0152
:101D300059454CD8286A8007F6D41FB1E86920F0CD
:101D40008050E861E06988B36968C1F381010229C4
:101D500044D00228C6F8608004D0FFF701FD044695
:101D600038E034E0FFF7FCFC074604E0FFF7F8FC3E
:101D7000C01B02282BD828688001F7D4206AB0F550
:101D8000803F05D16868A16820F40030084368608E
:101D9000D4E908010843696821F4741108436860B4
:101DA000C6F86090FFF7DCFC044606E025E000BFC3
:101DB000FFF7D6FC001B022809D828688001F7D558
:101DC0001BE000BFFFF7CCFC001B022802D9032058
:101DD000BDE8F88F28688001F4D40EE00128F7D020
:101DE0006868226A00F48031914204D1616A00F48B
:101DF0007010884201D00120EAE70020E8E70000E7
:101E000000100240000042428004424224000020B0
:101E1000007000407047704770B590F83C20012A70
:101E200026D0012480F83C40022280F83D2003683F
:101E30005A689D6822F070060A6832435A600D4B5A
:101E400002689A4208D0B2F1804F05D00A4B9A42FC
:101E500002D00A4B9A4204D1496825F08003194305
:101E6000916080F83D40002180F83C10084670BD2C
:101E7000022070BD002C014000040040000800401A
:101E800010B5040003D094F83D0010B107E0012024
:101E900010BD002084F83C00204600F01EF802200F
:101EA00084F83D00211D206801F028FC012084F801
:101EB000460084F83E0084F83F0084F8400084F82F
:101EC000410084F8420084F8430084F8440084F818
:101ED000450084F83D00002010BD704790F83D108B
:101EE000012901D001207047022180F83D100168CE
:101EF000CA6842F00102CA6000680B49884208D0F3
:101F0000B0F1804F05D00949884202D00849884283
:101F100004D1816801F00701062903D0016841F06E
:101F20000101016000207047002C014000040040C6
:101F3000000800402DE9F0410D46040003D094F85C
:101F40003D0018B108E00120BDE8F081002084F8D0
:101F50003C00204600F040F8022084F83D00206854
:101F6000816844F2070291438160211D206801F0DD
:101F7000C5FB226890689169166A2B68AF690343B4
:101F800040F20330814341EA0721A868EF69084322
:101F90004FF6FC418843E96840EA0720014328697D
:101FA0002F6A000140EA0730084369686D6926F02E
:101FB000220646EA0515294393602268906154F889
:101FC000460B0162012004F81F09E0752076E076D7
:101FD0002077A0750020B7E700B585B000210091FB
:101FE00001910291039101681A48B1F1804F1BD011
:101FF000194A914216D1C16941F00401C161C16918
:1020000001F004010491816941F008018161806956
:10201000694600F008000490C02000900F4800BFFF
:10202000FFF7A4FA05B000BDC16941F00101C1612B
:10203000C16901F001010491816941F004018161EC
:102040008069694600F00400049003200090044871
:10205000E6E700000010024000080040000C0140CC
:102060000008014070B590F83E60044690F83F507B
:1020700090F8423090F84320022021B104290ED07C
:10208000012E1BD114E0012E18D1012B16D184F89A
:102090003E0084F8420001220021206820E0012D4A
:1020A0000CD1012A0AD184F83F0084F8430014E0DF
:1020B000012D03D1012B01D1012A01D0012070BDD6
:1020C00084F83E0084F83F0084F8420084F843001E
:1020D00001220021206801F047FB01220421206831
:1020E00001F042FB2068016841F00101016000201D
:1020F00070BD704770B50446006801694FF0000577
:10210000C943890715D4C168C943890711D4E91E99
:10211000016101202077206880698007204602D075
:10212000FFF7E7FF04E000F0BFF8204600F06CF98D
:10213000257720680169C943490717D4C168C94395
:10214000490713D46FF00401016102202077206851
:10215000806910F4407F204602D0FFF7CAFF04E0F8
:1021600000F0A2F8204600F04FF9257720680169B9
:10217000C943090716D4C168C943090712D46FF0CF
:1021800008010161042020772068C069800720468B
:1021900002D0FFF7AEFF04E000F086F8204600F022
:1021A00033F9257720680169C943C90617D4C16886
:1021B000C943C90613D46FF01001016108202077CC
:1021C0002068C06910F4407F204602D0FFF791FFDD
:1021D00004E000F069F8204600F016F92577206841
:1021E0000169C943C90708D1C168C943C90704D1F6
:1021F000891E0161204600F0C5F920680169C943C4
:10220000090609D4C168C943090605D46FF08001E5
:1022100001612046FFF7FEFD20680169C9434906B8
:1022200009D4C168C943490605D46FF04001016172
:10223000204600F0C1F920680169C94389060BD422
:10224000C168C943890607D46FF0200101612046A7
:10225000BDE87040FFF7DFBD70BD000000B585B080
:102260000021009101910291039100680B4988427D
:1022700011D10B48816941F004018161806969468F
:1022800000F004000490C020009002200190039010
:102290000448FFF76BF905B000BD000000040040E2
:1022A0000010024000080140704770B5044690F8E5
:1022B0003C000D4601280AD0012084F83C0042B1C0
:1022C000042A18D0082A2AD00C2A4DD139E002203D
:1022D00070BD206801F056FA2068816941F008015C
:1022E00081612068816921F0040181612068816930
:1022F0002A69114311E0206801F06CFA20688169B5
:1023000041F4006181612068816921F4806181610B
:10231000206881692A6941EA0221816124E02068FC
:1023200001F084FA2068C16941F00801C1612068A8
:10233000C16921F00401C1612068C1692A691143A2
:1023400011E0206801F09EFA2068C16941F4006143
:10235000C1612068C16921F48061C1612068C169DF
:102360002A6941EA0221C161002084F83C0070BD65
:1023700010B5040003D094F83D0010B107E001202F
:1023800010BD002084F83C00204600F01FF8022019
:1023900084F83D00211D206801F0B0F9012084F887
:1023A000460084F83E0084F83F0084F8400084F83A
:1023B000410084F8420084F8430084F8440084F823
:1023C000450084F83D00002010BD000008B50068FD
:1023D0000B49884212D10B48C16941F00201C16129
:1023E000C069002200F00200009005211D20FFF7C7
:1023F00043FABDE808401D20FFF730BA08BD0000D1
:102400000004004000100240007F0549042804D069
:10241000082801D11020086070470820FBE7000061
:102420001408014010B50446022249B104290ED017
:10243000082913D094F84100012816D0012010BDBE
:1024400094F83E000128F9D184F83E200FE094F87A
:102450003F000128F2D184F83F2008E094F84000C2
:102460000128EBD184F8402001E084F841200122CA
:10247000206801F079F90F492068884203D1426C45
:1024800042F4004242642068884208D0B0F1804F94
:1024900005D00949884202D00849884204D18168A0
:1024A00001F00701062903D0016841F00101016034
:1024B000002010BD002C0140000400400008004036
:1024C00010B50446022249B1042912D008291CD0B3
:1024D00094F84100012823D0012010BD94F83E005B
:1024E0000128F9D184F83E202068C26842F0020237
:1024F00009E094F83F000128EED184F83F202068DD
:10250000C26842F00402C2600EE094F84000012864
:10251000E2D184F840202068C26842F00802F2E765
:1025200084F841200C2922D00122206801F01CF9F6
:1025300011492068884203D1426C42F4004242644F
:102540002068884208D0B0F1804F05D00B498842FE
:1025500002D00B49884204D1816801F007010629A5
:1025600003D0016841F001010160002010BD206826
:10257000C26842F01002C6E7002C0140000400408F
:102580000008004009490A6809490AB108220A609E
:10259000064A121D12680AB110220A600068054935
:1025A000884201D1FFF7E2B8704700003C040040C8
:1025B00010080140002C01407047704710B50446D8
:1025C0000068416994F83D20C1F3C011212A0BD164
:1025D00051B1416921F080014161606B08B1FEF7A2
:1025E00099FD204601F00DFA2068416994F83E20DB
:1025F000C1F38011222A0BD151B1416921F0400170
:102600004161A06B08B1FEF785FD204601F0E1F9BC
:10261000002010BD70470000F8B50268044610683D
:10262000D168536910F00F0F4FF0000553D003F03D
:10263000010601F4907737435FD0C20705D0CA0581
:1026400003D5226C42F001022264420705D5DA0765
:1026500003D0226C42F002022264820705D5DA0719
:1026600003D0226C42F004022264020707D501F075
:102670002002324303D0226C42F008022264226C12
:10268000002A34D0800604D5880602D5204601F001
:10269000C1F920684069216CC0F38010090700D49B
:1026A00030B3204601F095F92068416949061BD5F1
:1026B000416921F040014161A06BA8B158494163D3
:1026C000A06BFEF74BFD002811D0A06B416B01B051
:1026D000BDE8F040084783060FD58B060DD5204690
:1026E000BDE8F84001F096B92046FFF793FFF8BD2A
:1026F0002046FFF78FFF2564F8BD266B2023012EAF
:1027000052D1C60650D5CE064ED5106850680090FE
:10271000506940062AD5A16B086840680004000C87
:10272000EAD0A68D8642E7D9E0858869202818D0AE
:10273000D06820F48070D0602068416921F00101E8
:1027400041612068416921F04001416184F83E30D7
:1027500025632068C16821F01001C160A06BFEF7FD
:10276000D9FCA08DE18D401A81B219E0A08DE18DD8
:10277000401A81B2E08D0028BED00029BCD0D068BC
:1027800020F49070D0602068426922F0010242611A
:1027900084F83E3025632068C26822F01002C260CF
:1027A0002046FFF70AFFF8BD05062BD50D0629D5F3
:1027B00094F83D002128F6D1A068B0F5805F01D1E2
:1027C0002069B0B1206A411C21622168007848600C
:1027D000E08C401E0004000CE084E4D12068C16855
:1027E00021F08001C1602068C16841F04001C160F2
:1027F000F8BD206A0088C0F308005060206A801C81
:102800002062E5E74006F3D54806F1D5D1682046B9
:1028100021F04001D16084F83D3000F0BAF8F8BDF5
:102820000539000870B5040004D094F83D00002577
:1028300010B106E0012070BD84F83C50204600F045
:1028400023F8242084F83D002068C16821F4005159
:10285000C160204601F03AF92068016921F49041F5
:1028600001612068416921F02A0141612068C16845
:1028700041F40051C1602564202084F83D0084F8B3
:102880003E00002070BD0000F0B585B00024064673
:10289000009401940294039400682D49884254D115
:1028A0002C48C16941F48021C161C16901F48021D2
:1028B0000491816941F0080181618069264D00F031
:1028C000080004904FF480600090022001900320E3
:1028D000039069462846FEF749FEE814CDE9000456
:1028E000694628460294FEF741FE1D4D1B4880278D
:1028F000C5E90004C5E902472C616C61AC6128465A
:10290000EC61FEF721FD08B1FEF7CEFBB5636E6208
:10291000134D12484435143801C5102091C5104894
:1029200045F8104944306C61AC61EC61FEF70CFD78
:1029300008B1FEF7B9FB75630022062127206E62FD
:10294000FEF79AFF2720FEF789FF05B0F0BD0000D3
:102950000048004000100240000C014030000240DE
:10296000C404002090F83E30202B0ED159B152B152
:1029700090F83C30012B08D0012380F83C30002334
:10298000036301F0FFB801207047022070477047D1
:1029900070477047FEE7000070B5104D4FF40074AB
:1029A000002221462846FEF7D6FE00F019F8012243
:1029B000160231462846FEF7CEFE00F011F800223E
:1029C00031462846FEF7C7FE00F00AF821462846A1
:1029D000BDE870400122FEF7BEBE0000000C0140C1
:1029E0000020401C10F0FF00FBD070470C4800B5E1
:1029F000816985B041F0080181618069694600F014
:102A0000080004904FF440700090032003901120C0
:102A100001900448FEF7AAFD00F0AAF805B000BD39
:102A200000100240000C014070B50C4C0122510214
:102A30002046FEF790FEFFF7D3FF0122150229463C
:102A40002046FEF788FEFFF7CBFF002229462046EE
:102A5000FEF781FEBDE87040FFF7C2BF000C0140E9
:102A60002DE9F0470024164E804625464FF40079A4
:102A70004FF480776006040E012239463046FEF797
:102A80006AFEFFF7ADFF49463046FEF75FFE08B12C
:102A9000641CE4B2002239463046FEF75CFEFFF7C4
:102AA0009FFF6D1CEDB2082DE4D3B8F1000F04D0E8
:102AB000FFF772FF2046BDE8F087FFF7B5FFF9E7A3
:102AC000000C01402DE9F041174E054600244FF45B
:102AD00080774FF40078280601D5012200E000221B
:102AE00041463046FEF737FEFFF77AFF01223946AE
:102AF0003046FEF730FEFFF773FF002239463046BE
:102B0000FEF729FE072C04D1012241463046FEF78C
:102B100022FE6806050EFFF763FF641CE4B2082C72
:102B2000D9D3BDE8F0810000000C014070B501224E
:102B30000E4D540221462846FEF70DFE01221602D4
:102B400031462846FEF707FEFFF74AFF00222146DE
:102B50002846FEF700FEFFF743FF002231462846D5
:102B6000FEF7F9FDBDE87040FFF73ABF000C0140E9
:102B700070B50B4D4FF40074002221462846FEF735
:102B8000EAFD012211022846FEF7E5FDFFF728FFC6
:102B900021462846BDE870400122FEF7DCBD00005A
:102BA000000C014070B50122104D54022146284608
:102BB000FEF7D1FDFFF714FF012216023146284629
:102BC000FEF7C9FDFFF70CFF21462846FEF7BEFDC4
:102BD00008B1012400E00024002231462846FEF717
:102BE000BAFDFFF7FDFE204670BD0000000C01405D
:102BF0002DE9F0411D4614460F460646FFF796FFA5
:102C00007006000EFFF75EFFFFF7CCFF20B1FFF765
:102C1000AFFF0120BDE8F0813846FFF753FFFFF713
:102C2000C1FFFFF783FF012000EB4600C0B2FFF7B2
:102C300049FFFFF7B7FF09E0012C0DD05FF001005D
:102C4000FFF70EFF641E05F8010BE4B2002CF3D170
:102C5000FFF78EFF0020DDE70020F1E72DE9F041CE
:102C60001E4615460F460446FFF760FF6006000E3D
:102C7000FFF728FFFFF796FF60B93846FFF722FFFE
:102C8000FFF790FF00240CE0305DFFF71BFFFFF71C
:102C900089FF20B1FFF76CFF0120BDE8F081641CC3
:102CA000E4B2AC42F0D3FFF763FF0020F5E7000089
:102CB0000D4808B5416941F00101416140690022B8
:102CC00000F00100009006210C20FEF7D5FD0C203D
:102CD000FEF7C4FD002206210D20FEF7CDFDBDE864
:102CE00008400D20FEF7BABD0010024010B5A4B098
:102CF0001C221C496846FDF7A2FA0021684604F030
:102D0000BBFA194C17491C2260601C3107A8FDF75B
:102D100096FA002107A804F0AFFA1249A0601C221D
:102D200038310EA8FDF78BFA00210EA804F0A4FAA2
:102D30000C49E0601C22543115A8FDF780FA0021EF
:102D400015A804F099FA074920611C2270311CA8CB
:102D5000FDF775FA00211CA804F08EFA606124B01A
:102D600010BD0000B47D0008000000202DE9F04FE8
:102D700085B000243D480094019402940394816935
:102D800041F010018161816901F0100104918169B4
:102D900041F020018161816901F020010491816984
:102DA00041F004018161816901F0040104918169AC
:102DB00041F0080181618069DFF8B49000F00800FB
:102DC0004FF4C0450490002229464846FEF7C3FC54
:102DD000DFF8A0A000221C215046FEF7BCFCDFF863
:102DE00098B0EF1C002239465846FEF7B4FC4FF469
:102DF0004078012241465846FEF7ADFC0095022678
:102E000001250396CDE9015469464846FEF7AEFB1D
:102E10001C20CDE90005CDE9024669465046FEF783
:102E2000A5FB00970396CDE9015469465846FEF785
:102E30009DFB280200901148CDE9010469465046E7
:102E4000FEF794FBCDE90085CDE902566946584668
:102E5000FEF78CFB00220A211720FEF70DFD17203C
:102E6000FEF7FCFC05B0BDE8F08F0000001002404A
:102E70000010014000080140000C0140000031102A
:102E800010B58CB024216846FDF7F2F900241548EE
:102E900009944FF080410A94C0E900144FF6FF7185
:102EA000C0E90241046184610320CDE900040120EE
:102EB000CDE902040494CDE9054007946946094828
:102EC0000894FFF737F808B1FEF7EEF8099409A95E
:102ED00004480A94FEF7A0FF002801D0FEF7E4F8AA
:102EE0000CB010BDA803002010B58AB000240794D0
:102EF0001C2168460894FDF7BBF922482049C0E927
:102F0000001441F63F71C0E9024104618461FFF79A
:102F10002FFA08B1FEF7C8F8079407A919480894D2
:102F2000FEF77AFF08B1FEF7BFF86020CDE9000494
:102F300002940022694613480494FFF7B6F908B1D9
:102F4000FEF7B2F8042269460E48FFF7AEF908B161
:102F5000FEF7AAF8082269460A48FFF7A6F908B161
:102F6000FEF7A2F80C2269460648FFF79EF908B161
:102F7000FEF79AF80348FFF771F90AB010BD000098
:102F800000040040F003002010B58CB024216846F6
:102F9000FDF76EF900241648099414490A94C0E913
:102FA00000144FF6FF71C0E90241046184610320FF
:102FB000CDE900040120CDE902040494CDE90540E7
:102FC000079469460A480894FEF7B4FF08B1FEF773
:102FD0006BF8099409A906480A94FEF71DFF00281A
:102FE00001D0FEF761F80CB010BD000000080040F1
:102FF000380400200C4810B50A4901604FF41651FE
:103000004160002181600C22C160C0E9041281612D
:10301000C161FFF707FC002803D0BDE81040FEF7B0
:1030200043B810BD0048004080040020FEE7704710
:10303000002000F001B8000070B506465FF0000403
:1030400004F1B000C0B200F0B9FE002000F0B6FEFE
:10305000102000F0B3FE0025304600F0B7FE6D1CD6
:10306000EDB2802DF8D3641CE4B2082CE8D370BD17
:1030700010B56420FEF7CEF9AE2000F09FFE2020B0
:1030800000F09CFE102000F099FEB02000F096FEAB
:10309000C82000F093FE002000F090FE102000F009
:1030A0008DFE402000F08AFE812000F087FEFF2088
:1030B00000F084FEA12000F081FEA62000F07EFE3C
:1030C000A82000F07BFE3F2000F078FEA42000F056
:1030D00075FED32000F072FE002000F06FFED520B8
:1030E00000F06CFEF02000F069FED92000F066FED2
:1030F000222000F063FEDA2000F060FE122000F0D3
:103100005DFEDB2000F05AFE202000F057FE8D20EF
:1031100000F054FE142000F051FEBDE81040AF2036
:1031200000F04CBE10B50446B031C8B200F046FE07
:10313000102040EA141000F041FE04F00F00BDE83A
:10314000104040F0010000F039BE00002DE9F041D0
:10315000203A00240D468046D6B27F2803D90020AD
:103160008D1C8046EDB2102B29460FD0FFF7DAFFF9
:10317000164906EB460001EB4005285D00F026FEEF
:10318000641CE4B2062CF8D3BDE8F081FFF7CAFF57
:103190000F4F00BF04EB0610385C00F017FE641CF4
:1031A000E4B2082CF6D36D1CE9B24046FFF7BAFF33
:1031B0005FF0000404EB06103844007A00F006FECD
:1031C000641CE4B2082CF5D3DEE700009E8A0008F8
:1031D000C68C00082DE9F84307461D46144689466B
:1031E0001046089EFDF7EEFA804602462B464946F9
:1031F0003846009600F026F84046FDF7CDFA214605
:10320000FDF7A3F80E49FDF7A3F8FDF7DBFA8046BA
:1032100006EB460020F0004404FB0570C0B2022318
:103220002E224946FFF792FF6D1C04FB0570C0B2C9
:10323000022342464946009600F004F8BDE8F883B0
:103240000000C8422DE9F05F8046DDF82890002696
:1032500009EB49001D4692468B46344620F0004754
:1032600023E0281B401EC1B20A2003F0F1FFBAFB85
:10327000F0F00A21B0FBF1F201FB120026B9691E41
:103280008C4201DA38B101263030C2B207FB04802B
:10329000C0B24B4604E007FB0480C0B24B4620227C
:1032A0005946FFF753FF641CE4B2AC42D9D3BDE8E2
:1032B000F09F00002DE9F047002591468A4604461C
:1032C000012B22D0DFF8BC80022B24D155E020381E
:1032D000C7B27E2C04D90AF10100002400F0FF0AD5
:1032E00051462046FFF71EFF07EB4700002608EB7C
:1032F0004007B85D00F06AFD761CF6B2062EF8D3E2
:10330000A41D6D1CE4B2EDB201E0DFF87C8019F879
:1033100005000028DBD1BDE8F0872038C7B2782C43
:1033200004D90AF10100002400F0FF0A51462046AA
:10333000FFF7F8FE5FF0000606EB071118F8010032
:1033400000F044FD761CF6B2082EF5D30AF1010018
:10335000C1B22046FFF7E6FE5FF0000606EB07115C
:1033600001EB0800007A00F031FD761CF6B2082E61
:10337000F4D308346D1CE4B2EDB219F8050000284E
:10338000CBD1C8E7C68C00089E8A000810B541F66C
:103390003F72046853429C4201DA036002E09442A7
:1033A00000DD02600868984201DA0B6010BD9042AF
:1033B000FCDD0A6010BD00000021012803D00228B6
:1033C00007D0002070474FF08042506A516200B22F
:1033D0007047024A1068116000B27047240800402C
:1033E0002DE9F05F054630482D4E0F46A6F1040842
:1033F0000024DFF8B0B04068FDF7D3F98A46814673
:10340000002D10DD2846FDF7CCF95A46274BFDF775
:10341000C2F84A465346FDF717F8FDF71FFA306029
:10342000C8F8004012E03460284601DAC5F1000017
:10343000FDF7B7F95A461D4BFDF7ADF84A4653461E
:10344000FDF702F8FDF70AFAC8F80000144D144E13
:103450002D1D083E002F10DD3846FDF7A2F95A4613
:10346000124BFDF798F84A465346FCF7EDFFFDF77F
:10347000F5F928603460BDE8F09F2C60384601DA29
:10348000C7F10000FDF78DF95A46084BFDF783F8A8
:103490004A465346FCF7D8FFFDF7E0F93060EAE70B
:1034A0003C040040B81E85EBD800002051B8F23F24
:1034B000064800680028FDD005A000F08FFC00BF82
:1034C000FDF708FC0A2003F0CBFEF9E7000000201E
:1034D000313030485A2073746172740A0000000061
:1034E00004F0C0FAFFF7C4FDFFF7A2FD012102239B
:1034F0001CA20846FFF7DEFE03F068F80028FBD1A7
:1035000002231BA203210120FFF7D4FE1AA000F022
:1035100065FC3220FDF77EFF02231BA20321012060
:10352000FFF7C8FEC820FDF775FFFFF781FD0121F9
:10353000022318A20846FFF7BDFE022318A20321AA
:103540002320FFF7B7FE4FF4FA70FDF763FF15492C
:103550000120086004F0CCFBFDF798FC052003F087
:103560007FFEF9E76D707520696E69742D2D00007E
:103570006D7075206F6B0000323030485A207374C4
:103580006172740A0000000048462073746172740E
:1035900000000000706F776572656420627900003A
:1035A0004846000000000020FDF778FC642003F08E
:1035B00057FEF9E704F056FA07A000F00FFC04F0FC
:1035C00097FB00BF04F04EFAFDF76AFC04F090FB95
:1035D000C82003F045FEF5E7496E746572616374B7
:1035E000696F6E2073746172740A00004FF40056A4
:1035F0001C4C75004FF47A77012231462046FEF7C5
:10360000AAF8012229462046FEF7A5F8642003F017
:1036100027FE002231462046FEF79DF8002229466B
:103620002046FEF798F8C82003F01AFE0122314622
:103630002046FEF790F8012229462046FEF78BF837
:10364000C82003F00DFE002231462046FEF783F825
:10365000002229462046FEF77EF8384603F000FE99
:10366000CAE700000010014010B5502080F3118817
:10367000BFF34F8FBFF36F8F04F0D6FA18B1044930
:103680004FF080500860002080F3118810BD0000CA
:1036900004ED00E030B58FB028216846FCF7E8FD66
:1036A00014210AA8FCF7E4FD01210804CDE900106B
:1036B0000024029402250491CDE907504FF4E01054
:1036C00009906846FEF716FA0F20CDE90A05680250
:1036D000CDE90C4002210AA80E94FEF7FFF80FB0C6
:1036E00030BD70470148FEF705BD00004C050020C5
:1036F0000148FEF7FFBC0000F0030020F0B50268AF
:10370000164B174C174D4FF08047984205D0B842E2
:1037100003D0A04201D0A84203D122F070064A682B
:103720003243984205D0B84203D0A04201D0A8420B
:1037300003D122F44074CA6822434C6922F080020B
:10374000224302608A68C2620A688262984201D19A
:103750000969016301214161F0BD0000002C0140B5
:10376000000400400008004010B501F01F030121D3
:10377000046A99408C430462016A9A4011430162D1
:1037800010BD000030B5026A22F001020262026A36
:103790004368846924F073050C682C4322F0020509
:1037A0008A682A430A4DA8420BD122F00805CA684C
:1037B00023F440732A434D6922F004021D438B69B0
:1037C0002B434360846149684163026230BD00005D
:1037D000002C014030B5026A22F010020262026A37
:1037E000436884690D6824F4E64444EA05248D683E
:1037F00022F0200242EA05120B4DA8420ED1CD68FC
:1038000022F0800242EA05124D6923F4406343EA44
:1038100085038D6922F0400243EA85034360846199
:1038200049688163026230BD002C014030B5026AF4
:1038300022F480720262036A4268C46923F400734E
:1038400024F073050C682C438D6843EA05230C4D66
:10385000A8420ED1CD6823F4006343EA05234D69E5
:1038600022F4405242EA05128D6923F4806342EA51
:1038700005124260C4614968C163036230BD000043
:10388000002C014030B5026A22F480520262046AC0
:103890004268C3690D6823F4E64343EA05238D6853
:1038A00024F4005444EA0534064DA84204D14D697D
:1038B00022F4804242EA85124260C3614968016491
:1038C000046230BD002C01400B4B20F00040002171
:1038D0000A4A98420CDD0A4B0120107019601B1D2A
:1038E0001960074B1B1F1960054B0833196000E076
:1038F000002011707047000000007042D8000020C6
:103900003804004010B5406A0021C185C184FEF72B
:1039100081FE10BD70B5446A2068406994F83D107E
:10392000C0F3C0100025212904D118B1E584204638
:1039300000F067F82068406994F83E10C0F38010EA
:10394000222904D118B1E585204600F042F8206C08
:1039500040F0100020642046FEF75CFE70BD10B5FC
:103960000146406A0968096889061BD40021C1859F
:103970000168CA6822F48072CA6001684A6922F04C
:1039800001024A6101684A6922F040024A6120212D
:1039900080F83E10016B012904D10168CA6822F049
:1039A0001002CA60016B012902D0FEF7F0FF10BDC2
:1039B000818DFEF702FE10BD10B5406A016B012932
:1039C00002D0FEF7E5FF10BD818D4908FEF7F5FD39
:1039D00010BD0168CA6822F49072CA6001684A6921
:1039E00022F001024A61016B012904D10168CA6811
:1039F00022F01002CA60202180F83E1000210163ED
:103A000070470168CA6822F0C002CA60202180F8AD
:103A10003D10704708B590F83E10222901D00220D1
:103A200008BD82684FF480539A4201D1016921B1E7
:103A3000816A9A421BD04AB10AE00268816A5268E0
:103A4000C2F308020A80816A891C08E0026972B127
:103A50000268526802F07F020A70816A491C816222
:103A6000C18D491E0904090CC18503D019E0026803
:103A70005268F1E70168CA6822F02002CA60016852
:103A8000CA6822F48072CA6001684A6922F00102A1
:103A90004A61202180F83E10016B012903D0FEF716
:103AA00076FF002008BD002101630168CA6822F08A
:103AB0001002CA6001680A68D20602D50A6849681D
:103AC0000091818DFEF779FDEBE7000070B50446AB
:103AD00000680169E26821F44051114301612169E4
:103AE000A0680843616908432168CA6841F20C6311
:103AF0009A430243CA6020684169A26921F4407177
:103B0000114341611E492068884202D1FDF7ACFF94
:103B100001E0FDF799FF00EBC00101EB00126068C6
:103B200064218000B2FBF0F3B3FBF1F36FF01806F1
:103B30007343B2FBF0F5B2FBF0F605EB83053223DD
:103B400003EB0515B5FBF1F5B6FBF1F605F0F00555
:103B500005EB0615B2FBF0F6B2FBF0F0B0FBF1F0AE
:103B60006FF01802504306EB800003EB0010B0FB2F
:103B7000F1F0216800F00F002844886070BD00005B
:103B80000038014038B5816282850025134604461D
:103B90000564222084F83E00A26B13489062A26B59
:103BA0001248D062A26B12481063A06B0A464563AC
:103BB0002168A06B091DFDF7F5FB206801684168CD
:103BC000009184F83C50C16841F48071C160206864
:103BD000416941F0010141612068416941F04001C2
:103BE0004161002038BD00005F390008B939000884
:103BF0001539000838B5154800680168C943C90679
:103C00001ED40168C1F30011D1B10168416800916F
:103C1000016840680D48FEF7D1FC0D480068406817
:103C20000C4CC0F11400607004F114000546FDF75F
:103C300025F801202070142229460448FEF792FE40
:103C4000BDE838400148FEF7E7BC000080040020D2
:103C5000C4040020AC2D0020FEE70022114683188A
:103C6000521CD2B21975142AF9D3A52282705A2295
:103C7000C2700170417041608160C1600161704734
:103C800070B50D46FCF703FE0B4A0C4BFCF77DFCB0
:103C9000FCF710FE0A4E04462846B168FCF758FBB4
:103CA000054621463068FCF753FB2946FCF7F8FA35
:103CB000BDE87040FCF786BDD7A3703D0AD709C0A8
:103CC000F00000202DE9F0411F4690460844FCF723
:103CD0005AFD1E4C06461C492069FCF739FB054677
:103CE0001B493046FCF734FB2946FCF7D9FA054658
:103CF000014620616069FCF7D3FA3946FCF722FBE4
:103D000014496061884202DC1349884200D961612C
:103D10000E4E606918363169FCF71AFB07462846D3
:103D2000F168FCF715FB3946FCF7BAFAA06040468B
:103D3000FFF7CAFD012801D100206061A068BDE83D
:103D4000F041FCF73FBD0000CDCC4C3FD800002037
:103D5000CDCC4C3E00401C4600401CC670B51546FC
:103D6000FCF7F0FA04461148114E844204D931465A
:103D70002046FCF795FA04460E48844204DD31469D
:103D80002046FCF7DFFA04460B4E2846316AFCF762
:103D9000DFFA054684F00040B169FCF7D9FA2946FC
:103DA000FCF7D0FABDE87040FCF70CBD000034C34E
:103DB0000000B44300003443F000002001B56B461E
:103DC000012200213C20FEF749FF08BD01B56B46EA
:103DD000012240213C20FEF741FF08BD0FB4054BF6
:103DE00010B503A9044A029800F026FC10BC5DF847
:103DF00014FB0000C95D00084C010020490050EA96
:103E0000C12018BF04204A0D18BF40F0010040F245
:103E1000FF72B2EB515F08BF40F00200012808BFFB
:103E2000052070470907090E002804DB00F1E02097
:103E300080F80014704700F00F0000F1E02080F8D7
:103E4000141D70472DE9F74F144694B00021C4E9C2
:103E500002111599079121F00045C9498D4206DCF0
:103E60001599C4E9000117B00020BDE8F08FC549DD
:103E7000DFF814A3A9423CDD0799C44E0029C44FC2
:103E8000C44A1599534619DDFCF77FFB554506D00A
:103E9000C14AC24BFCF779FBC4E900010AE04FF0CC
:103EA000D352BE4BFCF771FB32463B46FCF76DFB31
:103EB000C4E9000117B00120BDE8F08FFCF7C4FA97
:103EC000554506D0B44AB54BFCF7BEFAC4E900012B
:103ED0000AE04FF0D352B14BFCF7B6FA32463B46FC
:103EE000FCF7B2FAC4E9000117B04FF0FF30BDE8AB
:103EF000F08FAB49A942159978DB21F00041834648
:103F00008846A84AA84BFCF746FB0022A74BFCF7C3
:103F10009BFAFCF784FC0990FCF743FC06460F462D
:103F20009C4A5346FCF737FB43465A46FCF730FBA6
:103F300080468A46984A994B30463946FCF72BFB17
:103F40002A0D01250B9242465346FCF721FB032D17
:103F5000C4E9000139D00B98C1F30A51401A05EBAE
:103F600045111139814230DA9148C346784400EB5B
:103F70000510CDF80CA00C90D0E90023304639464E
:103F8000FCF709FB02460B4604910690584603993C
:103F9000FCF7FBFA80468A4602460B4658460399D0
:103FA000FCF7F3FA049B069AFCF7EFFA83460C98A9
:103FB00003913946D0E902233046FCF7ECFA5A4621
:103FC000039BFCF7E2FA6D1CBDE707980028A2BF2F
:103FD000099817B0BDE8F08F616881F00041616019
:103FE000099817B04042BDE8F08FFFE78446159866
:103FF000C1F31301C0F30A50A0F2F5304FEA601884
:1040000000F01F06C6F120001390002006900790D4
:1040100041F4801E05206D4676B1664A08EB00012A
:104020007A4452F8213002EB8101B3404A68139977
:1040300022FA01F1194305E05F4908EB00027944D7
:1040400051F82210A1FB0E27A1FB0C131A449A422F
:1040500034BF0123002303EB070A05EB8003D3E9F8
:1040600001B70F448F4234BF0121002193448B4498
:1040700011B1934502D903E0934501D2012100E03B
:104080000021C3E901B7514445F82010011EA0F1F9
:104090000100C1DC0298059F00F10050800F1290D2
:1040A0000298DDE903568000FCF77BFB8346284637
:1040B0000D91FCF7AAFD6FF01D02FCF74DFBCDE959
:1040C0000E013046FCF7A1FD6FF03D02FCF744FB0A
:1040D00080468A463846FCF798FD6FF05D02FCF793
:1040E0003BFB0746424653461191FCF7ADF9DDE92B
:1040F0000E23FCF7A9F95A460D9BFCF7A5F90025FC
:104100000E465A4628460D9BFCF73FFADDE90E2382
:10411000FCF73BFA42465346FCF737FA3A46119B06
:10412000FCF736FADFF898A0244A5346FCF733FA36
:1041300007468846234A244B31462846FCF72BFA8B
:104140003A464346FCF780F9074688464FF0A842B6
:10415000534631462846FCF71EFA3A464346FCF7DA
:1041600073F9159A12F0004F04D0129A81F00041B1
:1041700052421292C4E90001129817B0BDE8F08FC4
:10418000FB21E93F7CD90240FB21F93F7370032EEC
:104190008A19A33B000040543163621A61B4D03DD8
:1041A000FB21394183C8C96D305FE43F0000E03F27
:1041B00068540000E4530000C6530000182D445416
:1041C000FB21F93D3326A611460B113C2DE9FF4D8D
:1041D00021F0004807460C46B8F1795F08DAFCF791
:1041E0001EFB002801BF0020324904B0BDE8F08D5D
:1041F0003A46234610461946FCF7CDF905460246D5
:104200002D480E460B460621784400F05DF82A46FC
:104210003346FCF7C0F9DDE9022382468B46384677
:104220002146FCF7B8F904460F4652465B4628463D
:104230003146FCF7B0F922463B46FCF7A6F90746A3
:104240008A464FF0FF3228463146FCF785FA1B4A72
:1042500090450ADA3A465346FCF797F904B0002233
:10426000BDE8F04D134BFCF793B9154A4245A8BF82
:10427000A8F500154FF00004B8BF124D22462B469A
:10428000FCF783F90646884622462B46002009495A
:10429000FCF77BF904460D463A4653463046414604
:1042A000FCF773F904B022462B46BDE8F04DFCF74D
:1042B0006FB900000000F03F945100003333D33F4A
:1042C0000000E93F0000D23F2DE9F0414F1E00EB16
:1042D000C7010446D1E9000115461E4637F0060223
:1042E0000DD02A463346FCF756F97F1E04EBC70370
:1042F000D3E90023FCF7A8F837F00602F1D1022F2A
:1043000025D0042F13D0062F18BFBDE8F0812A4610
:104310003346FCF740F9D4E90A23FCF795F82A461E
:104320003346FCF738F9D4E90823FCF78DF82A4620
:104330003346FCF730F9D4E90623FCF785F82A4622
:104340003346FCF728F9D4E90423FCF77DF82A4624
:104350003346FCF720F9D4E90223FCF775F82A4626
:104360003346FCF718F9D4E90023BDE8F041FCF727
:104370006BB800002DE9FF4D054621F0004084B0E8
:104380000C46B0F1795F0BDA2846FFF737FD0428B9
:1043900008BF00F071F8284608B02146BDE8F08D4E
:1043A0002A460B461046FCF7F6F806460F462A4604
:1043B0002346FCF7F0F8804626488A4632463B46BC
:1043C00005217844FFF780FF83461098029160B37F
:1043D000214A224B40465146FCF7DDF8CDE9000169
:1043E0005A4640465146029BFCF7D5F8824688461D
:1043F000DDE906014FF0FF32FCF7AEF952464346C5
:10440000FCF7C3F832463B46FCF7C5F8DDE9062366
:10441000FCF7BBF8DDE90023FCF7B7F808B02A4643
:104420002346BDE8F04DFCF7B3B80B465A4630467C
:104430003946FCF7B0F8084A084BFCF705F8424645
:104440005346FCF7A8F808B02A462346BDE8F04DCD
:10445000FBF7FABFDA500000495555555555C5BF11
:104460000122FCF779B9FBF7EFBF00221346104693
:104470001146FCF702B90000024A00201107FCF7C0
:104480006BB9000001FDFFFF02E008C8121F08C160
:10449000002AFAD170477047002001E001C1121FC5
:1044A000002AFBD1704700000149086070470000F6
:1044B000500100202DE9FF5F82B00021DDE90430CA
:1044C000020DDDF840B0034318D044F61050A2F2BC
:1044D000FF3242431514119801281FD0A5EB0B00A1
:1044E000401C5FEA000A4FF000064E4FDFF838919B
:1044F000B046504615D5CAF1000413E011980124C6
:104500004AA3012801D16FEA0B010298119AC0E970
:104510000031C0E9024206B0BDE8F09FCBF10000D7
:10452000DFE704460021404A491842EB0450CDE938
:10453000001012E0E00707D032463B4640464946AD
:10454000FCF729F88046894632463B461046194614
:10455000FCF721F806460F466410002CEAD1DDE98D
:104560000401DDE90023BAF1000F06DAFCF713F8C5
:1045700042464B46FCF70FF805E0FCF77EF8424652
:104580004B46FCF77AF804460E460022284BFCF70F
:10459000C1FA03D84FF0FF30014607E00022254B57
:1045A00020463146FBF750FFFCF79CFA102409E047
:1045B000002C0ADB0A220023FCF7AEF9039B303201
:1045C0001A55641E50EA0102F2D1641C039AC4F128
:1045D00011031444119A012A03D0012208430DD17A
:1045E0000AE0084304D000204FF0110B119072E74D
:1045F000A3EB0B056D1E0DE05B4504DD4FF00002E3
:1046000005F1010504E003DA4FF00002A5F1010510
:10461000002AECD002981199C0E90231C0E90045A6
:1046200079E70000000014400000F03F3000000077
:104630000000F0430000E03F2DE9FF4F95B09B469E
:104640008946064600250FE2252877D10024274613
:10465000F84A0121059400E0044316F8013F203B8D
:1046600001FA03F01042F7D130782A2811D06FF008
:104670002F033078A0F13002092A16D8059A44F0A9
:10468000020402EB820203EB42021044761C059006
:10469000EFE759F8042B0592002A03DA504244F45C
:1046A0000054059044F00204761C30782E2816D170
:1046B00016F8010F44F004042A280DD06FF02F02E1
:1046C0003078A0F13003092B09D807EB870302EB00
:1046D0004303C718761CF3E759F8047B761C30783F
:1046E0006C280FD006DC4C2817D068280DD06A281B
:1046F00014D104E0742810D07A280FD10DE044F4CE
:1047000000140AE044F4801401E044F44014727888
:10471000824202D104F58014761C761C307866281B
:104720000BD013DC582877D009DC002875D0452839
:10473000F6D04628F4D047281AD19DE118E0632826
:1047400035D0642879D0652812D195E1702873D0CE
:1047500008DC6728F1D069286FD06E280DD06F284B
:1047600006D1B5E073282CD0752875D0782874D080
:104770005A46179990476D1C75E1C4F30250022800
:1047800009D003280DD0D9F8001004280DD00D60F1
:1047900009F1040967E1D9F80010EA17C1E90052EC
:1047A000F6E7D9F800100D80F2E70D70F0E719F880
:1047B000041B8DF8001000208DF80100EA4601204E
:1047C00003E059F804AB4FF0FF3061074FF00001F0
:1047D00002D40DE008F101018846B9420FDA8045A4
:1047E000F8DB1AF808100029F4D108E008F10101FB
:1047F00088468142FADB1AF808100029F6D105989C
:104800005B46A0EB080721463846179A00F094FA59
:10481000284400EB080507E04DE029E10DE01AF817
:10482000010B5A4617999047B8F10108F7D25B4639
:1048300021463846179A13E142E00A220092C4F357
:1048400002524FF0000A022A08D059F804CB032A7A
:104850004FEAEC710AD00DE029E02AE009F10701E6
:1048600021F00702F2E802C1914609E00FFA8CFC40
:104870004FEAEC71042A03D14FFA8CFC4FEAEC7139
:10488000002907DA0A460021DCF1000C61EB020185
:104890002D2202E0220504D52B228DF804200122CE
:1048A00003E0E20701D02022F7E7904659E00A2111
:1048B00002E010220DE010214FF0000A00910BE001
:1048C00010224FF0000A44F004040827009203E08D
:1048D00008224FF0000A0092C4F30252022A05D0C7
:1048E00059F804CB0021032A08D009E009F1070197
:1048F00021F00702F2E802C1914605E01FFA8CFCA4
:10490000042A01D10CF0FF0C4FF00008220728D533
:10491000702806D0009B83F0100353EA0A0305D0E9
:104920000EE040228DF80420012208E05CEA01023A
:1049300006D030228DF804208DF805000222904622
:10494000009B83F0080353EA0A030AD15CEA0102E0
:1049500001D1620705D530228DF804204FF00108FF
:104960007F1E582804D034A003900EA802900DE0BA
:1049700036A0F9E753466046009AFBF7CDFF844620
:104980000398825C0298401E029002705CEA01006B
:10499000F0D1029806A9081A00F1200A600702D592
:1049A00024F4803400E00127574502DDA7EB0A001C
:1049B00000E0002000EB0A01009005984144401AF5
:1049C0000590E00306D45B462146179A059800F04F
:1049D000B3F90544002706E001A85A46C05D1799BF
:1049E00090476D1C7F1C4745F6DBE0030CD55B460A
:1049F0002146179A059800F09FF9054404E03020FD
:104A00005A46179990476D1C0099481E009000293E
:104A1000F5DC08E0029802995A460078491C029198
:104A2000179990476D1CBAF10001AAF1010AF1DC57
:104A300065E1000009280100303132333435363762
:104A400038396162636465660000000030313233DA
:104A5000343536373839414243444546000000007A
:104A600000F058F90544761C307800287FF4ECAD4E
:104A700019B02846BDE8F08F620700D4062709F177
:104A8000070222F0070CFCE80223E14603F000488D
:104A90005FEA080C02D00FF2702C0DE05FEA045CB4
:104AA00002D50FF2682C07E05FEAC47C02D00FF257
:104AB000602C01E0AFF2700C4FF0FF3823F00043A0
:104AC000CDF850C065280CD006DC452809D0462812
:104AD0001DD047283DD13DE0662818D067287ED1FB
:104AE00038E00021112F01DB112000E0781CCDE916
:104AF000000106A90EA8FFF7DDFCDDE90F010E9A03
:104B000003910021009207F1010A04914DE04FF05A
:104B100000400097CDE9011006A90EA8FFF7CAFCD6
:104B2000DDE90F0203920E9B11990022DDF80CA023
:104B30000093049211B9791C00EB010AB7EB0A004B
:104B400004D4C0F1FF3007F1010A0490AAEB07007A
:104B5000019044E0012F00DA01270021112F01DD2F
:104B6000112000E03846CDE9000106A90EA8FFF7A4
:104B7000A1FCDDE90F010E9A03910021049100923E
:104B8000BA4621070CD40399514500DA8A46BAF196
:104B9000010F05DD009AAAF10101515C302908D00E
:104BA000B84202DA10F1040F06DA0121CDE9011052
:104BB00015E0AAF10101E9E7002805DC04990144A8
:104BC0000491AAEB000102E0411C514500DD8A4638
:104BD0000499401A401C01904FF0004002902007B9
:104BE00004D40198504501DBCDF8048000208DF8F5
:104BF0004F0002980DF14F07B0F1004F25D02B2048
:104C00000E9002984FF0020800280CDA4042029001
:104C10002D200E9007E00A210298FBF767FE303145
:104C2000029007F8011DB8F10001A8F10108F2DCBB
:104C300002980028EFD1791E0E980870307800F0A5
:104C4000200040F0450007F8020D12A8C01B00F13B
:104C500007081498007800B1012000EB0A010198C0
:104C600001EBE07105984144401A401E0590E003B5
:104C700006D45B462146179A059800F05DF8054476
:104C80001498007818B15A46179990476D1CE003A4
:104C900024D55B462146179A059800F04DF8054447
:104CA0001CE00498002807DBDDE90301884203DDEE
:104CB0000098405C179901E0179930205A469047B8
:104CC000049805F10105401C04900198401E0190D4
:104CD00004D12E205A46179990476D1CBAF1000155
:104CE000AAF1010ADDDC05E017F8010B5A46179915
:104CF00090476D1CB8F10001A8F10108F4DC5B4697
:104D00002146179A0598ABE62D0000002B00000005
:104D1000200000002DE9F041044600251E461746FC
:104D2000880404D405E039462020B0476D1C641E79
:104D3000F9D52846BDE8F0812DE9F041044600256B
:104D40001E469046C80301D5302700E0202788047E
:104D500004D505E041463846B0476D1C641EF9D5C0
:104D60002846BDE8F08100002DE9FE4F07460E46BB
:104D70000025684601F032F800246FF00F0AE8467B
:104D80004FF0010957F8240056F82410401A00D5B6
:104D90004042FBF7F8FC5146FBF74AFB58F8241059
:104DA00011F0FF4F0BD0FBF705FB4FF07E51FBF7E7
:104DB000C9FA0A4920F00040884205DC07E00849AA
:104DC00008440849884202D309FA04F00543641CE8
:104DD000032CD7DB2846BDE8FE8F0000295C0F3E80
:104DE000666666C19A99D9002DE9F04D8D4F21F084
:104DF000004A86B005460C46BA452ADBAAEB0700F6
:104E000028430AD08848824501DC1AD1CDB106B0CA
:104E10002846BDE8F04DFFF723BB844A844B284663
:104E2000FBF7B9FB07460E46824A834B28462146CC
:104E3000FBF7B1FB06B03A463346BDE8F04DFBF751
:104E400003BB0120FFF730FB06B0BDE8F04DFFF7D4
:104E50000CBB7A48824542DABAF1795F0BDA284610
:104E6000FEF7CCFF042808BFFFF706FB284606B074
:104E70002146BDE8F08D2A460B461046FBF78BFB1A
:104E8000834602466E480E460B4606217844FFF7DD
:104E90001BFA5A463346FBF77EFB804669488A4632
:104EA0005A46334604217844FFF70EFA5A463346F1
:104EB000FBF771FB00223B46FBF7C6FA02460B46A6
:104EC00040465146FBF7D9FB2A462346FBF763FBD6
:104ED00006B02A462346BDE8F04DFBF7B5BA284692
:104EE00024F0004100223D463B46FBF751FB4FF0CA
:104EF000FF32FBF731FC0646024653480F460B468D
:104F000006217844FFF7E0F932463B46FBF743FBC6
:104F1000CDE900014D4832463B4604217844FFF775
:104F2000D3F932463B46FBF736FB00222B46FBF714
:104F30008BFA834602913046394602F04DFC80469A
:104F400043480D46504517DCDDE900015A46029BF7
:104F5000FBF793FB42462B46FBF71DFB42462B46D5
:104F6000FBF772FA0122FBF7F7FB304A304BFBF7F5
:104F70000CFB304A304B4CE04FF0000A52460B46D7
:104F80004046FBF761FACDE9031052462B46104626
:104F90001946FBF700FB32463B46FBF7F9FADDE921
:104FA0000332FBF76AFB06460F46DDE900015A466D
:104FB000029BFBF762FB8346009101223046394693
:104FC000FBF7CAFB194A1A4BFBF7E2FA06460F46F3
:104FD000012240462946FBF7BFFB5A46009BFBF7E0
:104FE000DAFA32463B46FBF7D0FA06460F46012274
:104FF00050462946FBF7B0FB0E4DDFF858802A4695
:105000004346FBF7C5FA32463B46FBF7C1FA2A4650
:105010004346FBF7BDFA002CD8BF81F0004106B033
:10502000BDE8F08D0000F03F0000F07F075C143316
:1050300026A6913C182D4454FB21F93F0000E03F87
:10504000284400003E440000B2430000C843000072
:105050003333EF3FFB21E93F2DE9F84F04460D467E
:1050600021F0004000917349814211DC724988426D
:1050700001DC06D12CB120462946BDE8F84FFFF7E8
:10508000EFB96E48002DCCBF6D496E49BDE8F88F71
:105090006D49814211DD6D498142D8BF4FF0FF3625
:1050A0006DDD20462946FEF7A9FE042808BFFFF75C
:1050B000E3F920462946BDE8F88F6549654F25F09C
:1050C0000045814233DD6449814219DD00263246C4
:1050D0004FF0804320462946FBF7B6F980468A46C2
:1050E000012220462946FBF737FB00223B46FBF70F
:1050F0004CFA42465346FBF7C0FA04460D463EE0E2
:1051000001260022BA463B4620462946FBF79CF979
:1051100080460F460022534620462946FBF735FAC3
:1051200042463B46FBF7A9FA04460D4627E04B49A9
:1051300081421BDDDFF828A10226002253462046CB
:105140002946FBF728FA00223B46FBF77DF980460B
:105150000F460022534620462946FBF716FA4246E0
:105160003B46FBF78AFA04460D4608E00326224632
:105170002B4600203B49FBF780FA04460D462246A9
:105180002B4610461946FBF706FA8B468246024626
:105190000B46FBF700FA07460246334888460B46A3
:1051A00006217844FFF790F852465B46FBF7F3F987
:1051B00082462E488B463A46434605217844FFF7FF
:1051C00083F83A464346FBF7E6F902460B46002EC3
:1051D000504659460CDAFBF737F922462B46FBF7C7
:1051E000DAF901B022462B46BDE8F04FFBF7D0B903
:1051F000FBF72AF922462B46FBF7CDF91C4A7A44E5
:1052000002EBC603D3E90023FBF7BFF922462B4686
:10521000FBF7BBF9174A7A4402EBC603D3E9002334
:10522000FBF7B6F9009A002AB8BF81F00041BDE84B
:10523000F88F0000000010440000F07F182D445447
:10524000FB21F93FFB21F9BF0000DC3F0000203EBD
:105250000000F33F0000F03F0000E63F0080034005
:105260000000F83F0000F0BFCA4100008841000084
:1052700026410000EE4000002DE9F04D9446CCF1AF
:10528000000423F000464CEA0404524F46EAD4746A
:105290009A46884621F00042BC4206D8454240EA80
:1052A000050442EAD474BC4204D9BDE8F04D62461C
:1052B000FFF7D9B8AAF14055A5F17F6555EA0C046E
:1052C0000BD0022404EAAA74434DDFF810E144EA4B
:1052D000D87452EA000B04D00CE0BDE8F04DFFF7A3
:1052E000BBBE002C14BF012CBDE8F08D022C30D0C9
:1052F000032C32D056EA0C0B0AD0BE4220D1BA425F
:1053000009D126F0804622F080423346114617E04C
:1053100000291ADB25E0DFF8C8B0FB44002C04BFED
:10532000DBE90001BDE8F08D012C02BFDBE90001E3
:1053300081F00041BDE8F08D022C0AD0032C0CD086
:10534000BA4212D1B8F1000F0BDA23482549BDE863
:10535000F08D28462449BDE8F08D28467146BDE809
:10536000F08D1D482149BDE8F08D921B12153C2A95
:10537000C4BF19481D490EDCBAF1000FBEBF12F1BF
:105380003C0F0020014606DB6246FBF776F921F070
:105390000041FFF761FE002C08BFBDE8F08D012C35
:1053A00004BF81F00041BDE8F08D114A114B022C81
:1053B00007D0FBF7EAF82A46BDE8F04D0A4BFBF7A9
:1053C000E4B8FBF7E2F82A46BDE8F04D064BFBF7E0
:1053D000DFB800000000F07F182D4454FB2109C005
:1053E000B2400000FB21F9BFFB210940FB21F93F3E
:1053F000075C143326A6A13C00B5244B21F00042E3
:1054000087B09A42DCBF0022134629DD204B9A4226
:1054100008D140B94FF00100FFF746F8FFF725F833
:1054200007B000BD03DBFFF71BF807B000BD02AA01
:10543000FEF708FD10F0030104BF0DF1080C9CE815
:105440000F000DD0012001290ED0022914D00DF13A
:10545000080C00909CE80F00FEF78CFF07B000BD21
:10546000FEF7B4FE07B000BD0DF1080C00909CE8FB
:105470000F00FEF77FFF05E00DF1080C9CE80F0020
:10548000FEF7A4FE07B081F0004100BDFB21E93F1B
:105490000000F07F08B560B120208DF800002820C2
:1054A0008DF8010030208DF8020038208DF80300BF
:1054B00004E0A32204216846FAF7D3FE6A460421D9
:1054C00040F69E2001F09AFE01F058FB08BD000056
:1054D0003EB5044602208DF80000CA208DF8010078
:1054E000E3208DF8020009208DF803006A460421AC
:1054F000682001F083FEA3208DF80000610609D525
:10550000C0218DF80110C8218DF80210C2218DF83C
:10551000031005E08DF801008DF802008DF80300FE
:1055200014F4C07F09D0C4218DF80410CC218DF86B
:105530000510C6218DF8061005E08DF804008DF8E1
:1055400005008DF806008DF808008DF807008DF82D
:1055500009006A460A2140F6A72001F04FFEA00785
:105560004FF0D80503D020208DF8000001E08DF821
:1055700000506A46012140F6B62001F03FFEA00629
:1055800001D5012000E0002000F08EF814F4C07F67
:105590001ED0E0050AD5B2208DF800008B208DF8D2
:1055A0000100B6208DF802009B2009E0B0208DF8A4
:1055B000000080208DF80100B4208DF802009020BA
:1055C0008DF803006A46042140F6A22001F016FE81
:1055D000E1074FF40B6022D0F8218DF800106A46E5
:1055E000012101F00BFEFA21072000F039FB072012
:1055F00000F004FB012000F021FB642000F0C4FB5C
:105600004FF4FA7000F0D0FBC821254800F0BEFA34
:10561000282000F0D3FA0A2000F0E0FA05E08DF827
:1056200000506A46012101F0E9FDA00703D5D92009
:105630008DF8000001E08DF800506A46012140F22B
:105640003D7001F0DBFD600701D5012000E0002086
:1056500000F048F8E00601D5012000E00020FFF747
:1056600019FF104D44F00800688101F087FA00200E
:10567000A873600601D50620A87314F4C07F02D079
:10568000A87B801DA87314F0140F02D0A87B1030E3
:10569000A873A00702D0A87B001DA87300203EBD00
:1056A00009E3CA02D42D00200EB54FF4976310B160
:1056B00006A107C901E008A207CA8DE807006A46EB
:1056C0000921184601F09AFD0EBD0000B8AAB38D5D
:1056D000B4980D355D000000B8AAAAAAB088C3C569
:1056E000C700000008B560B1C0208DF80000C220DE
:1056F0008DF80100C4208DF80200C6208DF803004B
:1057000004E08B2204216846FAF7ABFD6A460421C7
:1057100040F6982001F072FD01F030FA08BD00005B
:10572000C8234FF48062024940F6F63001F008B910
:10573000A87E00082DE9FF4F89B01746DDE9165213
:1057400000244C4E884681462C80A246B07B694698
:1057500001F0A2F94FF0FF3B18B158460DB0BDE87B
:10576000F08F708910F0140F3CD0009909BA21F025
:10577000FF039DF803100B433B6001991B1409BA0A
:1057800021F0FF029DF807105B430A437A600299FB
:105790009DF80B4009BA21F0FF012143B960039C39
:1057A000091424BA24F0FF0C9DF80F4012144CEA9F
:1057B000040CC7F80CC04FEA2C47494302FB0232E5
:1057C00007FB071111441024A1F17061B1F1007FB2
:1057D00004D901F0D3F9A5F800A0BEE7298841F467
:1057E000807129804206694611D50A19A41D1388C3
:1057F0005BBAA8F8003053885BBAA8F802309288E8
:1058000052BAA8F804202A8842F008022A8010F42C
:10581000C07F11D00A19A41D13885BBAA9F8003003
:1058200053885BBAA9F80230928852BAA9F80420CA
:105830002A8842F070022A80800716D00C44E07853
:1058400000F0C00500F03F016078C00706D0C8082E
:1058500001F007013268491C02B1904760780007E7
:1058600003D5716809B1A80988470C9800F09EFD1E
:10587000002073E7D42D00202DE9FF41044603A842
:1058800000F014FFBDF80C00410CC3032F4802893F
:1058900002F00300550754F8200000D54042C2F33F
:1058A000C105960654F8255000D56D42C2F3811605
:1058B000D20554F8264000D56442A0FB0367C21706
:1058C00002FB037200FB0120820042EA9670A5FBF6
:1058D0000367EA1702FB037205FB0122950045EA04
:1058E0009672A4FB0367E51705FB037304FB013104
:1058F0008B0043EA9671030E8DF80030030C8DF88F
:105900000130030A8DF802308DF80300100E8DF877
:105910000400100C8DF80500100A8DF80600080E22
:105920008DF80800080C8DF80900080A8DF80A00A7
:105930008DF807208DF80B106A460C214FF4257066
:1059400001F05CFC04B0BDE8F0810000D42D002023
:1059500030B5044613A285B007CA8DE807004FF0A2
:10596000FF35C82C16D8C820B0FBF4F1491E080A30
:105970008DF80C008DF80D1003AA022140F21620BC
:1059800001F03CFC30B96A460C2140F6C12001F020
:1059900035FC10B1284605B030BD05488481002093
:1059A000F9E70000FEF2ABC4AAF1DFDFBBAFDFDF37
:1059B000D42D0020F8B53049098901F0030250F8D0
:1059C00022404A0700D56442C1F3C1028B0650F859
:1059D000222000D55242C1F3811350F82330C8056C
:1059E00000D55B42254984FB0140850045EA94705F
:1059F00082FB0142A40F44EA820483FB0121950F3C
:105A000045EA8105010E8DF80010010C8DF801109A
:105A1000010A8DF802108DF803006A4604214FF444
:105A2000747001F0EBFB4FF0FF3688B9200E8DF853
:105A30000000200C8DF80100200A8DF802008DF87E
:105A400003406A4604214FF4757001F0D7FB08B19A
:105A50003046F8BD280E8DF80000280C8DF80100A6
:105A6000280A8DF802008DF803506A4604214FF48D
:105A7000767001F0C3FBF8BDD42D002009E3CA0203
:105A80002DE9FF4104463CA004F0030300680290A6
:105A90003AA0006803903AA006683AA0056802A8F8
:105AA000C15C8DF80010C4F3C101425C8DF8012087
:105AB000C4F38112805C8DF8020003A8C35C8DF8EA
:105AC0000430415C8DF80510805C8DF806006A4654
:105AD000032140F2264001F091FB4FF0FF37E0BB7D
