:020000040800F2
:100000000007002089010008910100089301000801
:100010009501000897010008990100080000000000
:100020000000000000000000000000009B0100082C
:100030009D010008000000009F010008A1010008C8
:10004000A3010008A3010008A3010008A301000800
:10005000A3010008A30100083902000851020008AA
:1000600069020008A5020008BD020008A3010008FB
:10007000A3010008A3010008A3010008A3010008D0
:10008000A3010008A3010008A3010008A3010008C0
:10009000A3010008A3010008A3010008F902000859
:1000A000A3010008A3010008A3010008A3010008A0
:1000B000110700083107000855070008A3010008D0
:1000C000A3010008A3010008A3010008A301000880
:1000D000A3010008710700088D070008A9070008A0
:1000E000A3010008A3010008A301000800F002F822
:1000F00000F03AF80AA090E8000C82448344AAF188
:100100000107DA4501D100F02FF8AFF2090EBAE885
:100110000F0013F0010F18BFFB1A43F0010318473B
:10012000E025000000260000103A24BF78C878C1FE
:10013000FAD8520724BF30C830C144BF04680C60ED
:10014000704700000023002400250026103A28BF35
:1001500078C1FBD8520728BF30C148BF0B60704739
:100160001FB51FBD10B510BD00F038F81146FFF7E0
:10017000F7FF00F031FE00F056F803B4FFF7F2FF8E
:1001800003BC00F01FFB00000948804709480047F6
:10019000FEE7FEE7FEE7FEE7FEE7FEE7FEE7FEE737
:1001A000FEE7FEE704480549054A064B7047000094
:1001B000B1060008ED000008000100200007002043
:1001C000000300200003002070477047704770470D
:1001D0007047000000487047A00000207546FFF7F8
:1001E000F9FFAE4605006946534620F007008546F4
:1001F00018B020B5FFF7D6FFBDE820404FF000064D
:100200004FF000074FF000084FF0000B21F00701FE
:10021000AC46ACE8C009ACE8C009ACE8C009ACE841
:10022000C0098D46704710B50446AFF300802046E4
:10023000BDE81040FFF7A1BF0448006800F00100CE
:1002400010B101200149086070470000140401400A
:100250000448006800F0020010B102200149086063
:10026000704700001404014010B50C48006800F00D
:10027000040090B10321002000F080FC28B1084860
:100280000068401E0649086004E005480068401CFC
:100290000349086004200149086010BD14040140AE
:1002A000040000200448006800F0080010B1082095
:1002B00001490860704700001404014010B50C4863
:1002C000006800F0100090B10521002000F056FCFD
:1002D00028B108480068401C0649086004E0054849
:1002E0000068401E0349086010200149086010BDE5
:1002F00014040140080000201548006800F02000A8
:1003000010B12020124908601148006800F0400038
:1003100010B140200E4908600D48006800F08000D0
:1003200010B180200A4908600948006800F4807014
:1003300018B14FF48070064908600548006800F461
:10034000007018B14FF40070014908607047000058
:1003500014040140014607238B431A02054B186819
:100360004FF6FF0318401043034B1843014B18602E
:10037000704700000CED00E00000FA0570B505467E
:100380000C460420FFF7E6FF0E48005D00F0010672
:1003900046EA0510C1B20B4801552046E21704EBAE
:1003A000D2625211A4EB421301229A402146E31774
:1003B00004EBD3635B119B0003F1E023C3F800213E
:1003C00070BD000000E400E070B500240EE00021E4
:1003D000204600F0C7F8002504E0002000F0E3F814
:1003E000681CC5B2802DF8DB601CC4B2082CEEDBA3
:1003F00070BD10B502220821012000F0D1FB0222BD
:100400000921012000F0CCFB01220821104600F058
:1004100099FC01220921104600F094FC10BD70B532
:100420000546002413E08020204100EA050209214E
:10043000012000F087FC01220821104600F082FC18
:1004400000220821012000F07DFC601CC4B2082CB1
:10045000E9DB01220821104600F074FC002208218B
:10046000012000F06FFC70BD10B50122092110467B
:1004700000F068FC01220821104600F063FC002215
:100480000921012000F05EFC00220821012000F07B
:1004900059FC10BD10B500220921012000F052FCCA
:1004A00001220821104600F04DFC012209211046CE
:1004B00000F048FC10BD70B5002406E0002500E007
:1004C0006D1CB5F57A7FFBD3641CB4F57A7FF5D348
:1004D000FFF78FFFAE2000F056F8D52000F053F85C
:1004E000802000F050F8A82000F04DF83F2000F0E8
:1004F0004AF8D32000F047F8002000F044F84020EC
:1005000000F041F8A12000F03EF8C82000F03BF8D0
:10051000DA2000F038F8122000F035F8812000F0E1
:1005200032F8CF2000F02FF8D92000F02CF8F1207D
:1005300000F029F8DB2000F026F8302000F023F846
:10054000A42000F020F8A62000F01DF88D2000F077
:100550001AF8142000F017F8AF2000F014F8FFF795
:1005600033FF70BD70B505460C4645F0B00000F095
:100570000AF8102141EA141000F005F804F00F0009
:1005800000F001F870BD10B50446FFF76DFF78204C
:10059000FFF745FF0020FFF742FF2046FFF73FFF30
:1005A000FFF778FF10BD10B50446FFF75DFF782018
:1005B000FFF735FF4020FFF732FF2046FFF72FFF00
:1005C000FFF768FF10BD10B500F002F810BD000085
:1005D0000CB50020019000903348006840F4803052
:1005E0003149086000BF3048006800F400300090D6
:1005F0000198401C0190009818B90198B0F5A06FBF
:10060000F1D12948006800F4003010B101200090B9
:1006100001E0002000900098012843D123480068A1
:1006200040F01000214908600846006820F00300EF
:1006300008600846006840F0020008601A484068F8
:10064000194948600846406848600846406840F4D8
:10065000806048600846406820F47C104860084686
:10066000406840F4E81048600846006840F0807038
:10067000086000BF0C48006800F000700028F9D046
:100680000948406820F00300074948600846406870
:1006900040F00200486000BF0348406800F00C00D2
:1006A0000828F9D10CBD00000010024000200240D3
:1006B00010B51348006840F0010011490860084671
:1006C0004068104908400E494860084600680E49D5
:1006D00008400B4908600846006820F48020086044
:1006E0000846406820F4FE0048604FF41F00886010
:1006F000FFF769FF4FF000600449086010BD00007B
:10070000001002400000FFF8FFFFF6FE08ED00E0D9
:100710004FF08040008A00F0010038B14FF0804077
:10072000008A20F001004FF08041088270470000ED
:1007300010B50748008800F0010038B100F078FCDF
:100740000348008820F001000149088010BD000026
:10075000100400400548008800F0010028B103485B
:10076000008820F00100014908807047100800400F
:100770000548008800F0200028B10348008820F0D8
:100780002000014908807047003801400548008872
:1007900000F0200028B10348008820F02000014923
:1007A00008807047004400400548008800F02000A1
:1007B00028B10348008820F02000014908807047D4
:1007C0000048004000BF704710B50321002000F032
:1007D000CDFFFC21002000F0C9FF0D49086801F0A1
:1007E00091FDC4B22146002000F0C0FF08494868CE
:1007F00001F088FDC4B22146002000F0B7FFFC21C3
:10080000002000F0B3FF0321002000F0AFFF10BD77
:100810003800002070B504460025092C56D2DFE8C8
:1008200004F055050F19232D37414B000C210120F1
:1008300000F0A4F9012801D1012500E0002545E0E0
:100840000D21012000F09AF9012801D1012500E0D5
:1008500000253BE00E21012000F090F9012801D194
:10086000012500E0002531E00F21012000F086F98C
:10087000012801D1012500E0002527E00821002002
:1008800000F07CF9012801D1012500E000251DE0E0
:100890000D21022000F072F9012801D1012500E0AC
:1008A000002513E00E21022000F068F9012801D193
:1008B000012500E0002509E00F21022000F05EF98B
:1008C000012801D1012500E0002500BF00BF284616
:1008D00070BD10B500220121062000F011F80122A0
:1008E0000321002000F05CF9002201210C2000F01F
:1008F00007F801220521002000F052F910BD000088
:100900002DE9F04104460D461646204600F092F8C7
:100910004548806940F0010043498861032294FB07
:10092000F2F0C21700EB927293104FEAB13252F814
:100930002320032394FBF3F1CB1701EB93739B105C
:10094000A1EB83070F23BB409A43032394FBF3F0EF
:10095000C31700EB93739F10344B43F827200320F9
:1009600094FBF0F100FB114028B3032294FBF2F05A
:10097000C21700EB927293102C4A52F823300322D4
:1009800094FBF2F702FB17470122BA40032794FBBE
:10099000F7F1CF1701EB9777BF10A1EB8707BA40AC
:1009A0001343032294FBF2F0C21700EB92729710EC
:1009B0001E4A42F82730032094FBF0F101208840C2
:1009C0001B49096808431A49086065B9032094FB6C
:1009D000F0F101208840164908310968084314499C
:1009E000083108600BE0032094FBF0F101208840FF
:1009F0000F490C31096808430D490C310860032088
:100A000094FBF0F0042809DC032094FBF0F0801D37
:100A1000C7B239463046FFF7B1FC03E01721304634
:100A2000FFF7ACFCBDE8F081001002400800014077
:100A30000004014010B50446182C12D2DFE804F07F
:100A40000C12181E242A30363C42484E545A606616
:100A50006C72787E848A909601220021084600F00C
:100A60009FF889E001220021104600F099F883E008
:100A700001220021022000F093F87DE001221146BE
:100A8000002000F08DF877E001221146104600F0BA
:100A900087F871E001221146022000F081F86BE036
:100AA00001220221002000F07BF865E001220221F2
:100AB000104600F075F85FE001220221084600F0C0
:100AC0006FF859E001220321002000F069F853E09B
:100AD00001220321104600F063F84DE001220321BA
:100AE000022000F05DF847E001220421002000F020
:100AF00057F841E001220421104600F051F83BE094
:100B000001220421022000F04BF835E001220521EA
:100B1000002000F045F82FE001220521104600F0EA
:100B20003FF829E001220521022000F039F823E0F6
:100B300001220621002000F033F81DE001220621E9
:100B4000104600F02DF817E001220621022000F0E7
:100B500027F811E001220721002000F021F80BE026
:100B600001220721104600F01BF805E001220721B1
:100B7000022000F015F800BF00BF10BD10B50246FE
:100B8000064850F82200806801248C4000EA0403E3
:100B90000BB1012010BD0020FCE700001000002078
:100BA00070B5654CA469042585402C43624DAC6149
:100BB00008295DDA614C54F8204024688E000F2526
:100BC000B540AC435D4D55F820502C601AB1032A56
:100BD00001D0022A0FD10124944044F003048D0077
:100BE000AC40564D55F820502D682C43534D55F8C8
:100BF00020502C609FE0012A01D0042A2AD14F4CBA
:100C000054F8204024688E000825B5402C434B4DF5
:100C100055F820502C60012A0ED1484C54F8204041
:100C2000E46801258D4024EA050301248C401C431F
:100C3000424D55F82050EC60042A7CD13F4C54F8CA
:100C40002040E56801248C40A5433C4C54F82040EA
:100C5000E56070E0042494408D00AC40374D55F8B9
:100C600020502D682C43354D55F820502C6062E003
:100C7000324C54F820406468A1F10805AE000F25FD
:100C8000B540AC432D4D55F820506C601AB1032A85
:100C900001D0022A11D10124944044F00304A1F1AF
:100CA0000805AD00AC40254D55F820506D682C432B
:100CB000224D55F820506C603DE0012A01D0042AF5
:100CC0002AD11E4C54F820406468A1F10805AE00FA
:100CD0000825B5402C43194D55F820506C60012A69
:100CE0000CD1174C256801248C4025EA040301240B
:100CF0008C401C43114D55F82050EC60042A1AD149
:100D00000E4C54F82040E46801258D40AC430B4D57
:100D100055F82050EC600EE004249440A1F1080541
:100D2000AD00AC40054D55F820506D682C43034D87
:100D300055F820506C6070BD00100240100000207B
:100D40000C08014030B57AB10D4C54F82040E468ED
:100D500001258D4024EA050301248C401C43084DE5
:100D600055F82050EC600AE0054C54F82040E46847
:100D700001258D40AC43024D55F82050EC6030BD4C
:100D80001000002010B501220C211046FFF708FFCB
:100D900001220D211046FFF703FF01220E2110460C
:100DA000FFF7FEFE01220F211046FFF7F9FE012298
:100DB00008210020FFF7F4FE01220D210220FFF799
:100DC000EFFE01220E210220FFF7EAFE01220F2191
:100DD0000220FFF7E5FE10BD08B5FFF76CFB00F041
:100DE00061F8FFF776FD00224FF41651104600F02F
:100DF0005FFC0C480C4B1A46012100900B4800F098
:100E000065F90848084B1A4601210090084800F08F
:100E10005DF9FFF7B7FF00220A21012000F0F6FA82
:100E200000BFFEE70000A040000020413800002085
:100E30006C00002010B50446A2B20021084600F064
:100E40005BFA0948027806210020FFF77BFF06487D
:100E5000007808B9012000E00020024607210020A8
:100E6000FFF770FF10BD00000000002010B5044621
:100E7000A2B20121002000F03FFA094802780021C7
:100E80000120FFF75FFF0648007808B9012000E065
:100E90000020024601210846FFF754FF10BD000064
:100EA0000100002010B54FF47A720021084600F0CE
:100EB00015F9002206211046FFF772FE00220721D5
:100EC0001046FFF76DFE4FF47A720121002000F00A
:100ED00005F9002211460120FFF762FE00220121E0
:100EE0000846FFF75DFE10BD70B505460C46002DA7
:100EF00008DB012011490870284601F023FA104947
:100F0000086007E000200D490870684201F01AFAF5
:100F10000B490860002C08DB01200A4908702046B4
:100F200001F010FA0849086007E000200549087040
:100F3000604201F007FA0449086070BD000000201B
:100F400038000020010000206C0000202DE9F04155
:100F50000446D4E9000101F05DFBA060206B01288C
:100F60002DD1D4E9020101F055FB0546616901F07C
:100F700049FA2062A168A06901F044FAA0624FF02A
:100F80008040E16801F03EFA0746A16801F037FBB6
:100F90000646216901F06AF80546E16901F032FA76
:100FA0006062A16A206A01F061F80646616A01F098
:100FB0005DF80546E16A01F059F8E06221E0206B36
:100FC000F8B9A168606901F01DFA2062A168A06902
:100FD00001F018FA0546A16A01F048F8A062D4E9C8
:100FE000020101F017FB0546E16901F00BFA6062AE
:100FF000A16A206A01F03AF80546616A01F036F804
:10100000E062E1682161A168E1600849E06A01F0FD
:10101000C5FA01D80548E0620021E06A01F0BEF996
:1010200001D80020E062BDE8F08100000050434795
:1010300010B500F023FA1F48007830B11E48006850
:1010400001F080F91D49486006E01B4800684042F5
:1010500001F078F9194948601948007830B1194809
:10106000006801F06FF91849486006E0154800680B
:10107000404201F067F91449486000200E490860B9
:10108000104908600D48FFF761FF0F48FFF75EFF4A
:101090000A49C86A01F01AF90446FFF7CBFE0A496B
:1010A000C86A01F013F90446FFF7E0FEFFF78CFB76
:1010B00010BD0000000000200400002038000020C7
:1010C00001000020080000206C00002010B5029CE8
:1010D000016342618361C46110BD00002DE9F041EC
:1010E00004460D4616462846E91705EB917189100E
:1010F000A5EB8101491CCFB25148C0690121A14033
:1011000008434F49C8614F4890FBF6F0401E4E49D6
:1011100051F82410888547204B4951F82410088540
:10112000284600F093F8012F06D0022F1ED0032F7F
:1011300036D0042F69D14DE0434850F82400008B8D
:1011400040F06000404951F8241008833E4850F8B0
:101150002400008B40F008003B4951F8241008831C
:101160000020394951F8241088864EE0364850F85E
:101170002400008B40F4C040334951F82410088308
:10118000314850F82400008B40F400602E4951F89B
:101190002410088300202C4951F82410088734E0DB
:1011A000294850F82400808B40F06000264951F80F
:1011B00024108883244850F82400808B40F00800D5
:1011C000214951F82410888300201F4951F8241028
:1011D00088871AE01C4850F82400808B40F4C040F7
:1011E000194951F824108883174850F82400808B3F
:1011F00040F40060144951F82410888300201249FB
:1012000051F82410A1F8400000BF00BF0E4850F86C
:101210002400008C791E8A000121914008430A496C
:1012200051F824100884084850F82400008840F041
:101230008100054951F824100880BDE8F0810000C4
:101240000010024040420F001C00002010B5044670
:101250000C2C4FD2DFE804F0060C12181E242A30A2
:10126000363C4248032200210846FFF799FC41E042
:10127000032201210020FFF793FC3BE0032202211F
:101280000020FFF78DFC35E0032211460020FFF718
:1012900087FC2FE0032206210020FFF781FC29E0D4
:1012A000032207210020FFF77BFC23E0032200211B
:1012B0000120FFF775FC1DE0032201210846FFF71E
:1012C0006FFC17E0032206210120FFF769FC11E003
:1012D000032207210120FFF763FC0BE00322082112
:1012E0000120FFF75DFC05E0032209210120FFF743
:1012F00057FC00BF00BF10BD2DE9F84F04460D4656
:1013000017462846E91705EB91718910A5EB810175
:10131000491C01F0FF084CF25030874200DB0746C1
:10132000384850F82400868DB8F1010F09D0B8F183
:10133000020F1DD0B8F1030F31D0B8F1040F5DD109
:1013400044E0701C00F0FEFF8346384601F012F8BE
:101350002D49009000F0F8FE8246594601F052F8FF
:10136000814600F0CFFF274951F82410888645E0D8
:10137000701C00F0E7FF0090384600F0FBFF83464A
:10138000214900F0E1FE8246009901F03BF88146D8
:1013900000F0B8FF1B4951F8241008872EE0701C9C
:1013A00000F0D0FF0090384600F0E4FF8346164975
:1013B00000F0CAFE8246009901F024F8814600F050
:1013C000A1FF104951F82410888717E0701C00F025
:1013D000B9FF0090384600F0CDFF83460A4900F07F
:1013E000B3FE8246009901F00DF8814600F08AFFB5
:1013F000044951F82410A1F8400000BF00BFBDE827
:10140000F88F00001C0000200050434770B50446D0
:101410000D4616461748C0690121A14008431549E9
:10142000C86105EB85004000401E134951F82410A7
:10143000888541F61F40104951F8241008850E4850
:1014400050F82400008840F001000B4951F82410A6
:101450000880094850F82400808940F001000649BE
:1014600051F82410888104F11C00C1B23046FEF707
:1014700085FF70BD001002401C00002010B5042044
:10148000FFF7C8F940B90520FFF7C4F920B9642176
:101490000846FFF729FDB9E00420FFF7BBF940B982
:1014A0000520FFF7B7F920B178216420FFF71CFD74
:1014B000ACE00420FFF7AEF940B10520FFF7AAF930
:1014C00020B964217820FFF70FFD9FE00320FFF78C
:1014D000A1F940B10420FFF79DF920B982215A20DB
:1014E000FFF702FD92E00520FFF794F940B90620CE
:1014F000FFF790F920B95A218220FFF7F5FC85E02B
:101500000320FFF787F940B90420FFF783F920B1E2
:1015100082215A20FFF7E8FC78E00520FFF77AF9EE
:1015200040B10620FFF776F920B95A218220FFF753
:10153000DBFC6BE00220FFF76DF940B90320FFF7F9
:1015400069F920B996215020FFF7CEFC5EE0062015
:10155000FFF760F940B90720FFF75CF920B9502187
:101560009620FFF7C1FC51E00220FFF753F940B984
:101570000320FFF74FF920B196215020FFF7B4FC6C
:1015800044E00620FFF746F940B10720FFF742F993
:1015900020B950219620FFF7A7FC37E00120FFF784
:1015A00039F940B90220FFF735F920B9B4213C20C0
:1015B000FFF79AFC2AE00720FFF72CF940B9082032
:1015C000FFF728F920B93C21B420FFF78DFC1DE07E
:1015D0000120FFF71FF940B90220FFF71BF920B1E6
:1015E000B4212820FFF780FC10E00720FFF712F954
:1015F00040B10820FFF70EF920B92821B420FFF7E9
:1016000073FC03E064210846FFF76EFC10BD000088
:101610002DE9F04F89B081468A46B9F1000F01D11A
:101620001F4C00E01F4C4FEA0A1094FBF0FB584699
:1016300000F0F5FACDE90401504600F0D9FA07466A
:101640000022194B00F0FEFA05460E46204600F037
:1016500079FE074600F0DEFC2A463346CDE900015C
:1016600000F06EF9CDE90201DDE9042300F0E8FBAA
:10167000CDE9060100F08AF808904FF08341089800
:1016800000F0C0FE0890089800F03CFE00EB0B1044
:10169000064951F82910088109B0BDE8F08F000013
:1016A00000A24A040051250200003040280000201A
:1016B00070B504460E46154634B91448806940F4A6
:1016C00080401249886108E01048C06904F11001A7
:1016D00001228A4010430D49C861204600F01AF8E3
:1016E00031462046FFF794FF094850F824008089CE
:1016F00042F22C010843064951F82410888104F174
:101700002500C1B22846FEF739FE70BD0010024028
:101710002800002010B5044624B1012C0DD0022C65
:1017200021D115E0032209210020FFF739FA042214
:101730000A210020FFF734FA15E0032202210020DD
:10174000FFF72EFA042203210020FFF729FA0AE00E
:1017500003220A210120FFF723FA04220B21012092
:10176000FFF71EFA00BF00BF10BD000000BF064A11
:1017700052F82020128802F04002002AF7D0024AD4
:1017800052F82020918070472800002021F000426C
:10179000A2F16052B2F5801F01F0004328BFD2F1E0
:1017A0007F6C0BD95FEA001C43EAC20242EB507027
:1017B00018BF704728BF20F001007047B2F5801FA6
:1017C000BCBF184670474FEA410C1CF5001F02D2FF
:1017D000084600F0DEBE70B500F0DEFA00000089B9
:1017E000FFF7F6BF4FF00040A0F580007047000003
:1017F00010B591EA030F48BF83F0004300F128833E
:10180000841A71EB030C05D2121943EB0C03001B75
:1018100061EB0C01DFF824E14FEA1154A4EB135CF7
:101820001EEA430F18BF9EEA445F73D023EA0E03FB
:10183000DCF1200E21EA045143F4801332D322FA62
:101840000CFE10EB0E0023FA0CFE41EB0E01CCF166
:10185000200E03FA0EFE10EB0E0051F10001B1F55F
:10186000801FCCF1200E32D201EB045112FA0EF29D
:10187000BDE8104058BF7047401C38BF5FEA4202C5
:1018800018BF7047002814BF20F0010041F100018B
:101890004FEA410313F5001F38BF7047A1F1C04163
:1018A00000F0C8BA012A43EB0302ACF1200CDCF1D2
:1018B0001F0E32BF4FF0000E23FA0CF310EB0300A3
:1018C00041EB0451B4EB115FD0D0A1EB045101F511
:1018D000801149085FEA300001EB04510ED350F14A
:1018E000000038BF12FA0EFE08D1BDE81040C9E76B
:1018F000401C38BF5FEA4202CAD1C3E7BDE81040CE
:101900004FEA410313F5001F38BF7047A1F1C041F2
:1019100000F090BA9EEA445F08D011EA5E0FBDE87D
:10192000104004BF01F0004100207047BDE81040A6
:1019300070B500F031FA00BF64FBBE3E0000E0FF6E
:101940002DE9C04130B4DFF8A0C23CEA111418BF41
:101950003CEA131400F0EC8081EA03051CEA111440
:1019600044EAD57418BF1CEA131500F0C780A4EB35
:1019700005044FF0004545EAC12145EAC32341EA89
:10198000505143EA525304F17F74994204F50034F4
:101990004FEAC0204FEAC22208BF904200F09C806C
:1019A0004FEA13650FF24016765D4FEA134506FBCA
:1019B00005F7C7F1807706FB07F74FEAD737A7FB94
:1019C00003687642C8F58038A7FB06CE38BFA8F179
:1019D000010807FB08E64FF0000EA6FB028CE6FBB1
:1019E00003CEDCF1000CCEF1004E38BFAEF1010E9B
:1019F000A6FB0C584FF000074FF00005E6FB0E87E2
:101A0000A1FB08C6A0FB07CE16EB0E0645F10005AC
:101A1000E1FB076515F1E04E7EBFA4F580345FEA77
:101A200046066D4116F1800745F100054FEA17277C
:101A30004FEA066647EA0567A6F1DE46B6F1805F23
:101A40004FEA15251FD9384624F0010C05EBC47167
:101A5000BCF1FE6F01EB0C1102D8F0BCBDE80081B7
:101A600024425CBF01F5801E9EEAC47F02D4F0BC14
:101A7000BDE80081244238D4F0BCA1F1C041BDE8EA
:101A8000004100F0D7B94FEAD22242EA43524FEA6E
:101A9000D323A7FB02864FEAD02040EA415007FB40
:101AA00003661EEA0E0F4FEAD12105FB026658BFFE
:101AB000A6EB0056B6EB00564FEA520E4EEAC37E36
:101AC00018EB0E0E56EB530EBDD518EB02085E4117
:101AD0007F1C55F10005B6E74FF480154FF0000765
:101AE0004FF000064FF00008ADE7F0BC4FF00000EB
:101AF00001F1C04101F00041BDE8008111EA0C1F75
:101B00000CEA131500D00CE013EA0C1F00F025803E
:101B10004FF00000F0BC81EA030101F00041BDE894
:101B20000081F0BCBDE8004181EA030100F082B908
:101B3000F0BCBDE8004170B500F02EF9097EFC3E16
:101B400000F007B881EA03014FF0000001F0004106
:101B5000704781EA030100F06DB9F0BCBDE80041B7
:101B60004FF0000021497047FFFDFBF9F7F5F4F253
:101B7000F0EEEDEBE9E8E6E4E3E1E0DEDDDBDAD828
:101B8000D7D5D4D3D1D0CFCDCCCBCAC8C7C6C5C486
:101B9000C2C1C0BFBEBDBCBBBAB9B8B7B6B5B4B39D
:101BA000B2B1B0AFAEADACABAAA9A8A8A7A6A5A488
:101BB000A3A3A2A1A09F9F9E9D9C9C9B9A9999984C
:101BC0009797969595949393929191908F8F8E8EEF
:101BD0008D8C8C8B8B8A898988888787868585847C
:101BE00084838382828181800000FF070000F87F68
:101BF00010F0004248BF4042B0FA80F310FA03F1FF
:101C00000AD0C3F11D0303F580634FEA415002EB94
:101C1000035202EBD12170474FF000007047B0FA39
:101C200080F310FA03F10AD0C3F11D0303F58063BA
:101C30004FEA41504FEA035202EBD12170474FF077
:101C400000007047DFF848C170B51CEA111E1EBFC6
:101C50001CEA13159EEA0C0F95EA0C0F00F06F803A
:101C600081EA030423EA4C134EEAD47E21EA4C11A4
:101C700041F4801143F48013AE44A1FB024CA0FB5D
:101C80000365AEF17F7E361955EB0C05A1FB034CC5
:101C90004CF10003A0FB021C16EB0C06654153F14E
:101CA0000003094218BF46F0010613F4007F0BD170
:101CB0004FEA03314FEA0530340341EA155140EA57
:101CC00016506FF003020AE04FEAC3214FEAC52025
:101CD000F40241EA555140EA56506FF0020202EB1D
:101CE0002E4201EB025585EACE710AD05FEA440C20
:101CF00018BF24F0004450F1000041F1000120EA37
:101D0000D47040F2FE7C624500D270BDA84214BF80
:101D10004FF080444FF04044002E08BF0024BEF135
:101D2000806FA8BFA1F1C041BDE8704080F2828001
:101D30004FF0000001F1C04101F0004170479EEA00
:101D40000C0F0CEA131518BF95EA0C0F06D04FF0D4
:101D5000000081EA030E0EF0004170BD00F01CF897
:101D60008900013E00F007B800F009B84FEA430CC3
:101D70005FEA5C5C08D081EA030100F05BB84FEADF
:101D8000410C5FEA5C5CF6D14FF0000001497047FE
:101D90000000FF070000F87F0EF1020E2EF0030E88
:101DA0005EF8046B364205D4012A43EB030515F5B2
:101DB000001F12D8012841EB010C1CF5001F0CD8A4
:101DC0000ED14FEAD17C15F5001F0CEB4C0C0CF139
:101DD000020C08BF4CEBD37C04E04FF0080C01E090
:101DE0004FEAD37C0CEB4C0526FA05F606F0070605
:101DF000B6F1040C06D20EEB860CBDE870404CF038
:101E0000010C6047DFE80CF0090B02024FF00041C3
:101E10004FF00000A1F5002170BD194610460128C1
:101E200051EB010418BFD4F5001484BF002001F069
:101E3000004170BD0808A0F500114FEA310170475C
:101E400010B591EA030F48BF83F000433FF5D8ACCB
:101E5000841A71EB030C07D212198CF0004C43EB7F
:101E60000C03001B61EB0C01DFF8A4E14FEA1154F5
:101E7000A4EB135C1EEA430F18BF9EEA445F00F018
:101E8000B08023EA6E03524221EA0451C3EB6E0391
:101E900038BF5B1EDCF1200E25D322FA0CFE10EBBE
:101EA0000E0043FA0CFE41EB0E01CCF1200E03FABA
:101EB0000EFE10EB0E0051F10001CCF1200E29D4E2
:101EC00012FA0EF201EB0451BDE8104058BF704702
:101ED000401C1CBFB2F1004F704700280CBF491CCA
:101EE00020F00100704712EB020E43EB030218BF13
:101EF0004FF0010E4EEA4202ACF1200CDCF11E0E56
:101F000054D943FA0CFE10EB0E0051F1FF31CCF125
:101F10001E0ED5D50EF1010E12FA0EFE404141EB18
:101F2000010101EB445C5FEA5C5C10D910EBDE70F0
:101F300001EB045138BFBEF1004FBDE8104018BF9F
:101F4000704700280CBF491C20F00100704730D2B8
:101F50004FEAD42C11F5001124F400641BD0B1FA1F
:101F600081F20B3AA41AA41ED2F12003914030FA58
:101F700003F31943904001EBCC71002C01EB0451A9
:101F8000BDE81040A8BF704701F1C0414FF000000C
:101F900001F000417047B0FA80F310FA03F100D16C
:101FA00010BDE41A173C4805C90AE4E701EB0451E7
:101FB00010BD491001EB0451BDE810404FEA30005C
:101FC00002E04FF0000170474A0008BF0042F8D01D
:101FD000B2F5001F28BF704701F000414FF000002C
:101FE00070479EEA445F07D011EA5E0FBDE81040DB
:101FF00004BF002100207047BDE8104070B5FFF716
:10200000CBFE00BF40DFF63E83F000411046704734
:102010000000E0FF43004FEAD30C4FEA3C0C434082
:102020001FBF40070CF1605113F0FE4F70471CF0CA
:10203000006F03D100200CF0004170470CF000430A
:1020400043EA507010B540EACC0000F05CFA00BFE3
:10205000000000924FEA0001FFF7ECBE4FF0004194
:102060004FF00000A1F500217047000090EA010F39
:1020700048BF81F0004100F1D482421A3CBF801A6F
:1020800089184FEAD0524FF07F4C1CEA410FA2EB67
:10209000D15318BF9CEA026F00F03B804FF0004C18
:1020A0004CEA00204CEA012121FA03FC10EB0C0C55
:1020B0001ED202F1FF325FEA1C2040EBC25038BF53
:1020C00070471CF07F0F4FEA400C18BFBCF17F4FE8
:1020D00038BF7047C3F12003994008BF20F00100CA
:1020E000BCF17F4F38BF7047A0F1C04000F051BA3B
:1020F0004FEA3C00000A40EBC25028BF1CF0FF0F23
:102100004FEA400CE6D018BFBCF17F4F38BF704794
:10211000EAE79CEA026F05D010EA5C0F08BF00F006
:102120000040704710B500F0EEF900BF64FBBE3E02
:10213000401058BFC0F14040491058BFC1F1404164
:102140008142EFF3008070474FF47F0C1CEAD012FD
:102150001EBF1CEAD11392EA0C0F93EA0C0F00F099
:10216000858090EA010F48BF42F4807240F4000C71
:1021700041F400002CF07F4120F07F4000B5814207
:10218000A2EB03020FF2081CACEB504EC0F10000B2
:102190009EF800E04FEA4E0E00FB0EFC38BF4900EF
:1021A0004FEA2C1C02F5FA020CFB0EF34FEACE1E8E
:1021B0004FEA112C4FEAC1210EEB635E42EB224243
:1021C0000EFB0CFC4FEA1C5300FB03114FEA112CD1
:1021D0004FEA01310EFB0CFC4FEADC4C00FB0C110A
:1021E000C14228BF09184CEB03335DF804EB10EB38
:1021F000410143EBC250B2F57C0F38BF704729D57F
:1022000012F0F00F1CBF00F1C04000F0004070471A
:10221000008182838485868788898B8C8D8E8F91BF
:102220009293959697999A9C9D9FA0A2A3A5A7A8E3
:10223000AAACAEB0B2B3B5B7B9BCBEC0C2C5C7C90F
:10224000CCCED1D4D7D9DCDFE2E6E9ECF0F3F7FA73
:10225000FE0000004FEA400C0CF1807CBCF17E4F88
:1022600028BF7047B0F1C04000F093B990EA010F69
:102270000CEAD11348BF42F48072624538BF63450F
:1022800007D213F47F0F16D080EA010000F000405F
:10229000704710B500F037F9097EFC3E00F005B834
:1022A00080EA010000F00040704780EA010000F081
:1022B000004000F06EB912F47F0F04BF024870476F
:1022C00080EA010000F065B90000C07F41000B0EFC
:1022D000D3F19E0208D950F400034FEA032323FAF6
:1022E00002F048BF4042704710B500F00CF900BF43
:1022F00049922480002070476FF0004282EA20005B
:1023000070470000C10DD1F19E0206DB4FEA0023A9
:1023100043F0004323FA02F07047004207D54FEA2A
:102320004001B1F1FE4F02D24FF00000704710B5EE
:1023300000F0E9F849922480002070476FEA2000FD
:102340007047000010F0004148BF4042B0FA80F3EF
:1023500010FA03F2C3F19D030BD051EAC35101EB14
:102360001220530638BF704700F1010008BF20F06B
:1023700001007047B0FA80F310FA03F2C3F19D0335
:102380000AD0D90501EB1220530638BF704700F17F
:10239000010008BF20F001007047000050EA010C66
:1023A00000F113801CF5000F58BFBCF5000F01D4DD
:1023B0008842704707D710F5000F58BF11F5000F7E
:1023C00015D488427047894270471CF5000F04D528
:1023D000BCF5000FF7D5814270474FF0807C1CEBB5
:1023E000400F38BF1CEB410F01D28142704710B53E
:1023F00000F089F8922449004FF000504FF08051CE
:10240000FFF796BE4FF47F0C1CEAD0121EBF1CEAE9
:10241000D11392EA0C0F93EA0C0F00F0478090EA78
:10242000010F48BF42F480724FF0004C4CEA00208C
:102430004CEA012102EB0302A0FB0113A2F500020A
:10244000002918BF43F001035B0028BF4FEA3303A4
:1024500042EB22425FEA132C4CEBC2502EBFBCEB86
:10246000436FB2F57C0F70474FEA036CBCF1004F2D
:1024700008BF20F00100B2F57C0F38BF70470BD5C4
:1024800082F0FF0212F5803FC8BF704700F1C040E4
:10249000D8BF00F00040704700F5000C5FEA4C0C1C
:1024A00048BF7047B0F1C04000F073B890EA010F28
:1024B0000CEAD11348BF42F48072624538BF6345CD
:1024C00004D280EA010000F00040704710B500F02F
:1024D0001AF800BF8900013E00F007B800F009B803
:1024E0005FEA410C5FEA1C6C08D080EA010000F052
:1024F00050B85FEA400C5FEA1C6CF6D14FF0004028
:10250000A0F5800070470EF1020E2EF0030E5EF86B
:10251000044B244204D44FEA4102B2F17F4F11D858
:102520004FEA4003B3F17F4F0CD80ED14FEAD07C75
:10253000B2F17F4F0CEB4C0C0CF1020C08BF4CEBD2
:10254000D17C04E04FF0080C01E04FEAD17C0CEBA9
:102550004C0324FA03F404F00704B4F1040C06D28B
:102560000EEB840CBDE810404CF0010C6047DFE836
:102570000CF0070802024FF00040A0F5800010BDEB
:102580000846420018BFD2F1807288BF00F00040B8
:1025900010BDFF2141EAD050C005704751EA000C40
:1025A00000F113801CF5000F58BFBCF5000F01D4DB
:1025B0008142704707D711F5000F58BF10F5000F83
:1025C00015D481427047894270471CF5000F04D52D
:1025D000BCF5000FF7D5884270474FF0807C1CEBAC
:1025E000410F38BF1CEB400F01D28842704780EA90
:1025F000010081EA000180EA0100FFF7F8BE80F0E7
:10260000004090EA010F7FF538AD81F0004100F005
:1026100008B8000090EA010F48BF81F000413FF583
:102620002CAD421A04D882F00042A0EB0200114403
:102630004FEAD0524FF07F4C1CEA410FA2EBD1532E
:1026400018BF9CEA026F4AD04FF0004C4CEA0020C1
:102650004CEA012121FA03FCB0EB0C0C0FD412F070
:10266000FE0F36D05FEA4C001DD5001240EBC25081
:1026700038BF70471CF03F0F18BF70470BE0A2F146
:1026800001025FEA1C2040EBC25038BF70471CF0CB
:102690007F0F18BF7047C3F12003994014BF401E3D
:1026A00020F00100704780084FEA122308BF7047EE
:1026B000B0FA80FCA2EB0C02CCF1280C60FA0CF012
:1026C00093EA122F04BF00EBC25070474FEAC37069
:1026D0007047130A5FEADC1008BF7047F6E79CEA10
:1026E000026F04D010EA5C0F08BF0020704710B5DD
:1026F000FFF709FF40DFF63E81F000407047000021
:1027000020270008000000203800000028010008F1
:102710005827000838000020C806000044010008BF
:1027200001010000000000000000000000000000A7
:1027300000080140000C0140001001400000004072
:102740000004004000080040003801400044004000
:082750000048004000000000F9
:04000005080000ED02
:00000001FF
